:100000000C940A0B0C94320B0C94320B0C94320BA4
:100010000C94320B0C94320B0C94320B0C94320B6C
:100020000C94320B0C94320B0C94AF140C941E15E0
:100030000C94320B0C94320B0C94320B0C94320B4C
:100040000C94320B0C94320B0C94320B0C94320B3C
:100050000C94320B0C94320B0C94320B0C94501702
:100060000C94320B0C94320B0C94320B0C94320B1C
:100070000C94320B0C94320B0C94320B0C94320B0C
:100080000C949A170C94320B0C94320B0C94320B88
:100090000C94320B0C94320B0C94320B0C94320BEC
:1000A0000C94320B0C94320B0C94320B084AD73B55
:1000B0003BCE016E84BCBFFDC12F3D6C74319ABD37
:1000C00056833DDA3D00C77F11BED9E4BB4C3E915B
:1000D0006BAAAABE000000803F05A84CCDB2D44E4A
:1000E000B93836A9020C50B9918688083CA6AAAA4C
:1000F0002ABE000000803F00000000000000000059
:10010000000000000000000000000000000180006E
:10011000062669F6F666E6EFF692198996E6E6E9AE
:100120009999F000024183CF0929998819999998E2
:1001300088921A8FD9999849999910000427E56FE8
:1001400009222FEE167FE89EE8F21C89B9E9E649FC
:10015000996660060427E7EF0924911919199998FF
:1001600089929A89998B91496F968020042187EF13
:10017000067F61E61669E6EF869269F996879E46E4
:100180006996F440F24180E08040201008040201AA
:10019000000000000000000000000000000000005F
:1001A000000088880000222200008A8A00002222A3
:1001B0000000AAAA1010AAAA0000AAAA0101AAAACD
:1001C0004444AAAA5555AAAA4444AAAA1555AAAABB
:1001D0005555AAAA5555BBBB5555AAEA5555BBBBA3
:1001E0005555FFFF5555FBFB5555FFFF5555BBBFFB
:1001F0005757FFFFDDDDFFFF7775FFFFDDDDFFFFF9
:10020000FFFFFFFFFFFFFFFFFFFFFFFFFFFFFFFFFE
:100210008D14A1C88180D9F102AFF0F89C8E87833C
:10022000878E9CF8F00000FEFF0303030303070E14
:10023000FCF80000FEFF0303030303070EFCF800B5
:1002400000FFFF00000000000000FFFF0000FEFFB5
:100250008383838383C7EE7C380000F8FC0E07039A
:100260000303070EFCF800003F7FE0C08080C0E081
:100270007F3FFFFF01010101010101FFFF0000FFBE
:10028000FF0C0C0C0C1C3E77E3C100007FFFC0C0CC
:10029000C0C0C0E0703F1F00001F3F70E0C0C0C082
:1002A000E0703F1F00007FFFC1C1C1C1C1E3773EC5
:1002B0001C00001F3F70E0C0C0C0E0703F1F000086
:1002C00000000001FFFF0100000050524553532081
:1002D00046495245000000000000000000004008B0
:1002E000000104200801120000100000004000007E
:1002F0004000800050002811024000A0005000285B
:100300000A026001A00050002C0A0241E1B0F05046
:1003100078280A066220A1B850C82C04024A31B0DD
:1003200088D0882804066221A18850886C14024372
:1003300031B08A528A2880064231A8C8D0882C421F
:10034000866B29A5A8D4EAAC50426365B4DA52D9C9
:100350006C422653B1B1D8D4DA6D48866B75B5DAE4
:1003600052FC6D6B566BA1B0FBDAD96C694653ED4C
:10037000BDFA76FAEF6CB26FEBF4FDDDFD6CE74E83
:1003800077EBBFFED6FBEEF1E659EFBCF2D6FBEF02
:10039000F4F6F3B7FFFB5CFFEFD67A6BBFBE88D2F3
:1003A000DFEFDCD64B7FFFCA709FEFDECE4BDFBFA7
:1003B000EB76FFEFDFD677FFFFFE56FFFFDFC2DFF2
:1003C000FFFFFEFBDFEFCF764FFFBFFBDFFFE7EF67
:1003D000527FFF9FFFFFFFDFDF7EFFFFCFFFFFFFAB
:1003E000BFCE627FFFFFFFDFFF7FFEFE7FFFE3FFE9
:1003F0008FFF7FEE7E7FFFC1FF07FC1FDF7EFFFFC9
:10040000807C01F00FFDFE7FFF003801E007FD7EDC
:100410007FFC00100040033FFE7FF800000000005A
:1004200013FEFFF00000000000037E7FC00000000C
:10043000000003FE7F80000000000003FE7F00003C
:100440000000000007FEFC00000000000003FEF8B2
:1004500000000000000001FE70000000000000002D
:10046000FE20000000000000003F0000000000002F
:1004700000001E00000000000000000CDA040A006A
:10048000DA040A00DA040A00B5000A00D9010A00F9
:100490006D020A00F1010A00F1010A0080000A0061
:1004A000F1010A006D020A006D020A005A020A00F8
:1004B000E4000A006D020A006D020A0000802802B2
:1004C0000A0028020A0028020A0028020A0028025C
:1004D0000A0028020A0028020A0028020A0028024C
:1004E0000A0028020A0028020A0028020A0028023C
:1004F0000A0028020A0028020A0028020A0028022C
:100500000A0028020A0028020A0028020A0028021B
:100510000A0028020A0028020A006D020A006D0281
:100520000A006D020A006D020A006D020A006D02E7
:100530000A006D020A0069010A0069010A006901E6
:100540000A0069010A0069010A0069010A006901DB
:100550000A0069010A0069010A0069010A006D02C6
:100560000A006D020A006D020A006D020A006901AC
:100570000A0069010A0069010A0069010A006901AB
:100580000A0069010A0069010A0069010A0069019B
:100590000A0069010A006D020A006D020A006D027C
:1005A0000A006D020A0069010A0069010A00690176
:1005B0000A0069010A0069010A0069010A0069016B
:1005C0000A0069010A0069010A0069010A006D0256
:1005D0000A006D020A006D020A006D020A006D0237
:1005E0000A006D020A001B030A001B030A001B031A
:1005F0000A001B030A001B030A001B030A001B035B
:100600000A001B030A001B030A001B030A001B034A
:100610000A001B030A001B030A001B030A001B033A
:100620000A001B030A000080EA000A006D020A00AB
:1006300057010A0057010A0057010A006D020A001B
:100640006D020A006D020A006D020A006D020A00C6
:100650006D020A006D020A0086010A0086010A0086
:1006600086010A0086010A006D020A006D020A0076
:100670006D020A006D020A006D020A006D020A0096
:100680006D020A006D020A006D020A000B020A00E8
:100690000B020A000B020A006D020A006D020A003A
:1006A0006D020A006D020A006D020A006D020A0066
:1006B0006D020A0087030A0087030A0087030A0005
:1006C00087030A0087030A006D020A006D020A0010
:1006D0006D020A006D020A006D020A006D020A0036
:1006E0006D020A006D020A006D020A0087030A000B
:1006F00087030A0087030A0087030A0087030A00AA
:1007000087030A006D020A006D020A006D020A00EA
:100710006D020A006D020A006D020A006D020A00F5
:100720006D020A006D020A00B2030A00B2030A0059
:10073000B2030A00B2030A00B2030A00B2030A00BD
:10074000B2030A0000801FF83FFC7FFE7FFE7FFEA1
:100750007FFE7FFE7FFE7FFE7FFE7FFE7FFE7FFEB1
:100760007FFE7FFE3FFC0000000000000000000054
:100770000FFC1FFC3FFC3FFC3FFC3FFC3FFC07FC29
:1007800003F8000000001FF83FFC7FFE7FFE77EEBD
:100790003FFC5FFA2FF653CC3E7E5E7C381E581C21
:1007A0003E7E5E7E2EFC0000000000000000000087
:1007B0000FFC17FC226C36443FFC1FFC2BFC05543D
:1007C00002A8000000001F400FF03FF81FFC7FFD53
:1007D0007FFC7FFDFFFEFFFFFFFFFFFEFFFE3FFEF2
:1007E00017F807F401E0000001400AB00ED00068DD
:1007F00053B40F48277817A827F021D602F82048CD
:1008000006200100000000000000000000000003BE
:10081000C0000003C0000007E0000007E000000384
:10082000E0000107F18000DFFE00003FFE00007FD6
:10083000FF0001FFFF8000FFFF8001FFFF8003CF6B
:10084000F1C001C7F1C00187F1C0030FF980030FA8
:10085000FB80018FFF80039F7900001F7C00000F49
:100860007800000F7800000730000007380000070C
:100870003000000730000003780000073000000F50
:10088000800000000000000000000003C00000071E
:10089000C0000007E0000007C0000107E100008F72
:1008A000FA0000FFFE00003FFE00017FFF8000FF16
:1008B000FF0001FFFF8003CFFBC00387F1C003CF20
:1008C000F3C001CFF18000CFF100000FFB80001ECC
:1008D0007800000E7800001E7800000F7000000FF6
:1008E0007800000770000007700000073800000360
:1008F00030000003200000073000000570000000F9
:10090000780000000000000000000000000000006F
:100910000E0000001F0000001F0000033F800001C8
:100920003F000001FF300003FFC00003FFC00003D1
:10093000FF800007FFE00007FFC00005FFE00000A8
:10094000FCE00001FCE00001FC700003FC38000347
:10095000FE700007FC0000079E00000FBC00000FA7
:100960003E0000079C0000039C000003B800000349
:1009700098000001980000021C00000036000000F2
:100980000000000000000000000000000000000067
:100990000000000000000000000000002000000037
:1009A000380000001F0000001F4000003E800001D2
:1009B000FF800003FF800007FFE0000EFFC0000C77
:1009C000FF80001FFE000013FC000007FE00001F58
:1009D000FF00003F9F00003E0F00007C0F000078EA
:1009E0000F0000780780007807400038078000304B
:1009F00007000030010001F0000001B0000000001D
:100A000000000000000000000000000000000000E6
:100A100000000000000000000000000000000000D6
:100A200000000000000000000000000000000000C6
:100A300000000000000000000000000000000000B6
:100A400000000000000000000000000000000000A6
:100A5000000000011C0000013E000003FF00000F29
:100A6000FFE0013FFFC001FFFFC019FFFFE87FFF6C
:100A7000FFFE3FFFFFFE1FC207E01F0001E00E0068
:100A80000040000000000000000000000000000125
:100A9000800000028000000740000002800000018A
:100AA0000000010FB30000D04E0000798C00001C44
:100AB0001900018A2000000000000000030002006D
:100AC0000000030200000000004002080080000057
:100AD0000100018E300000041000000C2000000016
:100AE00000000000000000001000000600000000F0
:100AF00000000000200000010000000220000005AE
:100B00000000000000000000000000018000000262
:100B100040000003E000000400000001A18001800B
:100B2000130000F38A000009940000883880000058
:100B3000000000022300000000400180008000004F
:100B4000010000E2800000000000000C2000000412
:100B50003000000220000000400000000000000102
:100B6000000000022000000600000000000000005D
:100B7000000000020000000000000000A0000000D3
:100B8000480000000000000000000000000000001D
:100B9000040000000A0000001F0000022A8000017B
:100BA00005000001AE20000124400002AC800002DC
:100BB00086000003202000043040000C00000000EC
:100BC000004000002020000000000000082000017C
:100BD000000000021A0000001C00000038000004A1
:100BE0000000000298000000180000000000000053
:100BF00000000000000000000000000036000000BF
:100C000000000000000000000000000000000000E4
:100C100000000000200000000000000000000000B4
:100C2000040000000A0000000840000000800001ED
:100C3000D6800002BF80000661A0000CE880000C96
:100C40001000001A22000012400000060C000004F0
:100C50000D00003A03000010020000600A0000507E
:100C60000400002003000000040000200000000039
:100C70000000002000000000000000400000000014
:100C80000000000000000000000000000000000064
:100C90000000000000000000000000000000000054
:100CA0000000000000000000000000000000000044
:100CB0000000000000000000000000000000000034
:100CC0000000000000000000000000000000000024
:100CD00000000002240000010800000118000001CB
:100CE00041400233B680019C040008FA0208050066
:100CF000010C2783A22A000400000200000000006B
:100D0000000000000000000020000000D8000001EA
:100D1000C40000020400000202000002EA00000415
:100D2000D1000009888000190000000DC280002950
:100D300081C0000BA22000314040002300C00013FE
:100D40000040007202000049004001E0A82007F1C5
:100D500000300BB9E0E8075C03FC07EFFFEE077516
:100D60007FD21BBBFFB211577D6432AFFFE8135F28
:100D700075D033FFFB9817D7E5001B8FB230037D8A
:100D800058106FBFEC20000070000001FC00000351
:100D9000FE000007FE000007FF000007FF00000F35
:100DA000FF80001FFFC0003FFF80003FFFC0007FAB
:100DB000FFE0007FFFF0007FFFE0007FFFE0007FAB
:100DC000FFE000FFFFC000FFFFE003FFFFF00FFFA9
:100DD000FFF81FFFFFFC1FFFFFFE1FFFFFFF1FFFAE
:100DE000FFFF3FFFFFFF3FFFFFFE7FFFFFFC7FFF97
:100DF000FFF87FFFFFFC7FFFFFF87FFFFFF87FFF1B
:100E0000FFF8FFFFFFF0000000001800000C0002D8
:100E1000770001670001E58001E3C002A2C00782FC
:100E2000E01F41F99D807C3E005E76006A38003606
:100E30002F805C36007E3F005810003C8800000088
:100E400000005B5D007B7D0097000A0093000A00B4
:100E500097000A0000808B000A008C000A008C00BA
:100E60000A000080080B00020202000009040000D2
:100E70000102020000052400100105240101010403
:100E8000240206052406000107058103100040091D
:100E9000040100020A0000000705020240000007EA
:100EA0000583024000000403090412010002EF025E
:100EB0000140412336800001010203014172647543
:100EC000696E6F204C4C430041424C31313036004A
:100ED00098000A0098000A0099000A008C000A0095
:100EE00090000A0091000A0094000A0097000A008E
:100EF0000080FFFFFFFFFFFFFFFFFFFFFFFFFFFF80
:100F0000FFFFFFFFFFFFFFFFFFFFFFFFFFFFFFFFF1
:100F1000FFFFFFFFFFFFFFFFFFFFFFFFFFFFFFFFE1
:100F2000FFFFFFFFFFFFFFFFFFFFFFFFFFFFFFFFD1
:100F3000FFFFFFFFFFFFFFFFFFFFFFFFFFFFFFFFC1
:100F4000F00000000000FFFFFFFFFFFFFFFFFFFFBB
:100F5000FFFFFFFFFF0000FFFFFFFFFFFFFFFFFF9F
:100F6000F00000000200FFFFFFFFFFFFFFFFFFFF99
:100F7000FFFFFFFFFF0000FFFFFFFF00000000007A
:100F8000F00000000000F000FFFFFFFFFFFFFFFF89
:100F9000FFFFFFFFFF00000FFFFFFF00000000004A
:100FA0005000002000000080FFFFFFFFFFFFFFFF59
:100FB000FFFFFFFFFF00000FFFFFFF00000000002A
:100FC000F00000000000F000FFFFFFFFFFFFFFFF49
:100FD000FFFFFFFFFFFFFFFFFFFFFF000FFFFFFF10
:100FE000F00000000000FFFFFFFFFFFFFFFFFFFF1B
:100FF000FFFFFFFFFF000000000FFF000FFFFFFFDC
:10100000F00000000000FFFFFFFFFFFFFFFFFFFFFA
:10101000FFFFFFFFFF000000000FFF000FFFFFFFBB
:10102000FFFFFF4FFFFFFFFFFFFFFFFFFFFFFFFF80
:10103000FFFFFFFFFF000000000F0000002FFFFF79
:10104000FFFFF000FFFFFFFFFFFFFFFFFFFFFFFFBE
:10105000FFFFFFFFFF00002000040002000FFFFF62
:10106000FFFFF000FFFFFFFFFFFFFFFFFFFFFFFF9E
:10107000FFFFFFFFFF000000000F0000000FFFFF59
:10108000FFFFF000FFFFFFFFFFFFFFFFFFFFFFFF7E
:10109000FFFFFFFFFF000020000FFFFFFFFFFFFF2C
:1010A000FFFFF000FFFFFFFFFFFFFFFFFFFFFFFF5E
:1010B000FFFFF000FF000000000FFFFFFFFFFFFF3A
:1010C000FFFFF000FFFFFFFFFFFFFFFFFFFFFFFF3E
:1010D000FFFFF090FFFFFF4FFFFFFFFFFFFFFFFF4E
:1010E000FFFFF000FFFFFFFFFFFFFFFFFFFFFFFF1E
:1010F000FFFFF000FFFFF000FFFFFFFFFFFFFFF02B
:1011000000F2000009FFFFFFFFFFFFFFFFFFFFFFEF
:10111000FFFFFF4FFFFFF000FFFFFFFFFFFFFFF0AC
:101120000FFFF000FFFFFFFFFFFFFFFFFFFFFFFFCD
:10113000FFFFF000FFFFF000FFFFFFFFFFFFFFF0EA
:101140000FFFF000FFFFFFFFFFFFFFFFFFFFFFFFAD
:10115000FFFFF000F000F000FFFFFFFFFFFFFFF0D8
:101160000FFFF000FFFFFFFFFFFFFFFFFFFFFFFF8D
:10117000FFFFF0004000F000FFFFFFFFFFFFFFFF59
:10118000FFFFF000FFFFFFFFFFFFFFFFFFFFFFFF7D
:10119000FFFFF000F000F000FFFFFFFFFFFFFFFF89
:1011A000FFFFF000FFFFFFFFFFFFFFFFFFFFFFFF5D
:1011B000FFFFF000FFFFFF4FFFFFFFFFFFFFFFFFFD
:1011C000FFFFFF5FFFFFFFFFFFFFFFFFFFFFFFFFCF
:1011D000FFFFF020FF000000000FFFFFFFFFFFFFF9
:1011E000FFFF00000FFFFFFFFFFFFFFFFF000000FA
:1011F00000FFF000FF000000000FFFFFFFFFFFF007
:1012000000000000000000FFFFFFFFFFFF000000E4
:1012100000FFF000FF000200000FFFFFFFFFFFF0E4
:1012200000000000000000FFFFFFFFFFFF000000C4
:1012300000FFF0000F000000000FFFFFFFFFFFF0B6
:10124000002000000020000F000000000F00000040
:1012500000FFF00005000090000FFFFFFFFFFFF010
:101260000000000000000004000020000400002036
:1012700000FFF0000F000000000FFFFFFFFFFFF076
:10128000000000000000000F000000000F00000040
:1012900000FFF000FF000002000FFFFFFFFFFFF064
:1012A00000000000000000FFFF0000FFFF00000042
:1012B00000FFF000FF000000000FFFFFFFFFFFF046
:1012C00000000000000000FFFFF00FFFFF0000081B
:1012D00000FFF000FF000000000FFFFFFFFFFFFF17
:1012E000FFFF00000FFFFFFFFFF00FFFFF000000F8
:1012F00000FFF000FFFFFF5FFFFFFFFFFFFFFFFFAB
:10130000FFFFFF4FFFFFFFFFFFF00FFFFFFFFFFF9C
:10131000FFFFF000FFFFF000FFFFFFFFFFFFFFFFF9
:10132000FFFFF000FFFFFFFFFFF00FFFFFFFFFFFDA
:10133000FFFFF202FFFFF000FFFFFFFFFFFFFFFFD5
:10134000FFFFF000FFFFFFFFFFF00FFFFFFFFFFFBA
:10135000FFFFF000F000F000FFFFFFFFFFFFFFFFC7
:10136000FFFFF020FFFFFFFFFFF00FFFFFFFFFFF7A
:10137000FFFFF0004080F000FFFFFFFFFFFFFFFFD7
:10138000FFFFF000FFFFFFFFFFF00FFFFFFFFFFF7A
:10139000FFFFF000F000F000FFFFFFFFFFFFFFFF87
:1013A000FFFFF000FFFFFFFFFFF00FFF0F0F0F0F1A
:1013B000FFFFF000FFFFF000FFFFFFFFFFFFFFFF59
:1013C000FFFFF000FFFFFFFFFFF000F00000000054
:1013D000FFFFF000FFFFF000FFFFFFFFFFFFFFFF39
:1013E000FFFFF000FFFFFFFFFFF000400002009052
:1013F000FFFFF0000000000000000FF000000FFFF2
:10140000FFFFF000FFFFFFFFFFF000F00000000013
:10141000FFFFF00002000000002000500020007FCD
:10142000FFFFF000FFFFFFFFFFFFFFFF0F0F0F0F9A
:10143000FFFFF0000000000000000FF000000FFFB1
:10144000FFFFF000FFFFFFFFFFFFFFFFFFFFFFFFBA
:10145000FFFFFFFFFFFFFFFFFFFFFFFFFFFFFFFF9C
:10146000FFFFF000FFFFFFFFFFFFFFFFFFFFFFFF9A
:10147000FFFFFFFFFFFFFFFFF00F00F00FFFFFFF79
:10148000FFFFFF5FFFFFFFFFFFFFFFFFFFFFFFFF0C
:10149000FFFFFFFFFFFFFFF0000F00F0FFFFFFFF68
:1014A0000000F000F0000FFFFFFFFFFFFFFFFFFF56
:1014B000FFFFFFFFFFFFFFFFF00000FFFFFFFFFF49
:1014C0000100400040000FFFFFFFFFFFFFFFFFFF95
:1014D000FFFFFFFFFFFFFFFFFFFFFFFFFFFFFFFF1C
:1014E0000000F000F0000FFFFFFFFFFFFFFFFFFF16
:1014F000FFFFFFFFFFFFFFFFFF00FFFFFFFFFFFFFB
:10150000FFFFF000FFFFFFFFFFFFFFFFFFFFFFFFF9
:10151000FFFFFFFFFFFFFFFFFF00FFFFFFFFFFFFDA
:101520000000F000F0000FFFFFFFFFFFFFFFFFFFD5
:10153000FFFFFFFFFFFFFFFFFFFFFFFFFFFFFFFFBB
:101540000000400040000FFFFFFFFFFFFFFFFFFF15
:10155000FFFFFFFFFFFFFFFFFFFFFFFFFFFFFFFF9B
:101560000000F000F0000FFFFFFFFFFFFFFFFFFF95
:10157000FFFFFFFFFFFFFFFFFFFFFFFFFFFFFFFF7B
:10158000FFFFF000FFFFFFFFFFFFFFFFFFFFFFFF79
:10159000FFFFFFFFFFFFFFFFFFFFFFFFFFFFFFFF5B
:1015A0000000000000000FFFFFFFFFFFFFFFFFFF35
:1015B000FFFFFFFFFFFFFFFFFFFFFFFFFFFFFFFF3B
:1015C0000000000000290FFFFFFFFFFFFFFFFFFFEC
:1015D000FFFFFFFFFFFFFFFFFFFFFFFFFFFFFFFF1B
:1015E0000000000000000FFFFFFFFFFFFFFFFFFFF5
:1015F000FFFFFFFFFFFFFFFFFFFFFFFFFFFFFFFFFB
:10160000FFFFFFFFFFFFFFFFFFFFFFFFFFFFFFFFEA
:10161000FFFF141811241FBECFEFDAE0DEBFCDBFED
:1016200011E0A0E0B1E0E6E0FEE502C005900D9219
:10163000AE35B107D9F726E0AEE5B1E001C01D92A5
:10164000A23EB207E1F71BE0CAE0DBE004C021974D
:10165000FE010E941C2CC930D107C9F70E9439181D
:101660000C94012F0C94000080916C010895E8E324
:10167000F0E0E61BF10926E0EE0FFF1F2A95E1F7E7
:10168000E80FF11DF7FD3196F595E795EE50F14F16
:10169000E491F0E080FF0AC080E09F0102C0359530
:1016A00027958A95E2F7C9018F70089584E0F5CFF8
:1016B000E2E8F2E030EB20E146E05C983EBD4A957E
:1016C000F1F72EBD20E8239507C0449140815C9A34
:1016D0004EBD8111412D419344912A95B1F7339527
:1016E000383B49F744910DB408950F931F93CF935E
:1016F000DF93EC01122F1D861C8620E4129FC0018F
:101700001124842B24E0880F991F2A95E1F7862B5A
:1017100099838883642F70E090E080E00E94D02954
:1017200020E030E040E05FE30E9440286A837B8352
:101730008C839D83612F70E090E080E00E94D0292F
:1017400020E030E040E05FE30E9440286E837F832A
:10175000888799871A860B87CE01DF91CF911F91D9
:101760000F910895BC0180E090E04EE0509181021D
:10177000951760F5292F30E0811110C0429FF001CC
:10178000439FF00D1124EB50FE4F0190F081E02DAE
:10179000E617F707C9F4515050938102429FD001D8
:1017A000439FB00D1124AB50BE4F2F5F3F4F429F60
:1017B000F001439FF00D1124EB50FE4F842F019058
:1017C0000D928A95E1F781E09F5FD0CF0895FC01EB
:1017D0008091F401882311F13FB7F89482E080935F
:1017E000E9002091F200822F90E01816190614F4F7
:1017F00081E090E0882339F0289844E64093F30193
:101800004091F1004083222339F02091F200211110
:1018100003C02BE62093E8003FBF08958FEF9FEFB2
:1018200008952FB7F89483E08093E9009091E80041
:10183000892F807295FF04C09091F20080E4891B8B
:101840002FBF08958091EB0181110DC082E080933C
:10185000E70184E08093E8011092EA011092E90127
:1018600081E08093EB0187EE91E00895CF93DF93C1
:101870001F92CDB7DEB76983DC01ED91FC91028048
:10188000F381E02D41E050E0BE016F5F7F4F09958D
:101890000F90DF91CF91089583E08093E9008091CC
:1018A000F200882319F08AE38093E80008950E94EB
:1018B000110C90E00895CF93DF931F92CDB7DEB760
:1018C000FC018485958597FD08C02FEF3FEF358794
:1018D00024870F90DF91CF910895CE0101960E9449
:1018E000E70B019719F4898190E0F3CF8FEF9FEF19
:1018F000F0CF0F931F93CF93DF931F92CDB7DEB737
:101900008C01FC018485958597FF0BC0CE01019663
:101910000E94E70B019771F4898190E0F8019587A7
:101920008487F801848595850F90DF91CF911F9171
:101930000F9108958FEF9FEFF1CFFC01848595857E
:1019400097FD0BC09FB7F89482E08093E9008091E7
:10195000F2009FBF90E0019608959FB7F89482E04F
:101960008093E9008091F2009FBF90E0089540913C
:10197000E1015091E2012091DF013091E001421735
:101980005307B4F49091E8009570E1F39091E8006A
:1019900092FD19C08093F1008091E1019091E201E4
:1019A00001968F739927892B19F48EEF8093E800A5
:1019B0008091E1019091E20101969093E201809380
:1019C000E10181E0089580E00895DF92EF92FF92B7
:1019D0000F931F93CF93DF93D82E8A01EB017B01E6
:1019E000E40EF51ECE15DF0559F0D7FE12C0FE013C
:1019F00084910E94B70C21968111F4CF0FEF1FEF55
:101A0000C801DF91CF911F910F91FF90EF90DF9070
:101A100008958881EECF0F931F93CF93DF931F928A
:101A2000CDB7DEB782E0898342E450E064E67EE031
:101A300080E80E94E50C0E94220CDC0112960D91B8
:101A40001C910115110589F0D801ED91FC910280DE
:101A5000F381E02DBE016F5F7F4FC801099597FDAF
:101A600004C0F80100851185ECCF89810F90DF91CA
:101A7000CF911F910F910895615030F02091F100A6
:101A8000FC0120830196F8CF289884E68093F30127
:101A90000895FC010E94E00D319728F068517C4FB9
:101AA0008F4F9F4FF9CFAB01FC010E94E00D6417EF
:101AB00075078E079F07C8F308958F929F92AF9284
:101AC000BF92CF92DF92EF92FF920F931F93CF932B
:101AD000DF936C017B018A0180910F01882309F457
:101AE0005AC08091F401882309F455C08091E60121
:101AF00080FF05C08091E00082608093E000E801F3
:101B0000B12C8AEFA82E93E0892E2AE3922E2097FB
:101B100011F4BB20C9F10E94110C811108C0AA94D4
:101B2000AA20C9F181E090E00E94490DF0CF8C1706
:101B30001D0611F00CF08C2F9FB7F8948092E900ED
:101B40002091E80025FD02C09FBFE1CF282F30E0A3
:101B5000C21BD30BF701815020F041914093F1005B
:101B6000FACFE20EF31EBB2021F09092E800B12CD8
:101B7000EBCF8091E80085FDE7CF9092E800BB2491
:101B8000B394209709F3F3CF5D9884E68093E50141
:101B9000101611063CF081E090E0F60193838283F9
:101BA00010E000E0C801DF91CF911F910F91FF90ED
:101BB000EF90DF90CF90BF90AF909F908F9008955F
:101BC000ABEDB1E02FB7F8947D918D919C9166B506
:101BD0002FBFA89B05C06F3F18F47F5F8F4F9F4FAB
:101BE00022E0660F771F881F991F2A95D1F7089565
:101BF000AB01FC010E94E00D41505109E109F109DE
:101C000028F068517C4F8F4F9F4FF6CFAB01FC01FE
:101C10000E94E00D641775078E079F07C8F30895AB
:101C20002FB7F8946091D7017091D8018091D901B4
:101C30009091DA012FBF089520916501E091630131
:101C4000F0916401CF010296909364018093630147
:101C5000222319F0859194910895808191810895AE
:101C6000CF92DF92EF92FF92CF93DF930E941C0EF0
:101C7000811520E8920791F4809171008D7F809307
:101C80007100109291004698479810926201DF917E
:101C9000CF91FF90EF90DF90CF90089521E02093B7
:101CA0006201813020E8920751F4809160019091A7
:101CB000610190936401809363010E941C0E97FD63
:101CC00005C020915F01222309F454C020915E01D8
:101CD000211150C021E020936601EC01DF772097AD
:101CE00009F04BC081E08093670146983FE9C32E1D
:101CF0003FE0D32EE12CF12CCAEFD0E0E091E006DA
:101D0000F091E1060995811103C081E0809367019C
:101D100080916601882329F080916701882309F466
:101D20003FC047980E941C0E0097F1F19C01DE0114
:101D30000E943028DC01CB0129E0B595A795979545
:101D400087952A95D1F7109290002AE02093910070
:101D5000D0929900C0929800809368019093690195
:101D6000A0936A01B0936B018091710082608093AF
:101D700071008DCF10926601B0CF9E0150E040E01F
:101D800060E472E48FE090E00E94DC2769017A0150
:101D900081E0C81AD108E108F10810926701AECFBE
:101DA0004699BFCF479ABECF8FEF9FEFDC01CBCFD5
:101DB0009C01E1E7F0E090819D7F908381E080933A
:101DC0006501309364012093630130936101209396
:101DD00060010C94300E90E00C94490D8FB1809509
:101DE000807F669B88601C9B846008955C988EBD94
:101DF00000000DB407FEFDCF5C9A089590E1282FF6
:101E000081E061FD84E060FD880F62FD8295687F5E
:101E1000969FD0011124A20FAE57BD4F0C90082AF7
:101E200040FF08260C920895CF92DF92EF92FF9226
:101E30000F931F93CF93DF93EC016C01C60ED11C5F
:101E4000042F10E0065C1F4FCC15DD05D4F48AE3A7
:101E5000E82EF12CC8010134110514F080E490E063
:101E6000E816F90664F4C038D1052CF440E0B70157
:101E7000CE010E94FE0E8FEFE81AF80AEBCF2196F2
:101E8000E3CFDF91CF911F910F91FF90EF90DF9003
:101E9000CF900895CF93C82F0E94EE0E982F9C23C9
:101EA00081E09C1380E0CF91089580E00C94580B62
:101EB0002F923F924F925F926F927F928F929F925A
:101EC000AF92BF92CF92DF92EF92FF920F931F9348
:101ED000CF93DF9300D000D01F92CDB7DEB7C22ED4
:101EE000D12C9601280F391F121613060CF067C06B
:101EF000803891050CF063C010E09801260F371F61
:101F0000121613060CF05BC0603471050CF057C05C
:101F1000EB823A012B011C01C60107969C0193E05C
:101F2000359527959A95E1F73A832983B12CA12C11
:101F3000F12CE12CE016F1060CF041C01D821C8250
:101F40004701840C951CEC81FD8183E0F595E795B4
:101F50008A95E1F7EA0DFB1DE60DF71DE4918C81F2
:101F60009D818770992720E830E002C0359527953C
:101F70008A95E2F7C901F0E0E223F923EF2B79F02B
:101F80008C819D81820D931D8038910540F430E451
:101F90008316910420F44B81B4010E94FE0E8C81C3
:101FA0009D8101969D838C838C159D0564F29FEF26
:101FB000E91AF90A29813A81A20EB31EBBCF0F900C
:101FC0000F900F900F900F90DF91CF911F910F9175
:101FD000FF90EF90DF90CF90BF90AF909F908F9049
:101FE0007F906F905F904F903F902F900895E62FD5
:101FF000EE0FEE7083FB662760F9E62B483008F0A1
:1020000047E04295407FE40FF0E0E057FE4F9491A7
:102010008770E82FF0E0E857FE4FE491E92381E074
:1020200009F480E008954F925F926F927F928F92B1
:102030009F92AF92BF92CF92DF92EF92FF920F9357
:102040001F93CF93DF93CDB7DEB768970FB6F894A1
:10205000DEBF0FBECDBF7C0103EB11E0D8012D9197
:102060003D914D915C91FC016081718182819381F0
:102070000E943F28698B7A8B8B8B9C8BD80114969E
:102080002D913D914D915C911797F7016481758178
:10209000868197810E943F286D8B7E8B8F8B988FD6
:1020A000D80150968D919D910D90BC91A02D89875E
:1020B0009A87AB87BC87F80144845584668477840B
:1020C00080849184A284B38484899589A689B78900
:1020D0008D879E87AF87B88BA301920169857A852A
:1020E0008B859C850E94F52A6B017C012D853E85A0
:1020F0004F855889C501B4010E94F52A9B01AC01A6
:10210000C701B6010E943F289B01AC0160E070E06E
:1021100080E89FE30E9428296B017C0129893A8984
:102120004B895C89C301B2010E94F52A2B013C0155
:102130002D893E894F89588DC501B4010E94F52A29
:102140009B01AC01C301B2010E943F28A701960187
:102150000E94F52A162FAB01BC0149835A836B8379
:102160007C836D857E858F859889905829893A89E9
:102170004B895C890E94F52A4B015C012D893E89BF
:102180004F89588D69857A858B859C850E94F52AB3
:102190009B01AC01C501B4010E944028A701960132
:1021A0000E94F52AE62F462F572FBC014D835E83F0
:1021B0006F837887212F3A814B815C816E2F7E81DE
:1021C0008F81988568960FB6F894DEBF0FBECDBF9D
:1021D000DF91CF911F910F91FF90EF90DF90CF9003
:1021E000BF90AF909F908F907F906F905F904F9037
:1021F000089587FD2EC067FD2CC0E62F062E000C2B
:10220000FF0B98E3211101C090E49E171F0609F10E
:1022100004F1262F25952595259550E82503900155
:102220001124F901E80FF11D87FDFA95CF01E09126
:10223000D101F091D201E80FF91F2081677081E090
:1022400090E001C0880F6A95EAF7442319F0822BC9
:102250008083089580958223FBCF1F93CF93DF93D4
:10226000182FC0E0C038C1F0D0E0112341F0173082
:1022700058F020E040E06D2F8C2F0E94F910DF5FB6
:10228000D03499F7CF5FEECF412F6D2F8C2F0E9466
:10229000F70F8823A1F3EDCFDF91CF911F91089520
:1022A0009F92AF92BF92CF92DF92EF92FF920F93E5
:1022B0001F93CF93DF93C82EB62EC0E0EC2FF0E033
:1022C000E75DFE4F8081841721F0882311F0CF5FF6
:1022D000F5CF98E8E92E91E0F92EC0FF04C08CE814
:1022E000E82E81E0F82EC695D0E0C850DF4FD12C03
:1022F000FE01A49010E000E09B2C9D0CF701E00F84
:10230000F11FE491EA2139F020E041E0692D8C2DA4
:10231000800F0E94F9100F5F1F4F0430110571F7F5
:10232000D3946896F6E0DF12E3CFDF91CF911F914F
:102330000F91FF90EF90DF90CF90BF90AF909F9064
:102340000895EF92FF920F931F93CF93DF93062F81
:102350007A01C82F10E0D4E0D20FC7FD0DC0F701FD
:10236000E10FF11D4491442339F0602F8C2F0E941E
:1023700050111F5FCD0FF1CFDF91CF911F910F91C2
:10238000FF90EF9008952F923F924F925F926F923D
:102390007F928F929F92AF92BF92CF92DF92EF92F5
:1023A000FF920F931F93CF93DF93CDB7DEB72F9795
:1023B0000FB6F894DEBF0FBECDBFD82E6983598704
:1023C00048873B872A87280120E030E048EC52E428
:1023D000C501B4010E94F52A0E949A293B015B01C4
:1023E00084E690E0B3010E94ED2B162F611101C02D
:1023F00011E02EE38FE190E02D153CF08D2DD7FC00
:1024000080E08595082E000C990B8F589E4FFC019B
:10241000808124E6829FC001112434E1369DA00111
:10242000379D500D11248417950708F4B4C02E9DD4
:10243000C0012F9D900D1124B5010E94ED2B962E09
:10244000120183E0359427948A95E1F7E29CC0015C
:10245000E39C900DF29C900D1124C89EA001C99E92
:10246000500D11245F834E83249DC001259D900D46
:1024700011249D838C83E980EE2D0E2E000CFF0B22
:10248000FD87EC8794E6492E512C2D2D0D2C000C48
:10249000330B3F872E872E2D3981231B291508F0FA
:1024A0007AC030E08C859D85820F931FC89708F015
:1024B00070C02A9DC0012B9D900D3A9D900D112456
:1024C000B2010E94ED2B629DC001639D900D11240D
:1024D0004E815F81480F591F5B834A838D2C819405
:1024E0008C819D81B5010E94ED2B662EF12CF61496
:1024F00008F04FC02F2D30E08E859F85820F931FEF
:102500008038910508F042C02A9DC0012B9D900D96
:102510003A9D900D1124B2010E94ED2B862F8695D5
:1025200086958695EA81FB81E80FF11DCF01EA854A
:10253000FB85E80FF91F24916770772768577E4F56
:10254000FB013491E32FE22309F128853985820FBD
:10255000931FFC018491FB016491E62FE82377240B
:102560007394E11101C0712C0F2D0D0DC12C6E2D36
:102570006C0D21E0472D802F0E94F910C3941C118F
:10258000F6CF0F5F882D800F811780F3F10E811A2F
:10259000AECFE10E80CF2F960FB6F894DEBF0FBE00
:1025A000CDBFDF91CF911F910F91FF90EF90DF9002
:1025B000CF90BF90AF909F908F907F906F905F90E3
:1025C0004F903F902F900895FF920F931F93CF93BA
:1025D000DF9300D000D0CDB7DEB7F82E1F926F93F7
:1025E0008AE591E09F938F938E010F5F1F4F1F939A
:1025F0000F930E94292C0F900F900F900F900F9027
:102600000F90F80141918F01442349F06AE38F2D27
:102610000E945011F5E0FF0E80E88F1590F70F90A3
:102620000F900F900F90DF91CF911F910F91FF901E
:102630000895CF93DF9346E06FE08CE090E00E9436
:10264000140F46E065E082E390E00E94140FC3EBB4
:10265000D1E06C8D8CE00E94E4126D8D82E3DF91FD
:10266000CF910C94E4128F929F92AF92BF92CF922F
:10267000DF92EF92FF92CF93DF93EC017B01FB019E
:102680002081318142815381688179818A819B8156
:102690000E943F284B015C01F7012481358146816E
:1026A00057816C817D818E819F810E943F286B01C3
:1026B0007C01A5019401C501B4010E94F52A4B01DA
:1026C0005C01A7019601C701B6010E94F52A9B0192
:1026D000AC01C501B4010E9440280E94702B20E08B
:1026E00030E040EA51E40E94F52A0E94A129862F99
:1026F000DF91CF91FF90EF90DF90CF90BF90AF90A0
:102700009F908F9008952F923F924F925F926F9279
:102710007F928F929F92AF92BF92CF92DF92EF9271
:10272000FF920F931F93CF93DF93CDB7DEB72C9714
:102730000FB6F894DEBF0FBECDBF1C014A015B018E
:10274000280139011E2DFC012081318142815381F4
:10275000CB01B4010E9440280E949A2969877A8798
:102760008B879C87F985F03408F042C0F101248101
:10277000358146815781C301B2010E9440280E94E1
:102780009A296B01F8E3F61798F189850E94370BB7
:102790008F3071F580ED9EE00E94D80E96E0CC0C53
:1027A000DD1C9A95E1F709851A8511270C291D2949
:1027B00024E0000F111F2A95E1F70F60C8012C9645
:1027C0000FB6F894DEBF0FBECDBFDF91CF911F9142
:1027D0000F91FF90EF90DF90CF90BF90AF909F90C0
:1027E0008F907F906F905F904F903F902F900895C3
:1027F00011114EC0D12C8EE0C82E80918102D816C6
:1028000008F046C02D2D30E0DC9CC0011124895019
:102810009E4F28163906D1F1C29EC001C39E900D6D
:1028200011249C012B503E4F7901F9010081118147
:10283000802F8F70823051F582858550823030F143
:10284000A501940162817381848195810E943F2852
:1028500069837A838B839C83A3019201F70166814C
:102860007781808591850E943F286D837E838F8349
:102870009887BE016F5F7F4FC1010E943313843080
:1028800028F4F7019485891708F498CFD394B5CF2D
:1028900010E000E093CF4F925F926F927F928F9201
:1028A0009F92AF92BF92CF92DF92EF92FF920F93DF
:1028B0001F93CF93DF93EC012A013B01480159019B
:1028C00000E010E098010E9483136C0195018401DF
:1028D00040E050E0BA01CE010E9483138C01CD2864
:1028E00009F5A3019201688179818A819B810E9407
:1028F0004028688379838A839B83012B11F181E0CF
:1029000090E0DF91CF911F910F91FF90EF90DF90BA
:10291000CF90BF90AF909F908F907F906F905F907F
:102920004F900895892B59F7A50194016C817D8101
:102930008E819F810E9440286C837D838E839F833C
:10294000DECFA50194016C817D818E819F810E94E3
:1029500040286C837D838E839F8380E0D1CF1F923C
:102960000F920FB60F9211248F939F938091E100E5
:102970009091E100937F9093E10083FF0FC010924C
:10298000E90091E09093EB001092EC0092E39093B9
:10299000ED001092F40198E09093F00082FF22C0C5
:1029A00093E09093E9009091F200992319F09AE353
:1029B0009093E8009091E501992341F09091E50111
:1029C00091509093E501911101C05D9A9091F301AE
:1029D000992341F09091F30191509093F30191115B
:1029E00001C0289A84FF18C08091E2008E7E816029
:1029F0008093E2008091E1008F7E8093E1008091DE
:102A0000E6018E7E80618093E6019F918F910F9009
:102A10000FBE0F901F90189580FFF7CF8091E200B6
:102A20008E7E80618093E2008091E1008E7E8093B3
:102A3000E1008091E6018E7E8160E5CF1F920F92CA
:102A40000FB60F921124CF92DF92EF92FF920F9365
:102A50001F932F933F934F935F936F937F938F9326
:102A60009F93AF93BF93EF93FF93CF93DF93CDB734
:102A7000DEB76C97DEBFCDBF1092E9008091E80011
:102A800083FF25C068E0CE0145960E943C0D82EF91
:102A90008093E8008D8987FF39C09091E80090FF0E
:102AA000FCCF982F907609F034C19E894F89588DBC
:102AB0002F89F88C911131C0803861F58091E40143
:102AC0008093F1001092F1008EEF8093E8006C96F5
:102AD0000FB6F894DEBF0FBECDBFDF91CF91FF914F
:102AE000EF91BF91AF919F918F917F916F915F9186
:102AF0004F913F912F911F910F91FF90EF90DF9099
:102B0000CF900F900FBE0F901F9018959EEF90934F
:102B1000E800C7CF1092F100D5CF913059F4811160
:102B2000D3CF4130510581F68091E4018D7F8093B0
:102B3000E401CACF933049F48111C6CF4130510529
:102B400019F68091E4018260F2CF953041F48091D2
:102B5000E80080FFFCCF20682093E300B5CF9630DB
:102B600009F0A9C00B8D1C8D22E01092E900109293
:102B7000E2011092E101F2122EC01092E0011092D7
:102B8000DF010E940B0D1F8299E09983FA8291E088
:102B90009E8390EA98879AEF99872091E10130917E
:102BA000E201275F3F4F3C832B838D831092E90026
:102BB0001092E2011092E1011093E0010093DF0115
:102BC00049E050E0BE016F5F7F4F80E00E94E50C5E
:102BD0000E940B0D79CF1093E0010093DF010E945A
:102BE000220CDC0112960D911C910115110509F4BE
:102BF00051C1D801ED91FC910480F581E02DBE0119
:102C00006B5E7F4FC8010995009709F03EC1F8013E
:102C100000851185EACFF3E0FF120EC08F8988236B
:102C200009F440C0823061F440E867E088EC9EE03F
:102C30000E94E117811148CF81E28093EB0047CFDA
:102C4000813029F440E86BE08CEB9EE0F1CF8330DB
:102C500099F70E94220CDC011296ED90FC908E01F7
:102C60000F5F1F4F6801E114F10479F0D701ED9176
:102C7000FC910680F781E02DB801C7010995080F86
:102C8000111DF701E084F184EECFD8011C92F6010A
:102C900001900020E9F73197BF016C197D0940E0F0
:102CA000C601C6CF66EA7EE0FB01449150E080E8B1
:102CB0000E94E50C09CF973009F4BECF983021F47B
:102CC00081E08093F10000CF993009F0FDCE837050
:102CD00009F0B2CFE1E1F1E081E031E096E321914A
:102CE000222371F08093E9003093EB00DF0111970C
:102CF0002C912093EC009093ED008F5F873079F753
:102D00008EE78093EA001092EA008F898093F401A5
:102D1000DBCE8B8D9C8D1092E9001092E201109217
:102D2000E1019093E0018093DF01898D811192C0D0
:102D30008E899D89913A49F4813209F07DCF47E02F
:102D400050E068E071E080E0B3CF913209F074CFD9
:102D5000833269F48F89988DB0E0A0E080930401FC
:102D600090930501A0930601B0930701ADCE803288
:102D700069F48091E80082FFFCCF67E088E091E091
:102D80000E943C0D8BEF8093E8009ECE823209F0CA
:102D90009BCE8F8980930F01EEEFFFE78591949191
:102DA0008B3F9C4D51F1E0E0F8E08091080190915B
:102DB0000901A0910A01B0910B01803B9440A1054B
:102DC000B105F1F480910F0180FD1AC0EE3F8AE059
:102DD000F80789F587E797E7918380838091600002
:102DE0008093E30188E19BE00FB6F894A895809367
:102DF00060000FBE9093600067CEEEEFFAE0D5CF93
:102E0000808191818737974709F05ECEA8958091A0
:102E100060008861809360008091E301809360008E
:102E2000EE3F2AE0F20789F08091FE0A9091FF0AB6
:102E30009183808349CE808191818737980751F2B1
:102E40009093FF0A8093FE0AC5CF1092FF0A10925A
:102E5000FE0A3ACE0E94220CDC0112960D911C91C2
:102E60000115110509F4E8CED801ED91FC9101900E
:102E7000F081E02DBE016B5E7F4FC8010995811185
:102E800023CEF80100851185EBCF181619060CF436
:102E90001BCED2CEF1E0FF12BECE6AEA7EE004CFB6
:102EA0000F920FB68F939F93EF93FF938091D6016C
:102EB0008D5F8D3708F08D578093D601E7EDF1E0F7
:102EC00080818E4F808391819F4F918382818F4F2C
:102ED000828383818F4F8383EBEDF1E080818F5F6D
:102EE000808381818F4F818382818F4F8283838111
:102EF0008F4F83838FB18F6066991C9B88278F3695
:102F000081F48091D501981B963068F0E0E0F8E0FC
:102F100087E78083818388E180936000F09360007D
:102F2000FFCF9093D501FF91EF919F918F910FBEAD
:102F30000F9018951F920F920FB60F9211242F9396
:102F40003F934F935F936F937F938F939F93AF9331
:102F5000BF93EF93FF938091680190916901A091D5
:102F60006A01B0916B010097A105B10539F120917B
:102F70006701211105C0369A209166012111379A07
:102F80000197A109B109B7FD08C08093680190932A
:102F90006901A0936A01B0936B01FF91EF91BF911A
:102FA000AF919F918F917F916F915F914F913F91E1
:102FB0002F910F900FBE0F901F9018950E94300E0A
:102FC000ECCFEF92FF920F931F93CF93DF93F82EE6
:102FD000192FE62E042F81E0860F880F0E94B70C70
:102FE00083E00E94B70CCF2DD12FEC0EFD2EF11CEB
:102FF000CE15DF05B9F007FF13C0FE0184910E94D2
:10300000B70C182F80E00E94B70C81232196811104
:10301000EFCFDF91CF911F910F91FF90EF90089527
:103020008881EDCF81E0F5CFE2E8F6E013821282ED
:1030300088EE93E0A0E0B0E084839583A683B78315
:103040008BE191E0918380838FEF9FEF9587848759
:1030500084E39BE09093E1068093E00680E090E8B3
:103060009093DF068093DE0646983E9A47983F9AF3
:103070000895CDB7DEB7CC55D109DEBFCDBF78946A
:1030800083E084BD83E085BD81E080936E00E1E84C
:10309000F0E083E08083E0E881E08083E1E983E0A1
:1030A0008083E0E981E08083E1EC87E08083E3ECEA
:1030B00081E08083E0EC82E08083E2EC81E0808349
:1030C000EAE787E08083806880831092F4011092A1
:1030D000E4011092E6018091D70081608093D700CF
:1030E00080EA8093D80089B5806189BD89B5826006
:1030F00089BD09B400FEFDCF81E090E00E94490D3A
:103100008091D8008F7C80618093D8008091E0000E
:10311000807F8093E0008091E1008E7E8093E100CB
:103120008DE08093E200559A209A81EC80937C0098
:1031300081EF85B987EE84B982E38BB982EF8AB9D2
:10314000769A6E9880EF81BB10BA80E58CBD81E0E5
:103150008DBD85E00E94EB0E5F9A85E00E94EB0E2C
:103160005C98E0E1F2E085918EBD00000DB407FEB1
:10317000FDCFEA31C1F75C9A81E8809364008091C9
:1031800065008160809365000E94550F1EEF0E94CC
:10319000EE0E8AE090E00E94490D1150C1F780E8E0
:1031A0000E944A0F882381F085EA0E94F60E2E982D
:1031B0002F982D988091640080628093640081E054
:1031C00083BF889513BEFCCF84E00E944A0F8823FA
:1031D000B9F12D9884E80E944A0F8823A1F02D9A16
:1031E00088EC0E94EB0E2F986FEF82E090E00E9437
:1031F000CA2784EF91E00E94490D2F9A84E80E942B
:103200004A0F8111FBCF84E10E944A0F8823A1F06D
:103210002D9A88EC0E94EB0E2E9860E082E090E000
:103220000E94CA2784EF91E00E94490D2E9A84E102
:103230000E944A0F8111FBCF88EC0E94EB0EC4CF95
:103240002D9A82E090E00E94C227882309F45AC098
:103250003E9A3F9A81E080936C0181E090E00E9469
:10326000C227282F2470D22E81FF0CC021112E9846
:1032700001EF1FEF80E40E944A0F882309F447C042
:103280002E9A2F9A82E30E94EB0E0E94EE0E81117D
:10329000F9CF22E832E0982FF90191119FEF8FEFDB
:1032A00091939193919391938150D0F73093D20160
:1032B0002093D10140E450E06FEF70E081E791E0AE
:1032C0000E94222C8091D401882309F490C081307F
:1032D00009F4B7C010E0812F0E942D110E94550FF4
:1032E00068E270E080E090E00E94F80D1F5F183007
:1032F00091F71092D30180E090E0892B19F30E949E
:103300000000E0CF10926C013E983F98A6CFDD20E0
:1033100029F00430110511F42E9A2F9881E00E94B3
:10332000580B302F3770C32E980153E035952795F1
:103330005A95E1F7C9019695982F88279795879513
:103340008E579D4F70E060E02E3F4FEF340781F1C4
:103350007C0154E9E50EF11CDC0150E040E0FB018A
:10336000E65EFD4F5F01F501E40FF51FE491F0E02B
:103370003F010C2C02C0660C771C0A94E2F72F3F29
:10338000320739F054969C905497962854969C9204
:103390005497CC2021F0F7019080972890824F5FBE
:1033A0005F4FFFEFEF1AFF0A119648355105D9F626
:1033B0002F5F3F4F80589F4F685A7F4F603B71058A
:1033C00009F0C2CF0E94550F8FE00E94EB0E0F5FF5
:1033D0001F4F0931110509F04DCFDD2011F02F9A53
:1033E0002D9880E991E00E94490D2D9A4BCFEE2453
:1033F000E3940FE228E445ED52E065E070E08CE1F3
:1034000090E00E94580F68EE73E080E090E00E9428
:10341000F80D21E04AEC52E063E387E20E94A1113B
:103420000E94550F11E08091D301811153CF88E0A4
:103430000E944A0F8823B9F31093D4011093D3014B
:10344000F2CF08E310E0093308F033C2602F812F78
:103450000E94370B813009F02CC2EBECF1E086E0E2
:10346000DF011D928A95E9F7612F70E090E080E01E
:103470000E94D02920E030E040E05FE30E94402835
:103480006093B3017093B4018093B5019093B6013A
:10349000602F70E090E080E00E94D02920E030E0D2
:1034A00040E05FE30E9440286093B7017093B80149
:1034B0008093B9019093BA0120E030E040E85FE3E7
:1034C0002093BB013093BC014093BD015093BE01DA
:1034D0001092BF011092C0011092C1011092C2015E
:1034E0001092C3011092C4011092C5011092C6013E
:1034F00083EC95EFA8E2BFEB8093C7019093C801DE
:10350000A093C901B093CA0184E68093CF0119A6A4
:1035100021961FAE21971DAA37E03EA70E94100EEC
:10352000C0906D01D0906E01E0906F01F09070013D
:103530006C197D098E099F090E94D02925E535E582
:1035400045E852E40E941E2987FDE8CF0E94100E34
:103550006C197D098E099F090E94D02925E535E562
:1035600045E852E40E94282960930001709301010C
:1035700080930201909303010E94100E60936D01ED
:1035800070936E0180936F0190937001E091D1016F
:10359000F091D20180E893E0DF019C011D9221505F
:1035A0003040E1F78091CF01882309F441C380E8DE
:1035B0000E944A0F882309F482C1C090CB01D090A9
:1035C000CC01E090CD01F090CE01A70196016DEC09
:1035D0007CEC8CE49EE30E943F282DEC3CEC4CEC10
:1035E0005EE30E94F52AA70196010E9440286B0124
:1035F0007C01C092CB01D092CC01E092CD01F0923F
:10360000CE0120E030E0A9010E94E82A18160CF053
:1036100079C120E030E040EA50E4C701B6010E94E1
:10362000F52A6AA77BA78CA79DA780E40E944A0F72
:10363000882309F46FC12FE832EC45EF5DE3609118
:1036400000017091010180910201909103010E949B
:10365000F52A6B017C018090BB019090BC01A09089
:10366000BD01B090BE010E9423292B013C01409175
:10367000BF015091C0016091C1017091C2014D8F95
:103680005E8F6F8F78A3C701B6010E94622B69A37A
:103690007AA38BA39CA3A3019201C501B4010E944C
:1036A000F52A6DA37EA38FA398A729A13AA14BA1C8
:1036B0005CA16D8D7E8D8F8D98A10E94F52A9B0156
:1036C000AC016DA17EA18FA198A50E9440286093B6
:1036D000BB017093BC018093BD019093BE01C701F3
:1036E000B60190580E94622B6DA37EA38FA398A76A
:1036F0009B01AC01C501B4010E94F52A6B017C015C
:103700002D8D3E8D4F8D58A1C301B2010E94F52A27
:103710009B01AC01C701B6010E9440286093BF0124
:103720007093C0018093C1019093C2018090C30146
:103730009090C401A090C501B090C601C090C7018F
:10374000D090C801E090C901F090CA01A501940190
:10375000C301B2010E94F52A6D8F7E8F8F8F98A3CF
:10376000A701960169A17AA18BA19CA10E94F52ACB
:103770009B01AC016D8D7E8D8F8D98A10E9440289C
:103780006093C3017093C4018093C5019093C601F7
:10379000A50194016DA17EA18FA198A50E94F52A93
:1037A0004B015C01A7019601C301B2010E94F52AF9
:1037B0009B01AC01C501B4010E9440286093C70180
:1037C0007093C8018093C9019093CA010E94100EA2
:1037D0000E94D0292AE037ED43EA5BE30E94F52AF4
:1037E0000E94622B20E030E0A9010E94E82A18160E
:1037F0000CF045C10E94100E0E94D0292AE037ED3E
:1038000043EA5BE30E94F52A0E94622B20E030E04D
:1038100040EC50E40E94F52A9B01AC016AA57BA50F
:103820008CA59DA50E94F52A69A37AA38BA39CA3CE
:103830002DEC3CEC4CEB50E40E94E82A18166CF49A
:1038400021965FAD2197552309F427C186E59EE0B7
:103850000E94D80E21961FAE219779A5733108F4E6
:1038600025C1715079A7C090CB01D090CC01E090D8
:10387000CD01F090CE0120E030E0A901C701B601F2
:103880000E94E82A18160CF002C226EA3BE944E43A
:103890005BE3C701B6010E94E82A18160CF401C2C6
:1038A0001092CB011092CC011092CD011092CE015A
:1038B0002BC21F5F103409F0C6CD0150C3CD80E18B
:1038C0000E944A0F882379F0C090CB01D090CC01A0
:1038D000E090CD01F090CE01A70196016DEC7CEC5B
:1038E0008CE49EEB78CE20E030E040E05FE3609136
:1038F000CB017091CC018091CD019091CE010E94BD
:10390000F52A75CEC701B601905820E030E040EAB4
:1039100050E485CE80E20E944A0F882309F456CFF6
:103920002FE832EC45EF5DE36091000170910101F9
:1039300080910201909103010E94F52A4B015C01E4
:10394000C090BB01D090BC01E090BD01F090BE01E1
:103950000E9423296D8F7E8F8F8F98A34090BF0187
:103960005090C0016090C1017090C201C501B401C6
:103970000E94622B69A37AA38BA39CA32D8D3E8DFD
:103980004F8D58A1C701B6010E94F52A4B015C0179
:1039900029A13AA14BA15CA1C301B2010E94F52A61
:1039A0009B01AC01C501B4010E943F286093BB019B
:1039B0007093BC018093BD019093BE0129A13AA1EF
:1039C0004BA15CA1C701B6010E94F52A6B017C01E5
:1039D000A30192016D8D7E8D8F8D98A10E94F52A95
:1039E0009B01AC01C701B6010E9440286093BF0152
:1039F0007093C0018093C1019093C2018090C30174
:103A00009090C401A090C501B090C601C090C701BC
:103A1000D090C801E090C901F090CA01A5019401BD
:103A20006D8D7E8D8F8D98A10E94F52A2B013C0112
:103A3000A701960169A17AA18BA19CA10E94F52AF8
:103A40009B01AC01C301B2010E943F286093C301F6
:103A50007093C4018093C5019093C601A5019401A0
:103A600069A17AA18BA19CA10E94F52A4B015C015E
:103A7000A70196016D8D7E8D8F8D98A197CE0E94A6
:103A8000100E0E94D0292AE037ED43EA5BE30E9442
:103A9000F52A0E94622B9058B9CE88E49EE00E94DD
:103AA000D80E61E021966FAF2197D7CE89A58231DC
:103AB00019F08E5F89A7D7CE9DA988E091110C944B
:103AC00018270E944A0F8DAB882309F4CCCE8CE7CF
:103AD00094E00E94D80E00E01EE044E0B42E8091F5
:103AE0008102081708F0D0C0802E912C189DF0019B
:103AF000199DF00D1124EB50FE4F80818F708230A4
:103B000051F582858550823030F1019FC00111242A
:103B100089509E4F0E94131029833A834B835C8304
:103B20006D837E838F839887C980DA80EB80FC80E9
:103B300020E030E0A901C701B6010E94E82A18166A
:103B400064F020E030E040EA51ECC701B6010E9489
:103B5000E82A181664F00F5FC2CF20E030E040EA98
:103B600051E4C701B6010E941E2987FFF4CF20E06F
:103B700030E0A9016D817E818F8198850E94E82ABD
:103B800018164CF720E030E0A901C701B6010E94E9
:103B9000E82A181624F0F7FAF094F7F8F094189D34
:103BA000F001199DF00D1124EB50FE4F648570E07B
:103BB00090E080E00E94D229A70196010E94F52A98
:103BC0009B01AC0160E070E080E791E40E9428294D
:103BD00020E030E040EA50E40E9428296B017C019B
:103BE00020E030E040E751E40E94E82A1816F4F0A3
:103BF000C701B6010E94A129662309F4ACCF189D24
:103C0000F001199DF00D1124EB50FE4F8385861BAA
:103C1000990B97FD80E08387189DF001199DF00DA9
:103C20001124EB50FE4FB286B58695CF6FE0E7CFFB
:103C300020E030E040E251EC69A17AA18BA19CA187
:103C40000E94E82A1816ACF420E030E040E85FE378
:103C500069A17AA18BA19CA10E943F2869A37AA3A4
:103C60008BA39CA3A9A5A23008F4FDCDA250A9A7BF
:103C7000FACD88E00E944A0F8823A1F31092D40164
:103C800081E08093D301EECFB6E1B9A7ECCD26EA6F
:103C90003BE944E45BEBC701B6010E941E2987FFA4
:103CA000FFCD8090000190900101A0900201B090A2
:103CB00003012091BF013091C0014091C101509199
:103CC000C201C701B6010E94F52AA50194010E9414
:103CD000F52A2B013C012091BB013091BC014091A0
:103CE000BD015091BE01C701B6010E94F52AA50190
:103CF00094010E94F52AAB01BC01E12C93018201E1
:103D000083EB91E00E944B14212C3EE0332E009176
:103D10008102201608F0C4C1622C712C239C700112
:103D20001124F701E950FE4FFE8FED8FBF0183EBA9
:103D300091E00E943313F701EB50FE4F8487958585
:103D4000992311F091509587893C60F0369CF001E1
:103D5000379CF00D1124EB50FE4F808191810E9421
:103D6000B20BD5CF369C9001379C300D1124A901A0
:103D70004B505E4F6A01DA011A962C911A97263041
:103D800011F42394C4CFFA0190819F70983009F404
:103D90005DC188F49230A9F71B969C911B979111F5
:103DA00020C0253071F385E01A968C931A97E6E0CF
:103DB0001D96EC93E6CF993009F461C19A3009F76A
:103DC000823008F003C18091CF01843108F484E18E
:103DD00084518093CF01E1E0E093B2010E94191376
:103DE000B5CF243071F4D6011D968C911D978111A9
:103DF000C8CFE1E01A96EC931A9788E21D968C934F
:103E0000C0CF223081F399EF980F369CF001379C98
:103E1000F00D1124EB50FE4F993408F0B3C021305F
:103E200029F021E0228734E13587ABCF15851111C8
:103E300033C086809780A084B184C280D380E48020
:103E4000F5800A3010F00C946F27C501B4010E9470
:103E5000A129562EC701B6010E94A129462E40E491
:103E6000549EC0011124842924E0880F991F2A95AB
:103E7000E1F78A6025EF31E0011709F4DEC7225F20
:103E80003F4FF9013E97408151814817590711F47E
:103E90000C946F271F5FF0CFC090B701D090B8018E
:103EA000E090B901F090BA0186809780A084B18437
:103EB000A5019401C701B6010E94E82A2AE037ED66
:103EC00043EA5CE318167CF0A5019401C701B60132
:103ED0000E941E292AE037ED43EA5CEB87FD03C010
:103EE00020E030E0A901C0900001D0900101E090F5
:103EF0000201F0900301C701B6010E94F52A6DA3EB
:103F00007EA38FA398A78090B3019090B401A09056
:103F1000B501B090B601369CF001379CF00D11242C
:103F2000EB50FE4F4280538064807580A301920164
:103F3000C501B4010E94E82A2AE037ED43EA5CE3B8
:103F400018167CF0A3019201C501B4010E941E293C
:103F50002AE037ED43EA5CEB87FD03C020E030E068
:103F6000A901C701B6010E94F52AAB01BC01EE24EC
:103F7000E3940DA11EA12FA138A58D8D9E8D0E94C9
:103F80004B14FFCE873000F5233029F093E0928761
:103F9000AAE0A587F6CE85858111F3CE8091CF0169
:103FA000883008F488E088508093CF01369CF00177
:103FB000379CF00D1124EB50FE4F3586B1E0B093E5
:103FC000B2010E941913DDCE1286DBCE1B966C91D6
:103FD00070E090E080E00E94D02920E030E044E3EF
:103FE00052E40E9428292BED3FE049E450E40E946E
:103FF000F52A2B013C010E94622B4B015C01C3019D
:10400000B2010E9423292B013C012DEC3CEC4CE435
:104010005EE3C501B4010E94F52A4B015C012DEC61
:104020003CEC4CE45EE3C301B2010E94F52AAB0113
:10403000BC01EE24E394950184018D8D9E8D0E9438
:104040004B14892B09F49DCEF60187CE863008F0FB
:1040500098CE88E296E00E94D80EE6E0D6011A9645
:10406000EC938091CF01833308F082E38E5C8093E0
:10407000CF010E941913F1E0F093B20182CE863095
:1040800008F07FCE8EEB94E00E94D80EE6E0D601D9
:104090001A96EC938091D0018F5F8093D001E9CF85
:1040A00020E030E048EC52E469A17AA18BA19CA108
:1040B0000E94F52A0E949A298B0120E030E048EC0A
:1040C00052E46091BF017091C0018091C101909153
:1040D000C2010E94F52A0E949A292B967FAF6EAFEB
:1040E0002B9720E030E048EC52E46091C7017091DA
:1040F000C8018091C9019091CA010E94F52A0E94CD
:104100009A292D967FAF6EAF2D9720E030E048ECD6
:1041100052E46091B7017091B8018091B90190911A
:10412000BA010E94F52A0E949A296B0129967FAF55
:104130006EAF2997CB0164E670E00E94012C2E96A9
:104140006FAF2E979B01332744E6649FB001112483
:104150006C597F4F6C197D09CB01770FAA0BBB0BF4
:1041600066968CAF9DAFAEAFBFAF66974CE942038A
:10417000C001439F900D1124DC01AC0DBD1DBFABF0
:10418000AEAB9D01032E000C440B550B62962CAF79
:104190003DAF4EAF5FAF6297212C26961FAE1EAE8D
:1041A0002697B195A195B1096996BFAFAEAF699752
:1041B000A801110F660B770B6D964CAF5DAF6EAF1C
:1041C0007FAF6D9720E030E048EC52E46091B3019E
:1041D0007091B4018091B5019091B6010E94F52AC9
:1041E0000E949A2969AB7AAB8BAB9CABE9A8FAA881
:1041F0002696CEACDFAC2697CC0CCD2CCC1CDD08A3
:1042000054E6C51AD10820E030E048EC52E4609151
:10421000C3017091C4018091C5019091C6010E94B3
:10422000F52A0E949A29C69E9001C79E300DD69EFF
:10423000300D1124C90164E670E00E94012C8B014D
:1042400020E030E048EC52E46091BB017091BC0189
:104250008091BD019091BE010E94F52A0E949A2989
:10426000600F711FCB01770FAA0BBB0B8DA39EA311
:10427000AFA3B8A72D96AEADBFAD2D97AC9DC00135
:10428000AD9D900DBC9D900D112464E670E00E94E0
:10429000012C2B96EEADFFAD2B976E0F7F1F9B0170
:1042A000770F440B550B2D8F3E8F4F8F58A3C701AF
:1042B00064E670E00E94012C362E8B01112734E653
:1042C000639F500111244DA15EA16FA178A5452BDC
:1042D000462B472B09F437C660E177E280E090E097
:1042E0002DA13EA14FA158A50E94DC2769017A01AA
:1042F0001C141D041E041F0464F060EF78ED8FEFA2
:104300009FEF2DA13EA14FA158A50E94DC27690176
:104310007A016D8D7E8D8F8D98A1F0E44F2EF2E4A1
:104320005F2EFFE06F2E712C672B682B692BE9F055
:1043300060E177E280E090E02D8D3E8D4F8D58A1B9
:104340000E94DC2729013A011414150416041704ED
:1043500064F060EF78ED8FEF9FEF2D8D3E8D4F8DE8
:1043600058A10E94DC2729013A018DA19EA1AFA18D
:10437000B8A5B7FF65C12CE92003D001219FB00D7E
:104380001124E9A9FAA9AE0FBF1FA70196010E9447
:10439000062824E630E040E050E00E94DC2728AF09
:1043A00039AF4AAF5BAFFFEF2296FFAF22974D8D3B
:1043B0005E8D6F8D78A177FF5DC162962CAD3DADAE
:1043C0004EAD5FAD6297C301B2010E94DD2B24E6C2
:1043D00030E040E050E00E94DC272CAF3DAF4EAF14
:1043E0005FAF5FEF23965FAF239729A93AA92A19F8
:1043F0003B0937FF03C03195219531094EA95FA9CB
:1044000057FF04C069964EAD5FAD6997C901241787
:1044100035070CF4CA01C296421753070CF49A01EF
:104420003595279535952795820F931F64E670E0A3
:104430000E94012C67966FAF6797AFA4B8A82E961D
:104440009FAC2E977CE027967FAF2797EEE08E2ECD
:1044500028AD39AD4AAD5BAD6CAD7DAD8EAD9FADD8
:1044600026173707480759070CF02CC12C0D3D1DA6
:104470004E1D5F1D28AF39AF4AAF5BAF22967FADAF
:104480002297370E10E0AFE3A31508F45DC1B8E33F
:10449000B91508F459C1692D832D0E94370B8F304F
:1044A00009F022C111116AC14DA15EA16FA178A5C9
:1044B000452B462B472B09F489C122965FAD2297E5
:1044C0006CE95602D0011124AC59BF4FB595A795A0
:1044D00074E6379EC0011124E9A9FAA98E1B9F0B2F
:1044E000A80FB91F24E630E00E94152C2DA13EA193
:1044F0004FA158A50E94DC2749015A017BEF87167E
:1045000074E09706A104B1040CF067C1CA01B901B7
:1045100025E030E040E050E00E94DC27E22DE69507
:10452000F0E0EF58FE4F208381EB881684E0980678
:10453000A104B10434F020EB822E24E0922EA12CB1
:10454000B12C94E689169104A104B1042CF494E6EC
:10455000892E912CA12CB12CA50194012F5F3F4FE6
:104560004F4F5F4F60EE75E180E090E00E94DC27E6
:10457000E22EE6946D966CAD7DAD8EAD9FAD6D97E0
:10458000A50194010E94DC27245E022F0E19E20E81
:10459000110F88E0F82EF11AC501B4012AE63FEFA9
:1045A0004FEF5FEF0E94DC27F20EA02EE0160CF416
:1045B000AE2CA7FCA12C0E150CF40E2D07330CF01D
:1045C00007E312E0912E920CE22CB12C1A2DCE2C86
:1045D000D12C01170CF403C1A12FA7702496AFAF03
:1045E000249780E0FF2049F0B6E081E0BF1528F075
:1045F0004F2D612F8E2D0E94F70F90E024960FAC67
:10460000249702C0880F991F0A94E2F7B82A2496CB
:10461000EFAD2497E73091F4E12FE695E695E69526
:10462000F0E8EF9FC0011124E091D101F091D20197
:10463000E80FF91FEC0DFD1DB082B12C1F5FC9CF33
:10464000D501AC59BF4F29A93AA9A21BB30BA701A9
:1046500096010E94062824E630E040E050E00E94E7
:10466000DC2728AF39AF4AAF5BAF31E022963FAFCE
:1046700022979DCE66962CAD3DAD4EAD5FAD669753
:10468000C301B2010E94DD2B24E630E040E050E09F
:104690000E94DC272CAF3DAF4EAF5FAF61E02396A9
:1046A0006FAF2397A2CEB8AAAFA627968FAD279754
:1046B000815027968FAF2797882309F4A9C0AFA40C
:1046C000B8A8C6CE8CAD9DADAEADBFAD840D951D69
:1046D000A61DB71D8CAF9DAFAEAFBFAF23969FADEC
:1046E0002397990E11E0CFCE823011F083FFDDCFFA
:1046F0006796EFAD6797E83CC0F6F0E49F9E9001A7
:104700001124232964E0220F331F6A95E1F7A901E0
:10471000482B58AB4FA74A155B0539F2109181021F
:1047200025EF31E090E0191709F4E6C3225F3F4F0F
:10473000F9013E97408151816FA578A964177507EB
:1047400009F4B1CF9F5FEFCF80E0D0CF819EC00151
:104750001124FC01EB50FE4F5F0100E0292D432D99
:1047600069E0E1C3819EC00111249C012B503E4FA2
:10477000590100E0292D432D68E0D5C32D8D3E8DD4
:104780004F8D58A1232B242B252B01F123963FADD0
:1047900023974CE93402D0011124AC59BF4FB59591
:1047A000A79554E6959EC001112429966EAD7FAD64
:1047B0002997861B970BA80FB91F24E630E00E94AB
:1047C000152C2D8D3E8D4F8D58A194CE30E4832E27
:1047D00032E4932E3FE0A32EB12C2FEF9FCE2496F0
:1047E0002FAD2497273089F0115016951695169500
:1047F00030E8139FC0011124E091D101F091D20162
:10480000E80FF91FEE0DF11DB082E3949E10DDCE8E
:104810002394239426964EAD5FAD269740575E4F66
:1048200026965FAF4EAF269750E82512CBCCE0E03E
:1048300080918102AAE0EA2E0DE010E0C82ED12C72
:10484000BEE0FB2E823018F4EE2309F44BC08E9D9F
:10485000C0011124B8010E94012C862F69506230DA
:10486000E8F18823E9F190E0E0E0B601681B710906
:10487000292F30E0261737072CF7F29EA001F39E70
:10488000500D11244B505E4F280FF29E90011124C1
:104890002B503E4FDA011C96BC90D9011C96FC911E
:1048A000BF16D0F4EEE0BE2EFA01DE0111960190A3
:1048B0000D92BA94E1F7FEE0BF2EF901DA01019002
:1048C0000D92BA94E1F74EE0FE013196D9010190C4
:1048D0000D924A95E1F7E1E09F5FCACF8BE0C3CF2D
:1048E00081E0C1CF312C5EE0252E80918102381607
:1048F00008F090C1C32CD12C2C9CC0012D9C900D94
:104900001124FC01EB50FE4F7F011285163009F493
:104910005CC089509E4F0E94131029833A834B83B9
:104920005C836D837E838F8398878D809E80AF802C
:10493000B8842DEC3CEC4CEC5DE3C501B4010E9465
:104940001E2918160CF041C020E030E040E051E490
:10495000C501B4010E94E82A1816BCF1A501940112
:1049600069817A818B819C810E94282920E030E036
:1049700040E85FE30E94402820E030E040E852E455
:104980000E94F52A0E949A292B01CB01805C9F4F3F
:1049900081309140D0F4A501940169A17AA18BA145
:1049A0009CA10E94282920E030E040EE51E40E94C2
:1049B00040280E949A29062FD7018C918F70883049
:1049C00009F4B4C020F48230D1F133948ECF893011
:1049D00009F4EAC08A30C9F7A501940160E070E0EB
:1049E00080E091E40E9428296B017C01602F000F78
:1049F000770B880B990B0E94D229A70196010E9480
:104A00003F280E949A296D8FB201550C880B990B93
:104A10000E94D229A70196010E943F280E949A294C
:104A2000862FC12C30E1E32EF12C00E110E026ECC2
:104A300037E046EE57E06D8D0E94C311C6CF1130AE
:104A400009F04DC00E94100E24EF31E040E050E02C
:104A50000E940E28C90162E070E00E94012C182F0C
:104A6000602F000F770B880B990B0E94D2296B01E6
:104A70007C01A501940160E070E080E091E40E9477
:104A800028299B01AC01C701B6010E943F280E9462
:104A90009A29D62EB201550C880B990B0E94D22967
:104AA0002B013C01A501940160E070E080E891E4F5
:104AB0000E9428299B01AC01C301B2010E943F283A
:104AC0000E949A29862FC12E40E2E42EF12C00E2AA
:104AD00010E026E038E046E85AE06D2DADCF123008
:104AE00009F4BECF1430F1F0133071F42C9CF001B6
:104AF0002D9CF00D1124EB50FE4F858512E08B307C
:104B000008F0AECF11E0ACCF153071F42C9CF00161
:104B10002D9CF00D1124EB50FE4F858514E0882369
:104B200009F49ECF13E09CCF10E09ACF602F000FC6
:104B3000770B880B990B0E94D2296B017C01A50190
:104B4000940160E070E080EA90E40E9428299B01D3
:104B5000AC01C701B6010E9440280E949A29D62EB6
:104B6000B201550C880B990B0E94D2292B013C01F4
:104B7000A501940160E070E080E091E40E942829A2
:104B80009B01AC01C301B2010E943F280E949A29F7
:104B9000862FC12C20E1E22EF12C00E110E026E46A
:104BA00037E046E857E099CF602F000F770B880B6E
:104BB000990B0E94D2296B017C01A501940160E050
:104BC00070E080EA90E40E9428299B01AC01C701B3
:104BD000B6010E9440280E949A29D62EB201550C97
:104BE000880B990B0E94D2292B013C01A50194014D
:104BF00060E070E080E091E40E9428299B01AC0114
:104C0000C301B2010E943F280E949A29862FCC241A
:104C1000C394C0CF0E94100E0E94D0292AE037ED25
:104C200043EA5BE30E94F52A0E94622B20E030E019
:104C300040E251E40E94F52A2AA53BA54CA55DA5BA
:104C40000E94F52A20E030E040E452E40E9440282F
:104C50000E949A29A62E68E370E0B9A56B1B710922
:104C6000072E000C880B990B0E94D2296B017C0146
:104C70000E94100E0E94D0292AE037ED43EA5BE340
:104C80000E94F52A0E94232920E030E0A9010E9419
:104C9000E82A18160CF08FC00E94100E0E94D0292E
:104CA0002AE037ED43EA5BE30E94F52A0E942329BC
:104CB00020E030E040E051E40E94F52A9B01AC0185
:104CC0006AA57BA58CA59DA50E94F52AA701960142
:104CD0000E9440280E949A29162F862E660F990856
:104CE0000A2C000CBB08E9A5E53168F0EE24E3943A
:104CF00004E128E146E05EE0B4016B507109C501B2
:104D000006960E94580FC4018096183114F088E36B
:104D100090E06C01C818D908D7FCC12CE12C0C2DEF
:104D200020E246E85DE0B401C5010E94580FEE2480
:104D3000E39420E246E05DE0B401C5010E94580F13
:104D4000FEA5FF2309F445C08F2F0E942D112EA52B
:104D500021502EA721110FC045E45EE06AE382E0F6
:104D60000E94A11120E042E45EE06AE388E20E9432
:104D7000A1110E9419139091B2018091B101992360
:104D800009F44EC021E082278093B10191509093A5
:104D9000B2018091B101882309F448C087EA0E94DA
:104DA000F60E0E94550F8091D301882311F40C94C4
:104DB0008E1A0C946A190E94100E0E94D0292AE0C3
:104DC00037ED43EA5BE30E94F52A0E9423299058BD
:104DD0006FCF46E066E48AE390E00E94140F25E579
:104DE00035E545E852E46091000170910101809140
:104DF0000201909103010E94F52A9B01AC0160E041
:104E000070E08AE794E40E9428290E949A2982E7A8
:104E10000E94E4126091810282E50E94E412ABCF0D
:104E2000882309F4B6CF1092B101B3CF86EAB7CF89
:104E30000E944A0F8DAB0C94331C2091B30130912A
:104E4000B4014091B5015091B601C701B6010E946D
:104E50003F286B017C012091B7013091B80140914E
:104E6000B9015091BA01C501B4010E943F28A701C0
:104E700096010E94BF282BED3FE049E450E40E94D8
:104E8000282920E030E044E352E40E94F52A20E0A3
:104E900030E044E352E40E9440280E949A29AB018A
:104EA00077FF03C0AB01465A5F4F319E900111243A
:104EB000B9016B507E4F7B01042F252D442D6AE0F4
:104EC000CE010F960E94750BFE013F96D701832DF0
:104ED00001900D928A95E1F71F5F10938102369C35
:104EE000F001379CF00D1124EB50FE4F72E07287F9
:104EF00086E085870C94C11E1A3008F0D6CB883026
:104F000009F430CC893009F421CC823009F0CDCBC2
:104F1000819EC0011124DC01AB50BE4F5D0104E64F
:104F2000292D432D62E0CE010F960E94750BFE01E4
:104F30003F96D501882D01900D928A95E1F71F5F6C
:104F400010938102B2CB4D8D5E8D6F8D78A180E480
:104F5000482E82E4582E8FE0682E712C90E4C92EE2
:104F600092E4D92E9FE0E92EF12C452B462B472BBE
:104F700009F466CBA0E4CA2EA2E4DA2EAFE0EA2E52
:104F8000F12CD6C9F999FECF92BD81BDF89A992727
:104F900080B50895262FF999FECF92BD81BDF89A6C
:104FA000019700B4021639F01FBA20BD0FB6F8946D
:104FB000FA9AF99A0FBE0895052E97FB1EF40094F5
:104FC0000E94F32757FD07D00E940E2807FC03D04C
:104FD0004EF40C94F32750954095309521953F4F12
:104FE0004F4F5F4F089590958095709561957F4FD5
:104FF0008F4F9F4F08950E943028A59F900DB49F1A
:10500000900DA49F800D911D11240895B7FF0C945D
:10501000FB270E94FB27821B930B0895A1E21A2E07
:10502000AA1BBB1BFD010DC0AA1FBB1FEE1FFF1F4C
:10503000A217B307E407F50720F0A21BB30BE40B9C
:10504000F50B661F771F881F991F1A9469F76095E3
:105050007095809590959B01AC01BD01CF0108959D
:10506000A29FB001B39FC001A39F700D811D1124A9
:10507000911DB29F700D811D1124911D08955058EE
:10508000BB27AA270E9457280C949A2A0E94612ABB
:1050900038F00E94682A20F039F49F3F19F426F472
:1050A0000C94372A0EF4E095E7FB0C94312AE92F93
:1050B0000E94BF2A58F3BA1762077307840795073F
:1050C00020F079F4A6F50C94E12A0EF4E0950B2E6D
:1050D000BA2FA02D0B01B90190010C01CA01A0014A
:1050E0001124FF27591B99F0593F50F4503E68F1A5
:1050F0001A16F040A22F232F342F4427585FF3CFE6
:10510000469537952795A795F0405395C9F77EF4B6
:105110001F16BA0B620B730B840BBAF09150A1F0FF
:10512000FF0FBB1F661F771F881FC2F70EC0BA0F85
:10513000621F731F841F48F4879577956795B7950D
:10514000F7959E3F08F0B0CF9395880F08F0992708
:10515000EE0F9795879508950E94612A60F080E888
:1051600091E009F49EEF0E94682A28F040E851E09F
:1051700071F45EEF0CC00C94372A0C94E12AE92FED
:10518000E0780E94BF2A40F3092E052AB1F32617C2
:1051900037074807590738F00E2E07F8E02569F061
:1051A000E025E0640AC0EF6307F8009407FADB012A
:1051B000B9019D01DC01CA01AD01EF930E943F29B5
:1051C0000E949A2A0E94EF285F91552339F02BED17
:1051D0003FE049E450FD49EC0C9440280895DF93EA
:1051E000DD27B92FBF7740E85FE31616170648079B
:1051F0005B0718F4D92F0E94ED2A9F938F937F931A
:105200006F930E94B02BECEAF0E00E943A2A0E94D1
:105210009A2A2F913F914F915F910E94082BDD2395
:1052200051F09058A2EA2AED3FE049EC5FE3D078D4
:105230005D270E945728DF910C949A2A0E940D2A1C
:1052400008F481E008950E94712AE3950C94AB2A3A
:105250000E943C290C949A2A0E94682A58F00E94C5
:10526000612A40F029F45F3F29F00C94312A511152
:105270000C94E22A0C94372A0E94BF2A68F39923DF
:10528000B1F3552391F3951B550BBB27AA27621742
:105290007307840738F09F5F5F4F220F331F441F4F
:1052A000AA1FA9F335D00E2E3AF0E0E832D0915083
:1052B0005040E695001CCAF72BD0FE2F29D0660F70
:1052C000771F881FBB1F261737074807AB07B0E8B3
:1052D00009F0BB0B802DBF01FF2793585F4F3AF0B9
:1052E0009E3F510578F00C94312A0C94E22A5F3FDE
:1052F000E4F3983ED4F3869577956795B795F7953F
:105300009F5FC9F7880F911D9695879597F9089526
:10531000E1E0660F771F881FBB1F621773078407C2
:10532000BA0720F0621B730B840BBA0BEE1F88F7D1
:10533000E09508950E94A1296894B1110C94E22A85
:1053400008950E94C72A88F09F5798F0B92F99278F
:10535000B751B0F0E1F0660F771F881F991F1AF060
:10536000BA95C9F714C0B13091F00E94E12AB1E0BA
:1053700008950C94E12A672F782F8827B85F39F0B9
:10538000B93FCCF3869577956795B395D9F73EF4F9
:1053900090958095709561957F4F8F4F9F4F0895A1
:1053A000E89409C097FB3EF49095809570956195BF
:1053B0007F4F8F4F9F4F9923A9F0F92F96E9BB2775
:1053C0009395F695879577956795B795F111F8CFF1
:1053D000FAF4BB0F11F460FF1BC06F5F7F4F8F4F5C
:1053E0009F4F16C0882311F096E911C0772321F052
:1053F0009EE8872F762F05C0662371F096E8862FEA
:1054000070E060E02AF09A95660F771F881FDAF740
:10541000880F9695879597F90895990F0008550F6D
:10542000AA0BE0E8FEEF16161706E807F907C0F02A
:1054300012161306E407F50798F0621B730B840B32
:10544000950B39F40A2661F0232B242B252B21F40C
:1054500008950A2609F4A140A6958FEF811D811DAC
:10546000089597F99F6780E870E060E008959FEFE6
:1054700080EC0895DF93CF931F930F93FF92EF92E9
:10548000DF927B018C01689406C0DA2EEF010E9446
:10549000082BFE01E894A5912591359145915591F0
:1054A000A6F3EF010E945728FE019701A801DA94A4
:1054B00069F7DF90EF90FF900F911F91CF91DF91EF
:1054C000089500240A94161617061806090608956A
:1054D00000240A94121613061406050608950C9467
:1054E000372A0E94C72AD8F3E894E0E0BB279F57E9
:1054F000F0F02AED3FE049EC06C0EE0FBB0F661F4F
:10550000771F881F28F0B23A62077307840728F0D4
:10551000B25A620B730B840BE3959A9572F780383D
:1055200030F49A95BB0F661F771F881FD2F79048FB
:105530000C94B62B092E0394000C11F4882352F01E
:10554000BB0F40F4BF2B11F460FF04C06F5F7F4FAF
:105550008F4F9F4F0895EF93E0FF07C0A2EA2AED17
:105560003FE049EC5FEB0E9457280E949A2A0F9077
:10557000039401FC9058E9EDF0E00C94C92B57FD21
:105580009058440F551F59F05F3F71F04795880FB1
:1055900097FB991F61F09F3F79F087950895121648
:1055A00013061406551FF2CF4695F1DF08C01616F4
:1055B00017061806991FF1CF8695710561050894A5
:1055C0000895E894BB2766277727CB0197F90895BC
:1055D0000E940D2A08F48FEF08959B01AC0160E052
:1055E00070E080E89FE30C9428290E94082B0C941B
:1055F0009A2A0E94612A38F00E94682A20F0952396
:1056000011F00C94312A0C94372A11240C94E22ABC
:105610000E94BF2A70F3959FC1F3950F50E0551F6C
:10562000629FF001729FBB27F00DB11D639FAA27F7
:10563000F00DB11DAA1F649F6627B00DA11D661F46
:10564000829F2227B00DA11D621F739FB00DA11D67
:10565000621F839FA00D611D221F749F3327A00D21
:10566000611D231F849F600D211D822F762F6A2FBD
:1056700011249F5750409AF0F1F088234AF0EE0F22
:10568000FF1FBB1F661F771F881F91505040A9F74F
:105690009E3F510580F00C94312A0C94E22A5F3F22
:1056A000E4F3983ED4F3869577956795B795F7958B
:1056B000E7959F5FC1F7FE2B880F911D9695879503
:1056C00097F908959F930E94712A0F9007FCEE5F4F
:1056D0000C94AB2A19F416F40C94372A0C94B42BBE
:1056E0000E94C72AB8F39923C9F3B6F39F57550B05
:1056F00087FF0E94C22B0024A0E640EA9001805858
:105700005695979528F4805C660F771F881F20F0C8
:1057100026173707480730F4621B730B840B2029C8
:1057200031294A2BA69517940794202531254A271D
:1057300058F7660F771F881F20F02617370748078E
:1057400030F4620B730B840B200D311D411DA095AD
:1057500081F7B901842F9158880F96958795089500
:105760009B01AC010C94F52A9F3F31F0915020F43D
:10577000879577956795B795880F911D969587952D
:1057800097F9089591505040660F771F881FD2F700
:1057900008959F938F937F936F93FF93EF939B0154
:1057A000AC010E94F52AEF91FF910E943A2A2F91B5
:1057B0003F914F915F910C94F52ADB018F939F935A
:1057C0000E94FB27BF91AF91A29F800D911DA39FC7
:1057D000900DB29F900D11240895AA1BBB1B51E19F
:1057E00007C0AA1FBB1FA617B70710F0A61BB70B51
:1057F000881F991F5A95A9F780959095BC01CD01F6
:10580000089597FB072E16F4009407D077FD09D072
:105810000E94ED2B07FC05D03EF4909581959F4F9B
:105820000895709561957F4F08950E943028B7FFC5
:105830000895821B930B0895EE0FFF1F0590F491BE
:10584000E02D0994DC0101C06D9341505040E0F718
:105850000895AEE0B0E0EFE2FCE20C94D82E0D89A2
:105860001E8986E08C831A8309838FEF9FE79E83CE
:105870008D83AE01475E5F4F6F89788DCE010196B3
:105880000E944C2C2F813885020F131FF8011082C3
:105890002E96E4E00C94F42EABE0B0E0E2E5FCE2FE
:1058A0000C94CA2E7C013B018A01FC0117821682EE
:1058B000838181FFC8C1CE0101965C01F70193810C
:1058C000F30193FD859193FF81913F01882309F4B2
:1058D00053C1853239F493FD859193FF81913F0146
:1058E000853229F4B70190E00E943C2EE7CF912C3D
:1058F000212C312CFFE1F31538F08B3211F190F4AB
:10590000803209F1833229F137FC3CC020ED280FA9
:105910002A3050F536FE20C08AE0989E200D1124D2
:10592000922E06C08D3291F0803371F7689430F872
:10593000F30193FD859193FF81913F018111DACFAE
:1059400021C0689431F8689432F8F2CF689433F843
:10595000EFCF689434F8ECCFEAE02E9E200D1124AE
:10596000222E689435F8E4CF8E3229F436FC04C137
:10597000689436F8DDCF8C3619F4689437F8D8CFB0
:105980008836B1F2982F9F7D95549330E0F083369E
:10599000A1F18337C1F1833509F063C02801F2E03A
:1059A0004F0E511CF801C080D180692D70E036FC8B
:1059B00002C06FEF7FEFC6010E94262E4C01689453
:1059C00037F882010AC00C5F1F4FFFE3F983882478
:1059D0008394912C6501E89437F833FE2DC0522C46
:1059E0008114910471F5552009F468CFB70180E264
:1059F00090E00E943C2E5A94F6CFF8018081898372
:105A00000E5F1F4FE4CF2801F2E04F0E511CF8014A
:105A1000C080D180692D70E036FC02C06FEF7FEF4F
:105A2000C6010E94312E4C018201D5CFB70180E220
:105A300090E00E943C2E2A942814190409F0B0F733
:105A4000CECFF60137FC859137FE81916F01B7010A
:105A500090E00E943C2E51105A94F1E08F1A910868
:105A6000BFCF843619F0893609F077C0F80137FEC8
:105A70006BC060817181828193810C5F1F4FF32D18
:105A8000FF763F2E97FF09C09095809570956195A0
:105A90007F4F8F4F9F4F689437F82AE030E0A50181
:105AA0000E946C2EC82ECA188C2C432C36FE0CC0BB
:105AB000E89440F8C91440F434FE05C032FC03C039
:105AC000F32DFE7E4F2E892C44FE95C0FE01EC0D79
:105AD000F11D8081803309F087C0242D297E422E5C
