:100000000C940C0B0C94340B0C94340B0C94340B9C
:100010000C94340B0C94340B0C94340B0C94340B64
:100020000C94340B0C94340B0C94A3140C941215F4
:100030000C94340B0C94340B0C94340B0C94340B44
:100040000C94340B0C94340B0C94340B0C94340B34
:100050000C94340B0C94340B0C94340B0C94441708
:100060000C94340B0C94340B0C94340B0C94340B14
:100070000C94340B0C94340B0C94340B0C94340B04
:100080000C948E170C94340B0C94340B0C94340B8E
:100090000C94340B0C94340B0C94340B0C94340BE4
:1000A0000C94340B0C94340B0C94340B084AD73B4F
:1000B0003BCE016E84BCBFFDC12F3D6C74319ABD37
:1000C00056833DDA3D00C77F11BED9E4BB4C3E915B
:1000D0006BAAAABE000000803F05A84CCDB2D44E4A
:1000E000B93836A9020C50B9918688083CA6AAAA4C
:1000F0002ABE000000803F00000000000000000059
:10010000000000000000000000000000000180006E
:10011000062669F6F666E6EFF692198996E6E6E9AE
:100120009999F000024183CF0929998819999998E2
:1001300088921A8FD9999849999910000427E56FE8
:1001400009222FEE167FE89EE8F21C89B9E9E649FC
:10015000996660060427E7EF0924911919199998FF
:1001600089929A89998B91496F968020042187EF13
:10017000067F61E61669E6EF869269F996879E46E4
:100180006996F440F24180E08040201008040201AA
:10019000000000000000000000000000000000005F
:1001A000000088880000222200008A8A00002222A3
:1001B0000000AAAA1010AAAA0000AAAA0101AAAACD
:1001C0004444AAAA5555AAAA4444AAAA1555AAAABB
:1001D0005555AAAA5555BBBB5555AAEA5555BBBBA3
:1001E0005555FFFF5555FBFB5555FFFF5555BBBFFB
:1001F0005757FFFFDDDDFFFF7775FFFFDDDDFFFFF9
:10020000FFFFFFFFFFFFFFFFFFFFFFFFFFFFFFFFFE
:10021000D5808D14A1C88180D9F1AF2000F0F89C61
:100220008E8783878E9CF8F00000FEFF0303030394
:1002300003070EFCF80000FEFF0303030303070E91
:10024000FCF80000FFFF00000000000000FFFF00BE
:1002500000FEFF8383838383C7EE7C380000F8FCB5
:100260000E07030303070EFCF800003F7FE0C08089
:1002700080C0E07F3FFFFF01010101010101FFFF9D
:100280000000FFFF0C0C0C0C1C3E77E3C100007F4C
:10029000FFC0C0C0C0C0E0703F1F00001F3F70E043
:1002A000C0C0C0E0703F1F00007FFFC1C1C1C1C11D
:1002B000E3773E1C00001F3F70E0C0C0C0E0703F0D
:1002C0001F000000000001FFFF0100000050524528
:1002D0005353204649524500000000000000000032
:1002E0000040080001042008011200001000000076
:1002F0004000004000800050002811024000A00093
:100300005000280A026001A00050002C0A0241E1BE
:10031000B0F05078280A066220A1B850C82C040218
:100320004A31B088D0882804066221A18850886CA0
:1003300014024331B08A528A2880064231A8C8D0BC
:10034000882C42866B29A5A8D4EAAC50426365B4D8
:10035000DA52D96C422653B1B1D8D4DA6D48866BE3
:1003600075B5DA52FC6D6B566BA1B0FBDAD96C69CE
:100370004653EDBDFA76FAEF6CB26FEBF4FDDDFD9E
:100380006CE74E77EBBFFED6FBEEF1E659EFBCF221
:10039000D6FBEFF4F6F3B7FFFB5CFFEFD67A6BBF4B
:1003A000BE88D2DFEFDCD64B7FFFCA709FEFDECE78
:1003B0004BDFBFEB76FFEFDFD677FFFFFE56FFFF89
:1003C000DFC2DFFFFFFEFBDFEFCF764FFFBFFBDFBC
:1003D000FFE7EF527FFF9FFFFFFFDFDF7EFFFFCFD3
:1003E000FFFFFFBFCE627FFFFFFFDFFF7FFEFE7FCD
:1003F000FFE3FF8FFF7FEE7E7FFFC1FF07FC1FDF64
:100400007EFFFF807C01F00FFDFE7FFF003801E0E2
:1004100007FD7E7FFC00100040033FFE7FF80000D8
:1004200000000013FEFFF00000000000037E7FC00C
:10043000000000000003FE7F80000000000003FEBB
:100440007F00000000000007FEFC0000000000002C
:1004500003FEF800000000000001FE700000000034
:10046000000000FE20000000000000003F0000002F
:1004700000000000001E00000000000000000CDA78
:10048000040A00DA040A00DA040A00B5000A00D9F6
:10049000010A006D020A00F1010A00F1010A008060
:1004A000000A00F1010A006D020A006D020A005AFA
:1004B000020A00E4000A006D020A006D020A000050
:1004C0008028020A0028020A0028020A0028020ADC
:1004D0000028020A0028020A0028020A0028020A4C
:1004E0000028020A0028020A0028020A0028020A3C
:1004F0000028020A0028020A0028020A0028020A2C
:100500000028020A0028020A0028020A0028020A1B
:100510000028020A0028020A0028020A006D020AC6
:10052000006D020A006D020A006D020A006D020AE7
:10053000006D020A006D020A0069010A0069010AE1
:100540000069010A0069010A0069010A0069010ADB
:100550000069010A0069010A0069010A0069010ACB
:10056000006D020A006D020A006D020A006D020AA7
:100570000069010A0069010A0069010A0069010AAB
:100580000069010A0069010A0069010A0069010A9B
:100590000069010A0069010A006D020A006D020A81
:1005A000006D020A006D020A0069010A0069010A71
:1005B0000069010A0069010A0069010A0069010A6B
:1005C0000069010A0069010A0069010A0069010A5B
:1005D000006D020A006D020A006D020A006D020A37
:1005E000006D020A006D020A001B030A001B030AC9
:1005F000001B030A001B030A001B030A001B030A5B
:10060000001B030A001B030A001B030A001B030A4A
:10061000001B030A001B030A001B030A001B030A3A
:10062000001B030A001B030A000080EA000A006D99
:10063000020A0057010A0057010A0057010A006D1B
:10064000020A006D020A006D020A006D020A006DC6
:10065000020A006D020A006D020A0086010A008685
:10066000010A0086010A0086010A006D020A006D77
:10067000020A006D020A006D020A006D020A006D96
:10068000020A006D020A006D020A006D020A000BE8
:10069000020A000B020A000B020A006D020A006D3A
:1006A000020A006D020A006D020A006D020A006D66
:1006B000020A006D020A0087030A0087030A008706
:1006C000030A0087030A0087030A006D020A006D0F
:1006D000020A006D020A006D020A006D020A006D36
:1006E000020A006D020A006D020A006D020A00870C
:1006F000030A0087030A0087030A0087030A0087AA
:10070000030A0087030A006D020A006D020A006DE9
:10071000020A006D020A006D020A006D020A006DF5
:10072000020A006D020A006D020A00B2030A00B25A
:10073000030A00B2030A00B2030A00B2030A00B2BD
:10074000030A00B2030A0000801FF83FFC7FFE7F0F
:10075000FE7FFE7FFE7FFE7FFE7FFE7FFE7FFE7FB1
:10076000FE7FFE7FFE7FFE3FFC00000000000000D9
:100770000000000FFC1FFC3FFC3FFC3FFC3FFC3F28
:10078000FC07FC03F8000000001FF83FFC7FFE7F21
:10079000FE77EE3FFC5FFA2FF653CC3E7E5E7C3850
:1007A0001E581C3E7E5E7E2EFC00000000000000F5
:1007B0000000000FFC17FC226C36443FFC1FFC2B92
:1007C000FC055402A8000000001F400FF03FF81F76
:1007D000FC7FFD7FFC7FFDFFFEFFFFFFFFFFFEFFB5
:1007E000FE3FFE17F807F401E0000001400AB00EDA
:1007F000D0006853B40F48277817A827F021D602F5
:10080000F820480620010000000000000000000061
:10081000000003C0000003C0000007E0000007E084
:10082000000003E0000107F18000DFFE00003FFE52
:1008300000007FFF0001FFFF8000FFFF8001FFFF3E
:100840008003CFF1C001C7F1C00187F1C0030FF9E8
:1008500080030FFB80018FFF80039F7900001F7CC6
:1008600000000F7800000F78000007300000073804
:100870000000073000000730000003780000073058
:1008800000000F800000000000000000000003C016
:10089000000007C0000007E0000007C0000107E1FA
:1008A00000008FFA0000FFFE00003FFE00017FFF06
:1008B0008000FFFF0001FFFF8003CFFBC00387F133
:1008C000C003CFF3C001CFF18000CFF100000FFBD8
:1008D00080001E7800000E7800001E7800000F7067
:1008E00000000F7800000770000007700000073854
:1008F00000000330000003200000073000000570F6
:10090000000000780000000000000000000000006F
:100910000000000E0000001F0000001F0000033F49
:100920008000013F000001FF300003FFC00003FF13
:10093000C00003FF800007FFE00007FFC00005FFC5
:10094000E00000FCE00001FCE00001FC700003FCA2
:10095000380003FE700007FC0000079E00000FBC7B
:1009600000000F3E0000079C0000039C000003B83D
:1009700000000398000001980000021C00000036EF
:100980000000000000000000000000000000000067
:100990000000000000000000000000000000002037
:1009A000000000380000001F0000001F4000003E53
:1009B000800001FF800003FF800007FFE0000EFFC2
:1009C000C0000CFF80001FFE000013FC000007FEAB
:1009D00000001FFF00003F9F00003E0F00007C0F43
:1009E0000000780F00007807800078074000380783
:1009F00080003007000030010001F0000001B0006D
:100A000000000000000000000000000000000000E6
:100A100000000000000000000000000000000000D6
:100A200000000000000000000000000000000000C6
:100A300000000000000000000000000000000000B6
:100A400000000000000000000000000000000000A6
:100A5000000000000000011C0000013E000003FF38
:100A600000000FFFE0013FFFC001FFFFC019FFFFC3
:100A7000E87FFFFFFE3FFFFFFE1FC207E01F0001F0
:100A8000E00E000040000000000000000000000038
:100A9000000001800000028000000740000002808A
:100AA0000000010000010FB30000D04E0000798C5F
:100AB00000001C1900018A20000000000000000353
:100AC00000020000000302000000000040020800D5
:100AD0008000000100018E300000041000000C2096
:100AE00000000000000000000000001000000600F0
:100AF00000000000000000200000010000000220B3
:100B0000000005000000000000000000000001805F
:100B100000000240000003E000000400000001A10A
:100B2000800180130000F38A0000099400008838D7
:100B3000800000000000022300000000400180004F
:100B4000800000010000E2800000000000000C2096
:100B500000000430000002200000004000000000FF
:100B6000000001000000022000000600000000005C
:100B7000000000000000020000000000000000A0D3
:100B8000000000480000000000000000000000001D
:100B9000000000040000000A0000001F0000022AFC
:100BA00080000105000001AE20000124400002ACDD
:100BB00080000286000003202000043040000C006A
:100BC000000000004000002020000000000000089D
:100BD000200001000000021A0000001C0000003884
:100BE000000004000000029800000018000000004F
:100BF00000000000000000000000000000000036BF
:100C000000000000000000000000000000000000E4
:100C100000000000000000200000000000000000B4
:100C2000000000040000000A00000008400000006E
:100C3000800001D6800002BF80000661A0000CE8A1
:100C400080000C1000001A22000012400000060C68
:100C50000000040D00003A03000010020000600ACA
:100C600000005004000020030000000400002000E9
:100C70000000000000002000000000000000400014
:100C80000000000000000000000000000000000064
:100C90000000000000000000000000000000000054
:100CA0000000000000000000000000000000000044
:100CB0000000000000000000000000000000000034
:100CC0000000000000000000000000000000000024
:100CD00000000000000002240000010800000118CC
:100CE00000000141400233B680019C040008FA0272
:100CF000080500010C2783A22A000400000200005E
:100D0000000000000000000000000020000000D8EB
:100D1000000001C40000020400000202000002EA18
:100D2000000004D1000009888000190000000DC2F5
:100D300080002981C0000BA2200031404000230028
:100D4000C000130040007202000049004001E0A80A
:100D50002007F100300BB9E0E8075C03FC07EFFF68
:100D6000EE07757FD21BBBFFB211577D6432AFFF18
:100D7000E8135F75D033FFFB9817D7E5001B8FB2E0
:100D800030037D58106FBFEC20000070000001FCA4
:100D9000000003FE000007FE000007FF000007FF41
:100DA00000000FFF80001FFFC0003FFF80003FFFDB
:100DB000C0007FFFE0007FFFF0007FFFE0007FFFCB
:100DC000E0007FFFE000FFFFC000FFFFE003FFFF48
:100DD000F00FFFFFF81FFFFFFC1FFFFFFE1FFFFFCD
:100DE000FF1FFFFFFF3FFFFFFF3FFFFFFE7FFFFFF4
:100DF000FC7FFFFFF87FFFFFFC7FFFFFF87FFFFF17
:100E0000F87FFFFFF8FFFFFFF00000000018000070
:100E10000C0002770001670001E58001E3C002A237
:100E2000C00782E01F41F99D807C3E005E76006A2B
:100E30003800362F805C36007E3F005810003C881A
:100E400000000000005B5D007B7D0097000A0093BE
:100E5000000A0097000A0000808B000A008C000A3C
:100E6000008C000A000080080B000202020000094A
:100E70000400000102020000052400100105240105
:100E80000101042402060524060001070581031060
:100E9000004009040100020A0000000705020240A8
:100EA000000007058302400000040309041201004A
:100EB00002EF02014041233680000101020301419B
:100EC000726475696E6F204C4C430041424C313363
:100ED00030360098000A0098000A0099000A008C39
:100EE000000A0090000A0091000A0094000A00978E
:100EF000000A000080FFFFFFFFFFFFFFFFFFFFFF73
:100F0000FFFFFFFFFFFFFFFFFFFFFFFFFFFFFFFFF1
:100F1000FFFFFFFFFFFFFFFFFFFFFFFFFFFFFFFFE1
:100F2000FFFFFFFFFFFFFFFFFFFFFFFFFFFFFFFFD1
:100F3000FFFFFFFFFFFFFFFFFFFFFFFFFFFFFFFFC1
:100F4000FFFFFFF00000000000FFFFFFFFFFFFFFBB
:100F5000FFFFFFFFFFFFFFFF0000FFFFFFFFFFFF9F
:100F6000FFFFFFF00000000200FFFFFFFFFFFFFF99
:100F7000FFFFFFFFFFFFFFFF0000FFFFFFFF00007D
:100F8000000000F00000000000F000FFFFFFFFFF86
:100F9000FFFFFFFFFFFFFFFF00000FFFFFFF00004D
:100FA0000000005000002000000080FFFFFFFFFF56
:100FB000FFFFFFFFFFFFFFFF00000FFFFFFF00002D
:100FC000000000F00000000000F000FFFFFFFFFF46
:100FD000FFFFFFFFFFFFFFFFFFFFFFFFFFFF000F10
:100FE000FFFFFFF00000000000FFFFFFFFFFFFFF1B
:100FF000FFFFFFFFFFFFFFFF000000000FFF000FDC
:10100000FFFFFFF00000000000FFFFFFFFFFFFFFFA
:10101000FFFFFFFFFFFFFFFF000000000FFF000FBB
:10102000FFFFFFFFFFFF4FFFFFFFFFFFFFFFFFFF80
:10103000FFFFFFFFFFFFFFFF000000000F000000A9
:101040002FFFFFFFFFF000FFFFFFFFFFFFFFFFFF8E
:10105000FFFFFFFFFFFFFFFF000020000400020072
:101060000FFFFFFFFFF000FFFFFFFFFFFFFFFFFF8E
:10107000FFFFFFFFFFFFFFFF000000000F00000069
:101080000FFFFFFFFFF000FFFFFFFFFFFFFFFFFF6E
:10109000FFFFFFFFFFFFFFFF000020000FFFFFFF2C
:1010A000FFFFFFFFFFF000FFFFFFFFFFFFFFFFFF5E
:1010B000FFFFFFFFFFF000FF000000000FFFFFFF3A
:1010C000FFFFFFFFFFF000FFFFFFFFFFFFFFFFFF3E
:1010D000FFFFFFFFFFF090FFFFFF4FFFFFFFFFFF4E
:1010E000FFFFFFFFFFF000FFFFFFFFFFFFFFFFFF1E
:1010F000FFFFFFFFFFF000FFFFF000FFFFFFFFFF1C
:10110000FFFFF000F2000009FFFFFFFFFFFFFFFFFE
:10111000FFFFFFFFFFFF4FFFFFF000FFFFFFFFFF9D
:10112000FFFFF00FFFF000FFFFFFFFFFFFFFFFFFDC
:10113000FFFFFFFFFFF000FFFFF000FFFFFFFFFFDB
:10114000FFFFF00FFFF000FFFFFFFFFFFFFFFFFFBC
:10115000FFFFFFFFFFF000F000F000FFFFFFFFFFC9
:10116000FFFFF00FFFF000FFFFFFFFFFFFFFFFFF9C
:10117000FFFFFFFFFFF0004000F000FFFFFFFFFF59
:10118000FFFFFFFFFFF000FFFFFFFFFFFFFFFFFF7D
:10119000FFFFFFFFFFF000F000F000FFFFFFFFFF89
:1011A000FFFFFFFFFFF000FFFFFFFFFFFFFFFFFF5D
:1011B000FFFFFFFFFFF000FFFFFF4FFFFFFFFFFFFD
:1011C000FFFFFFFFFFFF5FFFFFFFFFFFFFFFFFFFCF
:1011D000FFFFFFFFFFF020FF000000000FFFFFFFF9
:1011E000FFFFFFFFFF00000FFFFFFFFFFFFFFFFFFD
:1011F00000000000FFF000FF000000000FFFFFFFF5
:10120000FFFFF000000000000000FFFFFFFFFFFFF6
:1012100000000000FFF000FF000200000FFFFFFFD2
:10122000FFFFF000000000000000FFFFFFFFFFFFD6
:1012300000000000FFF0000F000000000FFFFFFFA4
:10124000FFFFF0002000000020000F000000000F52
:1012500000000000FFF00005000090000FFFFFFFFE
:10126000FFFFF00000000000000004000020000468
:1012700000002000FFF0000F000000000FFFFFFF44
:10128000FFFFF0000000000000000F000000000F52
:1012900000000000FFF000FF000002000FFFFFFF52
:1012A000FFFFF000000000000000FFFF0000FFFF54
:1012B00000000000FFF000FF000000000FFFFFFF34
:1012C000FFFFF000000000000000FFFFF00FFFFF35
:1012D00000000800FFF000FF000000000FFFFFFF0C
:1012E000FFFFFFFFFF00000FFFFFFFFFF00FFFFFFB
:1012F00000000000FFF000FFFFFF5FFFFFFFFFFFA8
:10130000FFFFFFFFFFFF4FFFFFFFFFFFF00FFFFF9C
:10131000FFFFFFFFFFF000FFFFF000FFFFFFFFFFF9
:10132000FFFFFFFFFFF000FFFFFFFFFFF00FFFFFDA
:10133000FFFFFFFFFFF202FFFFF000FFFFFFFFFFD5
:10134000FFFFFFFFFFF000FFFFFFFFFFF00FFFFFBA
:10135000FFFFFFFFFFF000F000F000FFFFFFFFFFC7
:10136000FFFFFFFFFFF020FFFFFFFFFFF00FFFFF7A
:10137000FFFFFFFFFFF0004080F000FFFFFFFFFFD7
:10138000FFFFFFFFFFF000FFFFFFFFFFF00FFFFF7A
:10139000FFFFFFFFFFF000F000F000FFFFFFFFFF87
:1013A000FFFFFFFFFFF000FFFFFFFFFFF00FFF0F4A
:1013B0000F0F0FFFFFF000FFFFF000FFFFFFFFFF29
:1013C000FFFFFFFFFFF000FFFFFFFFFFF000F00057
:1013D000000000FFFFF000FFFFF000FFFFFFFFFF36
:1013E000FFFFFFFFFFF000FFFFFFFFFFF0004000E7
:1013F000020090FFFFF0000000000000000FF0006E
:10140000000FFFFFFFF000FFFFFFFFFFF000F00005
:10141000000000FFFFF0000200000000200050006C
:1014200020007FFFFFF000FFFFFFFFFFFFFFFF0F28
:101430000F0F0FFFFFF0000000000000000FF00092
:10144000000FFFFFFFF000FFFFFFFFFFFFFFFFFFA9
:10145000FFFFFFFFFFFFFFFFFFFFFFFFFFFFFFFF9C
:10146000FFFFFFFFFFF000FFFFFFFFFFFFFFFFFF9A
:10147000FFFFFFFFFFFFFFFFFFFFFFF00F00F00F79
:10148000FFFFFFFFFFFF5FFFFFFFFFFFFFFFFFFF0C
:10149000FFFFFFFFFFFFFFFFFFFFF0000F00F0FF68
:1014A000FFFFFF0000F000F0000FFFFFFFFFFFFF56
:1014B000FFFFFFFFFFFFFFFFFFFFFFF00000FFFF49
:1014C000FFFFFF0100400040000FFFFFFFFFFFFF95
:1014D000FFFFFFFFFFFFFFFFFFFFFFFFFFFFFFFF1C
:1014E000FFFFFF0000F000F0000FFFFFFFFFFFFF16
:1014F000FFFFFFFFFFFFFFFFFFFFFFFF00FFFFFFFB
:10150000FFFFFFFFFFF000FFFFFFFFFFFFFFFFFFF9
:10151000FFFFFFFFFFFFFFFFFFFFFFFF00FFFFFFDA
:10152000FFFFFF0000F000F0000FFFFFFFFFFFFFD5
:10153000FFFFFFFFFFFFFFFFFFFFFFFFFFFFFFFFBB
:10154000FFFFFF0000400040000FFFFFFFFFFFFF15
:10155000FFFFFFFFFFFFFFFFFFFFFFFFFFFFFFFF9B
:10156000FFFFFF0000F000F0000FFFFFFFFFFFFF95
:10157000FFFFFFFFFFFFFFFFFFFFFFFFFFFFFFFF7B
:10158000FFFFFFFFFFF000FFFFFFFFFFFFFFFFFF79
:10159000FFFFFFFFFFFFFFFFFFFFFFFFFFFFFFFF5B
:1015A000FFFFFF0000000000000FFFFFFFFFFFFF35
:1015B000FFFFFFFFFFFFFFFFFFFFFFFFFFFFFFFF3B
:1015C000FFFFFF0000000000290FFFFFFFFFFFFFEC
:1015D000FFFFFFFFFFFFFFFFFFFFFFFFFFFFFFFF1B
:1015E000FFFFFF0000000000000FFFFFFFFFFFFFF5
:1015F000FFFFFFFFFFFFFFFFFFFFFFFFFFFFFFFFFB
:10160000FFFFFFFFFFFFFFFFFFFFFFFFFFFFFFFFEA
:10161000FFFFFFFFFF00081811241FBECFEFDAE025
:10162000DEBFCDBF11E0A0E0B1E0EEEEFDE502C00F
:1016300005900D92AE35B107D9F726E0AEE5B1E0E1
:1016400001C01D92A23EB207E1F71BE0CCE0DBE057
:1016500004C02197FE010E94102CCB30D107C9F79E
:101660000E942D180C94F52E0C94000080916C01B2
:101670000895E8E3F0E0E61BF10926E0EE0FFF1F16
:101680002A95E1F7E80FF11DF7FD3196F595E795FD
:10169000EB50F14FE491F0E080FF0AC080E09F0141
:1016A00002C0359527958A95E2F7C9018F70089594
:1016B00084E0F5CFE2E8F2E0A0E0B8E000800EBC04
:1016C0008111012C1197A0FDFDCF0192B9F70DB446
:1016D00008950F931F93CF93DF93EC01122F1D8674
:1016E0001C8620E4129FC0011124842B24E0880F63
:1016F000991F2A95E1F7862B99838883642F70E0E0
:1017000090E080E00E94C42920E030E040E05FE308
:101710000E9434286A837B838C839D83612F70E0D1
:1017200090E080E00E94C42920E030E040E05FE3E8
:101730000E9434286E837F83888799871A860B8757
:10174000CE01DF91CF911F910F910895BC0180E0F0
:1017500090E04EE050918102951760F5292F30E01E
:10176000811110C0429FF001439FF00D1124EB50F6
:10177000FE4F0190F081E02DE617F707C9F45150B4
:1017800050938102429FD001439FB00D1124AB5072
:10179000BE4F2F5F3F4F429FF001439FF00D11243A
:1017A000EB50FE4F842F01900D928A95E1F781E076
:1017B0009F5FD0CF0895FC018091F401882311F13F
:1017C0003FB7F89482E08093E9002091F200822FE5
:1017D00090E01816190614F481E090E0882339F09F
:1017E000289844E64093F3014091F100408322237E
:1017F00039F02091F200211103C02BE62093E8007C
:101800003FBF08958FEF9FEF08952FB7F89483E0BF
:101810008093E9009091E800892F807295FF04C0C1
:101820009091F20080E4891B2FBF08958091EB0115
:1018300081110DC082E08093E70184E08093E8018C
:101840001092EA011092E90181E08093EB0187EEAA
:1018500091E00895CF93DF931F92CDB7DEB76983F0
:10186000DC01ED91FC910280F381E02D41E050E03C
:10187000BE016F5F7F4F09950F90DF91CF91089563
:1018800083E08093E9008091F200882319F08AE3D5
:101890008093E80008950E94050C90E00895CF938E
:1018A000DF931F92CDB7DEB7FC018485958597FD48
:1018B00008C02FEF3FEF358724870F90DF91CF913E
:1018C0000895CE0101960E94DB0B019719F48981DE
:1018D00090E0F3CF8FEF9FEFF0CF0F931F93CF9355
:1018E000DF931F92CDB7DEB78C01FC01848595850F
:1018F00097FF0BC0CE0101960E94DB0B019771F49C
:10190000898190E0F80195878487F8018485958521
:101910000F90DF91CF911F910F9108958FEF9FEF5F
:10192000F1CFFC018485958597FD0BC09FB7F89496
:1019300082E08093E9008091F2009FBF90E00196E1
:1019400008959FB7F89482E08093E9008091F200B7
:101950009FBF90E008954091E1015091E2012091F4
:10196000DF013091E00142175307B4F49091E80091
:101970009570E1F39091E80092FD19C08093F10019
:101980008091E1019091E20101968F739927892B53
:1019900019F48EEF8093E8008091E1019091E201CB
:1019A00001969093E2018093E10181E0089580E047
:1019B0000895DF92EF92FF920F931F93CF93DF93DF
:1019C000D82E8A01EB017B01E40EF51ECE15DF0552
:1019D00059F0D7FE12C0FE0184910E94AB0C2196F3
:1019E0008111F4CF0FEF1FEFC801DF91CF911F914D
:1019F0000F91FF90EF90DF9008958881EECF0F93C5
:101A00001F93CF93DF931F92CDB7DEB782E0898318
:101A100042E450E067E67EE080E80E94D90C0E9434
:101A2000160CDC0112960D911C910115110589F01F
:101A3000D801ED91FC910280F381E02DBE016F5F32
:101A40007F4FC801099597FD04C0F80100851185F5
:101A5000ECCF89810F90DF91CF911F910F91089565
:101A6000615030F02091F100FC0120830196F8CF05
:101A7000289884E68093F3010895FC010E94D40D18
:101A8000319728F068517C4F8F4F9F4FF9CFAB01B2
:101A9000FC010E94D40D641775078E079F07C8F3D9
:101AA00008958F929F92AF92BF92CF92DF92EF9262
:101AB000FF920F931F93CF93DF936C017B018A01F9
:101AC00080910F01882309F45AC08091F401882382
:101AD00009F455C08091E60180FF05C08091E000C7
:101AE00082608093E000E801B12C8AEFA82E93E099
:101AF000892E2AE3922E209711F4BB20C9F10E946F
:101B0000050C811108C0AA94AA20C9F181E090E0D7
:101B10000E943D0DF0CF8C171D0611F00CF08C2F9C
:101B20009FB7F8948092E9002091E80025FD02C05B
:101B30009FBFE1CF282F30E0C21BD30BF7018150AC
:101B400020F041914093F100FACFE20EF31EBB204A
:101B500021F09092E800B12CEBCF8091E80085FD58
:101B6000E7CF9092E800BB24B394209709F3F3CF1A
:101B70005D9884E68093E501101611063CF081E043
:101B800090E0F6019383828310E000E0C801DF91CA
:101B9000CF911F910F91FF90EF90DF90CF90BF906A
:101BA000AF909F908F900895ABEDB1E02FB7F89470
:101BB0007D918D919C9166B52FBFA89B05C06F3F0D
:101BC00018F47F5F8F4F9F4F22E0660F771F881FAB
:101BD000991F2A95D1F70895AB01FC010E94D40DFD
:101BE00041505109E109F10928F068517C4F8F4FAC
:101BF0009F4FF6CFAB01FC010E94D40D641775070F
:101C00008E079F07C8F308952FB7F8946091D70106
:101C10007091D8018091D9019091DA012FBF089578
:101C200020916501E0916301F0916401CF0102967A
:101C30009093640180936301222319F0859194911C
:101C40000895808191810895CF92DF92EF92FF9263
:101C5000CF93DF930E94100E811520E8920791F434
:101C6000809171008D7F8093710010929100469851
:101C7000479810926201DF91CF91FF90EF90DF9033
:101C8000CF90089521E020936201813020E89207EF
:101C900051F480916001909161019093640180936F
:101CA00063010E94100E97FD05C020915F01222361
:101CB00009F454C020915E01211150C021E020930D
:101CC0006601EC01DF77209709F04BC081E080933B
:101CD000670146983FE9C32E3FE0D32EE12CF12C5B
:101CE000CAEFD0E0E091E006F091E106099581119C
:101CF00003C081E08093670180916601882329F009
:101D000080916701882309F43FC047980E94100E14
:101D10000097F1F19C01DE010E942428DC01CB0137
:101D200029E0B595A795979587952A95D1F71092B3
:101D300090002AE020939100D0929900C0929800E0
:101D40008093680190936901A0936A01B0936B013D
:101D5000809171008260809371008DCF1092660136
:101D6000B0CF9E0150E040E060E472E48FE090E08C
:101D70000E94D02769017A0181E0C81AD108E108E0
:101D8000F10810926701AECF4699BFCF479ABECFF8
:101D90008FEF9FEFDC01CBCF9C01E1E7F0E090817A
:101DA0009D7F908381E0809365013093640120934F
:101DB000630130936101209360010C94240E90E044
:101DC0000C943D0D8FB18095807F669B88601C9B35
:101DD000846008955C988EBD00000DB407FEFDCFB1
:101DE0005C9A089590E1282F81E061FD84E060FD18
:101DF000880F62FD8295687F969FD0011124A20F03
:101E0000AE57BD4F0C90082A40FF08260C9208954B
:101E1000CF92DF92EF92FF920F931F93CF93DF93B6
:101E2000EC016C01C60ED11C042F10E0065C1F4FA4
:101E3000CC15DD05D4F48AE3E82EF12CC801013479
:101E4000110514F080E490E0E816F90664F4C03857
:101E5000D1052CF440E0B701CE010E94F20E8FEFC5
:101E6000E81AF80AEBCF2196E3CFDF91CF911F91CB
:101E70000F91FF90EF90DF90CF900895CF93C82FF0
:101E80000E94E20E982F9C2381E09C1380E0CF916A
:101E9000089580E00C945A0B2F923F924F925F92DC
:101EA0006F927F928F929F92AF92BF92CF92DF926A
:101EB000EF92FF920F931F93CF93DF9300D000D048
:101EC0001F92CDB7DEB7C22ED12C9601280F391F35
:101ED000121613060CF067C0803891050CF063C031
:101EE00010E09801260F371F121613060CF05BC086
:101EF000603471050CF057C0EB823A012B011C01D4
:101F0000C60107969C0193E0359527959A95E1F7D0
:101F10003A832983B12CA12CF12CE12CE016F10697
:101F20000CF041C01D821C824701840C951CEC8181
:101F3000FD8183E0F595E7958A95E1F7EA0DFB1DB4
:101F4000E60DF71DE4918C819D818770992720E82B
:101F500030E002C0359527958A95E2F7C901F0E097
:101F6000E223F923EF2B79F08C819D81820D931D63
:101F70008038910540F430E48316910420F44B81BD
:101F8000B4010E94F20E8C819D8101969D838C8309
:101F90008C159D0564F29FEFE91AF90A29813A81AF
:101FA000A20EB31EBBCF0F900F900F900F900F900B
:101FB000DF91CF911F910F91FF90EF90DF90CF9025
:101FC000BF90AF909F908F907F906F905F904F9059
:101FD0003F902F900895E62FEE0FEE7083FB66275B
:101FE00060F9E62B483008F047E04295407FE40F67
:101FF000F0E0E057FE4F94918770E82FF0E0E8574B
:10200000FE4FE491E92381E009F480E008954F92C6
:102010005F926F927F928F929F92AF92BF92CF9278
:10202000DF92EF92FF920F931F93CF93DF93CDB781
:10203000DEB768970FB6F894DEBF0FBECDBF7C0148
:1020400003EB11E0D8012D913D914D915C91FC0184
:1020500060817181828193810E943328698B7A8BA0
:102060008B8B9C8BD80114962D913D914D915C9159
:102070001797F70164817581868197810E943328C3
:102080006D8B7E8B8F8B988FD80150968D919D9103
:102090000D90BC91A02D89879A87AB87BC87F801EA
:1020A000448455846684778480849184A284B38434
:1020B00084899589A689B7898D879E87AF87B88BD4
:1020C000A301920169857A858B859C850E94E92A06
:1020D0006B017C012D853E854F855889C501B40172
:1020E0000E94E92A9B01AC01C701B6010E94332876
:1020F0009B01AC0160E070E080E89FE30E941C2936
:102100006B017C0129893A894B895C89C301B20141
:102110000E94E92A2B013C012D893E894F89588D67
:10212000C501B4010E94E92A9B01AC01C301B201BF
:102130000E943328A70196010E94E92A162FAB01BD
:10214000BC0149835A836B837C836D857E858F8533
:102150009889905829893A894B895C890E94E92A93
:102160004B015C012D893E894F89588D69857A859F
:102170008B859C850E94E92A9B01AC01C501B401B5
:102180000E943428A70196010E94E92AE62F462FD3
:10219000572FBC014D835E836F837887212F3A814F
:1021A0004B815C816E2F7E818F81988568960FB6FA
:1021B000F894DEBF0FBECDBFDF91CF911F910F917D
:1021C000FF90EF90DF90CF90BF90AF909F908F9057
:1021D0007F906F905F904F90089587FD2EC067FDB0
:1021E0002CC0E62F062E000CFF0B98E3211101C036
:1021F00090E49E171F0609F104F1262F25952595D9
:10220000259550E8250390011124F901E80FF11DEF
:1022100087FDFA95CF01E091D101F091D201E80F4D
:10222000F91F2081677081E090E001C0880F6A95F6
:10223000EAF7442319F0822B808308958095822346
:10224000FBCF1F93CF93DF93182FC0E0C038C1F0AE
:10225000D0E0112341F0173058F020E040E06D2F1E
:102260008C2F0E94ED10DF5FD03499F7CF5FEECF57
:10227000412F6D2F8C2F0E94EB0F8823A1F3EDCF00
:10228000DF91CF911F9108959F92AF92BF92CF920D
:10229000DF92EF92FF920F931F93CF93DF93C82E9D
:1022A000B62EC0E0EC2FF0E0E75DFE4F8081841792
:1022B00021F0882311F0CF5FF5CF98E8E92E91E067
:1022C000F92EC0FF04C08CE8E82E81E0F82EC695F8
:1022D000D0E0C850DF4FD12CFE01A49010E000E008
:1022E0009B2C9D0CF701E00FF11FE491EA2139F0DE
:1022F00020E041E0692D8C2D800F0E94ED100F5FD2
:102300001F4F0430110571F7D3946896F6E0DF1281
:10231000E3CFDF91CF911F910F91FF90EF90DF906E
:10232000CF90BF90AF909F900895EF92FF920F9340
:102330001F93CF93DF93062F7A01C82F10E0D4E0CC
:10234000D20FC7FD0DC0F701E10FF11D44914423E9
:1023500039F0602F8C2F0E9444111F5FCD0FF1CFF9
:10236000DF91CF911F910F91FF90EF9008952F92E1
:102370003F924F925F926F927F928F929F92AF9215
:10238000BF92CF92DF92EF92FF920F931F93CF9362
:10239000DF93CDB7DEB72F970FB6F894DEBF0FBE31
:1023A000CDBFD82E6983598748873B872A87280164
:1023B00020E030E048EC52E4C501B4010E94E92A73
:1023C0000E948E293B015B0184E690E0B3010E94EC
:1023D000E12B162F611101C011E02EE38FE190E097
:1023E0002D153CF08D2DD7FC80E08595082E000C36
:1023F000990B8F589E4FFC01808124E6829FC0017B
:10240000112434E1369DA001379D500D112484170D
:10241000950708F4B4C02E9DC0012F9D900D112486
:10242000B5010E94E12B962E120183E0359427948A
:102430008A95E1F7E29CC001E39C900DF29C900D1F
:102440001124C89EA001C99E500D11245F834E83A4
:10245000249DC001259D900D11249D838C83E980CE
:10246000EE2D0E2E000CFF0BFD87EC8794E6492E17
:10247000512C2D2D0D2C000C330B3F872E872E2D2C
:102480003981231B291508F07AC030E08C859D85A1
:10249000820F931FC89708F070C02A9DC0012B9D22
:1024A000900D3A9D900D1124B2010E94E12B629D86
:1024B000C001639D900D11244E815F81480F591F0B
:1024C0005B834A838D2C81948C819D81B5010E9410
:1024D000E12B662EF12CF61408F04FC02F2D30E0C2
:1024E0008E859F85820F931F8038910508F042C02A
:1024F0002A9DC0012B9D900D3A9D900D1124B20193
:102500000E94E12B862F869586958695EA81FB8130
:10251000E80FF11DCF01EA85FB85E80FF91F249133
:102520006770772768577E4FFB013491E32FE223D2
:1025300009F128853985820F931FFC018491FB01E5
:102540006491E62FE82377247394E11101C0712C84
:102550000F2D0D0DC12C6E2D6C0D21E0472D802F00
:102560000E94ED10C3941C11F6CF0F5F882D800FD1
:10257000811780F3F10E811AAECFE10E80CF2F9636
:102580000FB6F894DEBF0FBECDBFDF91CF911F9184
:102590000F91FF90EF90DF90CF90BF90AF909F9002
:1025A0008F907F906F905F904F903F902F90089505
:1025B000FF920F931F93CF93DF9300D000D0CDB73E
:1025C000DEB7F82E1F926F938AE591E09F938F9369
:1025D0008E010F5F1F4F1F930F930E941D2C0F90B2
:1025E0000F900F900F900F900F90F80141918F0175
:1025F000442349F06AE38F2D0E944411F5E0FF0E59
:1026000080E88F1590F70F900F900F900F90DF914B
:10261000CF911F910F91FF900895CF93DF9346E0E4
:102620006FE08CE090E00E94080F46E065E082E3F6
:1026300090E00E94080FC3EBD1E06C8D8CE00E940B
:10264000D8126D8D82E3DF91CF910C94D8128F92C6
:102650009F92AF92BF92CF92DF92EF92FF92CF9371
:10266000DF93EC017B01FB012081318142815381A9
:10267000688179818A819B810E9433284B015C01AA
:10268000F70124813581468157816C817D818E815E
:102690009F810E9433286B017C01A5019401C50133
:1026A000B4010E94E92A4B015C01A7019601C70110
:1026B000B6010E94E92A9B01AC01C501B4010E9448
:1026C00034280E94642B20E030E040EA51E40E946C
:1026D000E92A0E949529862FDF91CF91FF90EF90F4
:1026E000DF90CF90BF90AF909F908F9008952F92E2
:1026F0003F924F925F926F927F928F929F92AF9292
:10270000BF92CF92DF92EF92FF920F931F93CF93DE
:10271000DF93CDB7DEB72C970FB6F894DEBF0FBEB0
:10272000CDBF1C014A015B01280139011E2DFC01AE
:102730002081318142815381CB01B4010E94342830
:102740000E948E2969877A878B879C87F985F03468
:1027500008F042C0F1012481358146815781C301CF
:10276000B2010E9434280E948E296B01F8E3F6170B
:1027700098F189850E94390B8F3071F583ED9EE0C9
:102780000E94CC0E96E0CC0CDD1C9A95E1F70985F1
:102790001A8511270C291D2924E0000F111F2A95E5
:1027A000E1F70F60C8012C960FB6F894DEBF0FBE9C
:1027B000CDBFDF91CF911F910F91FF90EF90DF90F0
:1027C000CF90BF90AF909F908F907F906F905F90D1
:1027D0004F903F902F90089511114EC0D12C8EE054
:1027E000C82E80918102D81608F046C02D2D30E009
:1027F000DC9CC001112489509E4F28163906D1F166
:10280000C29EC001C39E900D11249C012B503E4FCF
:102810007901F90100811181802F8F70823051F58B
:1028200082858550823030F1A501940162817381E7
:10283000848195810E94332869837A838B839C836A
:10284000A3019201F70166817781808591850E94BD
:1028500033286D837E838F839887BE016F5F7F4FA0
:10286000C1010E942713843028F4F7019485891749
:1028700008F498CFD394B5CF10E000E093CF4F92F7
:102880005F926F927F928F929F92AF92BF92CF9200
:10289000DF92EF92FF920F931F93CF93DF93EC01A0
:1028A0002A013B014801590100E010E098010E9413
:1028B00077136C019501840140E050E0BA01CE012C
:1028C0000E9477138C01CD2809F5A301920168813C
:1028D00079818A819B810E943428688379838A83E5
:1028E0009B83012B11F181E090E0DF91CF911F914B
:1028F0000F91FF90EF90DF90CF90BF90AF909F909F
:102900008F907F906F905F904F900895892B59F72B
:10291000A50194016C817D818E819F810E94342864
:102920006C837D838E839F83DECFA50194016C81B0
:102930007D818E819F810E9434286C837D838E836C
:102940009F8380E0D1CF1F920F920FB60F92112478
:102950008F939F938091E1009091E100937F9093FA
:10296000E10083FF0FC01092E90091E09093EB002B
:102970001092EC0092E39093ED001092F40198E035
:102980009093F00082FF22C093E09093E900909131
:10299000F200992319F09AE39093E8009091E501F1
:1029A000992341F09091E50191509093E5019111A7
:1029B00001C05D9A9091F301992341F09091F30148
:1029C00091509093F301911101C0289A84FF18C08F
:1029D0008091E2008E7E81608093E2008091E10030
:1029E0008F7E8093E1008091E6018E7E80618093EE
:1029F000E6019F918F910F900FBE0F901F90189539
:102A000080FFF7CF8091E2008E7E80618093E200AC
:102A10008091E1008E7E8093E1008091E6018E7EC0
:102A20008160E5CF1F920F920FB60F921124CF92C3
:102A3000DF92EF92FF920F931F932F933F934F9349
:102A40005F936F937F938F939F93AF93BF93EF9316
:102A5000FF93CF93DF93CDB7DEB76C97DEBFCDBFCB
:102A60001092E9008091E80083FF25C068E0CE0164
:102A700045960E94300D82EF8093E8008D8987FF94
:102A800039C09091E80090FFFCCF982F907609F024
:102A900034C19E894F89588D2F89F88C911131C08E
:102AA000803861F58091E4018093F1001092F1008B
:102AB0008EEF8093E8006C960FB6F894DEBF0FBEE1
:102AC000CDBFDF91CF91FF91EF91BF91AF919F91DA
:102AD0008F917F916F915F914F913F912F911F91B6
:102AE0000F91FF90EF90DF90CF900F900FBE0F905F
:102AF0001F9018959EEF9093E800C7CF1092F100B9
:102B0000D5CF913059F48111D3CF4130510581F6A1
:102B10008091E4018D7F8093E401CACF933049F422
:102B20008111C6CF4130510519F68091E4018260D0
:102B3000F2CF953041F48091E80080FFFCCF20680F
:102B40002093E300B5CF963009F0A9C00B8D1C8D02
:102B500022E01092E9001092E2011092E101F212DB
:102B60002EC01092E0011092DF010E94FF0C1F8224
:102B700099E09983FA8291E09E8390EA98879AEF90
:102B800099872091E1013091E201275F3F4F3C831B
:102B90002B838D831092E9001092E2011092E101E3
:102BA0001093E0010093DF0149E050E0BE016F5F48
:102BB0007F4F80E00E94D90C0E94FF0C79CF1093C8
:102BC000E0010093DF010E94160CDC0112960D91CA
:102BD0001C910115110509F451C1D801ED91FC9129
:102BE0000480F581E02DBE016B5E7F4FC801099521
:102BF000009709F03EC1F80100851185EACFF3E0A6
:102C0000FF120EC08F89882309F440C0823061F41E
:102C100040E867E08BEC9EE00E94D517811148CF19
:102C200081E28093EB0047CF813029F440E86BE0EC
:102C30008FEB9EE0F1CF833099F70E94160CDC01F8
:102C40001296ED90FC908E010F5F1F4F6801E1140A
:102C5000F10479F0D701ED91FC910680F781E02D28
:102C6000B801C7010995080F111DF701E084F1842F
:102C7000EECFD8011C92F60101900020E9F73197C0
:102C8000BF016C197D0940E0C601C6CF69EA7EE04C
:102C9000FB01449150E080E80E94D90C09CF9730A5
:102CA00009F4BECF983021F481E08093F10000CF89
:102CB000993009F0FDCE837009F0B2CFE1E1F1E087
:102CC00081E031E096E32191222371F08093E900C5
:102CD0003093EB00DF0111972C912093EC0090933F
:102CE000ED008F5F873079F78EE78093EA001092CE
:102CF000EA008F898093F401DBCE8B8D9C8D10923E
:102D0000E9001092E2011092E1019093E0018093BA
:102D1000DF01898D811192C08E899D89913A49F494
:102D2000813209F07DCF47E050E068E071E080E05B
:102D3000B3CF913209F074CF833269F48F89988DC3
:102D4000B0E0A0E08093040190930501A0930601F8
:102D5000B0930701ADCE803269F48091E80082FF24
:102D6000FCCF67E088E091E00E94300D8BEF80930C
:102D7000E8009ECE823209F09BCE8F8980930F01AE
:102D8000EEEFFFE7859194918B3F9C4D51F1E0E090
:102D9000F8E08091080190910901A0910A01B09199
:102DA0000B01803B9440A105B105F1F480910F0126
:102DB00080FD1AC0EE3F8AE0F80789F587E797E7BC
:102DC00091838083809160008093E30188E19BE0A0
:102DD0000FB6F894A895809360000FBE90936000A2
:102DE00067CEEEEFFAE0D5CF8081918187379747A4
:102DF00009F05ECEA89580916000886180936000A4
:102E00008091E30180936000EE3F2AE0F20789F0B1
:102E10008091FE0A9091FF0A9183808349CE808140
:102E200091818737980751F29093FF0A8093FE0AA9
:102E3000C5CF1092FF0A1092FE0A3ACE0E94160CDD
:102E4000DC0112960D911C910115110509F4E8CED3
:102E5000D801ED91FC910190F081E02DBE016B5EF7
:102E60007F4FC8010995811123CEF8010085118596
:102E7000EBCF181619060CF41BCED2CEF1E0FF12E0
:102E8000BECE6DEA7EE004CF0F920FB68F939F9374
:102E9000EF93FF938091D6018D5F8D3708F08D57AA
:102EA0008093D601E7EDF1E080818E4F80839181A0
:102EB0009F4F918382818F4F828383818F4F838342
:102EC000EBEDF1E080818F5F808381818F4F818383
:102ED00082818F4F828383818F4F83838FB18F60F5
:102EE00066991C9B88278F3681F48091D501981BA9
:102EF000963068F0E0E0F8E087E78083818388E13E
:102F000080936000F0936000FFCF9093D501FF9114
:102F1000EF919F918F910FBE0F9018951F920F9276
:102F20000FB60F9211242F933F934F935F936F939C
:102F30007F938F939F93AF93BF93EF93FF93809172
:102F4000680190916901A0916A01B0916B010097AD
:102F5000A105B10539F120916701211105C0369A0B
:102F6000209166012111379A0197A109B109B7FD96
:102F700008C08093680190936901A0936A01B0939F
:102F80006B01FF91EF91BF91AF919F918F917F91D5
:102F90006F915F914F913F912F910F900FBE0F90C6
:102FA0001F9018950E94240EECCFEF92FF920F9382
:102FB0001F93CF93DF93F82E192FE62E042F81E075
:102FC000860F880F0E94AB0C83E00E94AB0CCF2DC4
:102FD000D12FEC0EFD2EF11CCE15DF05B9F007FF49
:102FE00013C0FE0184910E94AB0C182F80E00E9458
:102FF000AB0C812321968111EFCFDF91CF911F91EF
:103000000F91FF90EF9008958881EDCF81E0F5CF8B
:10301000E2E8F6E01382128288EE93E0A0E0B0E0EE
:1030200084839583A683B7838BE191E0918380832A
:103030008FEF9FEF9587848786E39BE09093E1066F
:103040008093E00680E090E89093DF068093DE06B0
:1030500046983E9A47983F9A0895CDB7DEB7CC552B
:10306000D109DEBFCDBF789483E084BD83E085BD08
:1030700081E080936E00E1E8F0E083E08083E0E8A7
:1030800081E08083E1E983E08083E0E981E080837F
:10309000E1EC87E08083E3EC81E08083E0EC82E098
:1030A0008083E2EC81E08083EAE787E080838068C8
:1030B00080831092F4011092E4011092E601809155
:1030C000D70081608093D70080EA8093D80089B5CB
:1030D000806189BD89B5826089BD09B400FEFDCFDC
:1030E00081E090E00E943D0D8091D8008F7C80614E
:1030F0008093D8008091E000807F8093E0008091F1
:10310000E1008E7E8093E1008DE08093E200559A8D
:10311000209A81EC80937C0081EF85B987EE84B999
:1031200082E38BB982EF8AB9769A6E9880EF81BB81
:1031300010BA80E58CBD81E08DBD85E00E94DF0E78
:103140005F9A85E00E94DF0E5C98E0E1F2E08591F5
:103150008EBD00000DB407FEFDCFED31C1F75C9AC6
:1031600081E88093640080916500816080936500B0
:103170000E94490F1EEF0E94E20E8AE090E00E943A
:103180003D0D1150C1F780E80E943E0F882381F069
:1031900085EA0E94EA0E2E982F982D98809164005F
:1031A00080628093640081E083BF889513BEFCCF6A
:1031B00084E00E943E0F8823B9F12D9884E80E9494
:1031C0003E0F8823A1F02D9A88EC0E94DF0E2F98E5
:1031D0006FEF82E090E00E94BE2784EF91E00E94B2
:1031E0003D0D2F9A84E80E943E0F8111FBCF84E1B0
:1031F0000E943E0F8823A1F02D9A88EC0E94DF0EDA
:103200002E9860E082E090E00E94BE2784EF91E07B
:103210000E943D0D2E9A84E10E943E0F8111FBCF4A
:1032200088EC0E94DF0EC4CF2D9A82E090E00E94CD
:10323000B627882309F45AC03E9A3F9A81E08093CA
:103240006C0181E090E00E94B627282F2470D22ED6
:1032500081FF0CC021112E9801EF1FEF80E40E9426
:103260003E0F882309F447C02E9A2F9A82E30E94CA
:10327000DF0E0E94E20E8111F9CF22E832E0982F92
:10328000F90191119FEF8FEF919391939193919306
:103290008150D0F73093D2012093D10140E450E027
:1032A0006FEF70E081E791E00E94162C8091D401CD
:1032B000882309F490C0813009F4B7C010E0812F51
:1032C0000E9421110E94490F68E270E080E090E0C6
:1032D0000E94EC0D1F5F183091F71092D30180E02F
:1032E00090E0892B19F30E940000E0CF10926C014E
:1032F0003E983F98A6CFDD2029F00430110511F447
:103300002E9A2F9881E00E945A0B302F3770C32ECF
:10331000980153E0359527955A95E1F7C90196959F
:10332000982F8827979587958E579D4F70E060E07E
:103330002E3F4FEF340781F17C0154E9E50EF11C7B
:10334000DC0150E040E0FB01E35EFD4F5F01F50171
:10335000E40FF51FE491F0E03F010C2C02C0660C75
:10336000771C0A94E2F72F3F320739F054969C906D
:103370005497962854969C925497CC2021F0F701AC
:103380009080972890824F5F5F4FFFEFEF1AFF0A00
:10339000119648355105D9F62F5F3F4F80589F4F02
:1033A000685A7F4F603B710509F0C2CF0E94490FF8
:1033B0008FE00E94DF0E0F5F1F4F0931110509F0EA
:1033C0004DCFDD2011F02F9A2D9880E991E00E94D9
:1033D0003D0D2D9A4BCFEE24E3940FE228E448ED07
:1033E00052E065E070E08CE190E00E944C0F68EEE6
:1033F00073E080E090E00E94EC0D21E04DEC52E0A3
:1034000063E387E20E9495110E94490F11E08091C9
:10341000D301811153CF88E00E943E0F8823B9F376
:103420001093D4011093D301F2CF08E310E00933D5
:1034300008F033C2602F812F0E94390B813009F0D0
:103440002CC2EBECF1E086E0DF011D928A95E9F7F2
:10345000612F70E090E080E00E94C42920E030E01D
:1034600040E05FE30E9434286093B3017093B4019D
:103470008093B5019093B601602F70E090E080E0FA
:103480000E94C42920E030E040E05FE30E9434283D
:103490006093B7017093B8018093B9019093BA011A
:1034A00020E030E040E85FE32093BB013093BC01B3
:1034B0004093BD015093BE011092BF011092C00114
:1034C0001092C1011092C2011092C3011092C40166
:1034D0001092C5011092C60183EC95EFA8E2BFEBF4
:1034E0008093C7019093C801A093C901B093CA010A
:1034F00084E68093CF0119A621961FAE21971DAABD
:1035000037E03EA70E94040EC0906D01D0906E017E
:10351000E0906F01F09070016C197D098E099F0990
:103520000E94C42925E535E545E852E40E941229A8
:1035300087FDE8CF0E94040E6C197D098E099F0952
:103540000E94C42925E535E545E852E40E941C297E
:103550006093000170930101809302019093030135
:103560000E94040E60936D0170936E0180936F0151
:1035700090937001E091D101F091D20180E893E045
:10358000DF019C011D9221503040E1F78091CF0175
:10359000882309F441C380E80E943E0F882309F480
:1035A00082C1C090CB01D090CC01E090CD01F090D1
:1035B000CE01A70196016DEC7CEC8CE49EE30E94A9
:1035C00033282DEC3CEC4CEC5EE30E94E92AA70189
:1035D00096010E9434286B017C01C092CB01D092ED
:1035E000CC01E092CD01F092CE0120E030E0A901C3
:1035F0000E94DC2A18160CF079C120E030E040EA85
:1036000050E4C701B6010E94E92A6AA77BA78CA7EC
:103610009DA780E40E943E0F882309F46FC12FE824
:1036200032EC45EF5DE36091000170910101809102
:103630000201909103010E94E92A6B017C018090B4
:10364000BB019090BC01A090BD01B090BE010E9452
:1036500017292B013C014091BF015091C00160919D
:10366000C1017091C2014D8F5E8F6F8F78A3C7012A
:10367000B6010E94562B69A37AA38BA39CA3A30136
:103680009201C501B4010E94E92A6DA37EA38FA314
:1036900098A729A13AA14BA15CA16D8D7E8D8F8D3C
:1036A00098A10E94E92A9B01AC016DA17EA18FA186
:1036B00098A50E9434286093BB017093BC0180934D
:1036C000BD019093BE01C701B60190580E94562BD0
:1036D0006DA37EA38FA398A79B01AC01C501B40184
:1036E0000E94E92A6B017C012D8D3E8D4F8D58A1E2
:1036F000C301B2010E94E92A9B01AC01C701B601D6
:103700000E9434286093BF017093C0018093C1016F
:103710009093C2018090C3019090C401A090C50114
:10372000B090C601C090C701D090C801E090C90117
:10373000F090CA01A5019401C301B2010E94E92AD7
:103740006D8F7E8F8F8F98A3A701960169A17AA1B3
:103750008BA19CA10E94E92A9B01AC016D8D7E8DFD
:103760008F8D98A10E9434286093C3017093C40187
:103770008093C5019093C601A50194016DA17EA11E
:103780008FA198A50E94E92A4B015C01A70196012F
:10379000C301B2010E94E92A9B01AC01C501B40139
:1037A0000E9434286093C7017093C8018093C901B7
:1037B0009093CA010E94040E0E94C4292AE037EDAA
:1037C00043EA5BE30E94E92A0E94562B20E030E0A6
:1037D000A9010E94DC2A18160CF045C10E94040EB3
:1037E0000E94C4292AE037ED43EA5BE30E94E92AFC
:1037F0000E94562B20E030E040EC50E40E94E92A81
:103800009B01AC016AA57BA58CA59DA50E94E92A18
:1038100069A37AA38BA39CA32DEC3CEC4CEB50E466
:103820000E94DC2A18166CF421965FAD219755236F
:1038300009F427C189E59EE00E94CC0E21961FAEB7
:10384000219779A5733108F425C1715079A7C090EB
:10385000CB01D090CC01E090CD01F090CE0120E0E2
:1038600030E0A901C701B6010E94DC2A18160CF04D
:1038700002C226EA3BE944E45BE3C701B6010E94C9
:10388000DC2A18160CF401C21092CB011092CC0164
:103890001092CD011092CE012BC21F5F103409F09F
:1038A000C6CD0150C3CD80E10E943E0F882379F040
:1038B000C090CB01D090CC01E090CD01F090CE0132
:1038C000A70196016DEC7CEC8CE49EEB78CE20E0B9
:1038D00030E040E05FE36091CB017091CC018091DA
:1038E000CD019091CE010E94E92A75CEC701B601A3
:1038F000905820E030E040EA50E485CE80E20E941B
:103900003E0F882309F456CF2FE832EC45EF5DE3F4
:103910006091000170910101809102019091030179
:103920000E94E92A4B015C01C090BB01D090BC0110
:10393000E090BD01F090BE010E9417296D8F7E8F2F
:103940008F8F98A34090BF015090C0016090C1013B
:103950007090C201C501B4010E94562B69A37AA3DD
:103960008BA39CA32D8D3E8D4F8D58A1C701B60111
:103970000E94E92A4B015C0129A13AA14BA15CA15B
:10398000C301B2010E94E92A9B01AC01C501B40147
:103990000E9433286093BB017093BC018093BD01EA
:1039A0009093BE0129A13AA14BA15CA1C701B60128
:1039B0000E94E92A6B017C01A30192016D8D7E8D2D
:1039C0008F8D98A10E94E92A9B01AC01C701B60125
:1039D0000E9434286093BF017093C0018093C1019D
:1039E0009093C2018090C3019090C401A090C50142
:1039F000B090C601C090C701D090C801E090C90145
:103A0000F090CA01A50194016D8D7E8D8F8D98A1D6
:103A10000E94E92A2B013C01A701960169A17AA124
:103A20008BA19CA10E94E92A9B01AC01C301B201B8
:103A30000E9433286093C3017093C4018093C50131
:103A40009093C601A501940169A17AA18BA19CA1C3
:103A50000E94E92A4B015C01A70196016D8D7E8DC4
:103A60008F8D98A197CE0E94040E0E94C4292AE04F
:103A700037ED43EA5BE30E94E92A0E94562B9058F7
:103A8000B9CE8BE49EE00E94CC0E61E021966FAF30
:103A90002197D7CE89A5823119F08E5F89A7D7CE1D
:103AA0009DA988E091110C940C270E943E0F8DABCC
:103AB000882309F4CCCE8FE794E00E94CC0E00E07E
:103AC0001EE044E0B42E80918102081708F0D0C0B7
:103AD000802E912C189DF001199DF00D1124EB50B2
:103AE000FE4F80818F70823051F582858550823003
:103AF00030F1019FC001112489509E4F0E94071090
:103B000029833A834B835C836D837E838F8398877D
:103B1000C980DA80EB80FC8020E030E0A901C70199
:103B2000B6010E94DC2A181664F020E030E040EA7A
:103B300051ECC701B6010E94DC2A181664F00F5F31
:103B4000C2CF20E030E040EA51E4C701B6010E9454
:103B5000122987FFF4CF20E030E0A9016D817E813A
:103B60008F8198850E94DC2A18164CF720E030E0FF
:103B7000A901C701B6010E94DC2A181624F0F7FA41
:103B8000F094F7F8F094189DF001199DF00D1124B0
:103B9000EB50FE4F648570E090E080E00E94C62903
:103BA000A70196010E94E92A9B01AC0160E070E048
:103BB00080E791E40E941C2920E030E040EA50E4D4
:103BC0000E941C296B017C0120E030E040E751E4B9
:103BD0000E94DC2A1816F4F0C701B6010E9495294C
:103BE000662309F4ACCF189DF001199DF00D112446
:103BF000EB50FE4F8385861B990B97FD80E08387F2
:103C0000189DF001199DF00D1124EB50FE4FB28666
:103C1000B58695CF6FE0E7CF20E030E040E251EC91
:103C200069A17AA18BA19CA10E94DC2A1816ACF490
:103C300020E030E040E85FE369A17AA18BA19CA17C
:103C40000E94332869A37AA38BA39CA3A9A5A230C1
:103C500008F4FDCDA250A9A7FACD88E00E943E0F3E
:103C60008823A1F31092D40181E08093D301EECF99
:103C7000B6E1B9A7ECCD26EA3BE944E45BEBC7012A
:103C8000B6010E94122987FFFFCD8090000190901D
:103C90000101A0900201B09003012091BF01309179
:103CA000C0014091C1015091C201C701B6010E94FB
:103CB000E92AA50194010E94E92A2B013C012091E7
:103CC000BB013091BC014091BD015091BE01C701C3
:103CD000B6010E94E92AA50194010E94E92AAB01DC
:103CE000BC01E12C9301820183EB91E00E943F141F
:103CF000212C3EE0332E00918102201608F0C4C131
:103D0000622C712C239C70011124F701E950FE4FA5
:103D1000FE8FED8FBF0183EB91E00E942713F70127
:103D2000EB50FE4F84879585992311F0915095872C
:103D3000893C60F0369CF001379CF00D1124EB506B
:103D4000FE4F808191810E94A60BD5CF369C9001B9
:103D5000379C300D1124A9014B505E4F6A01DA01E6
:103D60001A962C911A97263011F42394C4CFFA0195
:103D700090819F70983009F45DC188F49230A9F762
:103D80001B969C911B97911120C0253071F385E003
:103D90001A968C931A97E6E01D96EC93E6CF99302D
:103DA00009F461C19A3009F7823008F003C18091AB
:103DB000CF01843108F484E184518093CF01E1E0A4
:103DC000E093B2010E940D13B5CF243071F4D601F7
:103DD0001D968C911D978111C8CFE1E01A96EC9346
:103DE0001A9788E21D968C93C0CF223081F399EF09
:103DF000980F369CF001379CF00D1124EB50FE4FCC
:103E0000993408F0B3C0213029F021E0228734E151
:103E10003587ABCF1585111133C086809780A0847C
:103E2000B184C280D380E480F5800A3010F00C9415
:103E30006327C501B4010E949529562EC701B6011A
:103E40000E949529462E40E4549EC00111248429E5
:103E500024E0880F991F2A95E1F78A6025EF31E069
:103E6000011709F4DEC7225F3F4FF9013E974081F9
:103E700051814817590711F40C9463271F5FF0CF45
:103E8000C090B701D090B801E090B901F090BA01AC
:103E900086809780A084B184A5019401C701B601F2
:103EA0000E94DC2A2AE037ED43EA5CE318167CF036
:103EB000A5019401C701B6010E9412292AE037ED3D
:103EC00043EA5CEB87FD03C020E030E0A901C0902D
:103ED0000001D0900101E0900201F0900301C701C0
:103EE000B6010E94E92A6DA37EA38FA398A78090B4
:103EF000B3019090B401A090B501B090B601369C8A
:103F0000F001379CF00D1124EB50FE4F428053809E
:103F100064807580A3019201C501B4010E94DC2A6E
:103F20002AE037ED43EA5CE318167CF0A301920126
:103F3000C501B4010E9412292AE037ED43EA5CEB87
:103F400087FD03C020E030E0A901C701B6010E944F
:103F5000E92AAB01BC01EE24E3940DA11EA12FA11F
:103F600038A58D8D9E8D0E943F14FFCE873000F5C1
:103F7000233029F093E09287AAE0A587F6CE8585C5
:103F80008111F3CE8091CF01883008F488E0885009
:103F90008093CF01369CF001379CF00D1124EB503B
:103FA000FE4F3586B1E0B093B2010E940D13DDCE15
:103FB0001286DBCE1B966C9170E090E080E00E9450
:103FC000C42920E030E044E352E40E941C292BED98
:103FD0003FE049E450E40E94E92A2B013C010E94A1
:103FE000562B4B015C01C301B2010E9417292B0122
:103FF0003C012DEC3CEC4CE45EE3C501B4010E94B5
:10400000E92A4B015C012DEC3CEC4CE45EE3C3017E
:10401000B2010E94E92AAB01BC01EE24E3949501B0
:1040200084018D8D9E8D0E943F14892B09F49DCEB5
:10403000F60187CE863008F098CE8BE296E00E949B
:10404000CC0EE6E0D6011A96EC938091CF01833333
:1040500008F082E38E5C8093CF010E940D13F1E0A3
:10406000F093B20182CE863008F07FCE81EC94E0EE
:104070000E94CC0EE6E0D6011A96EC938091D00116
:104080008F5F8093D001E9CF20E030E048EC52E42C
:1040900069A17AA18BA19CA10E94E92A0E948E2984
:1040A0008B0120E030E048EC52E46091BF01709158
:1040B000C0018091C1019091C2010E94E92A0E9431
:1040C0008E292B967FAF6EAF2B9720E030E048EC27
:1040D00052E46091C7017091C8018091C90190912B
:1040E000CA010E94E92A0E948E292D967FAF6EAFE9
:1040F0002D9720E030E048EC52E46091B7017091D8
:10410000B8018091B9019091BA010E94E92A0E94F8
:104110008E296B0129967FAF6EAF2997CB0164E69C
:1041200070E00E94F52B2E966FAF2E979B013327E0
:1041300044E6649FB00111246C597F4F6C197D09CE
:10414000CB01770FAA0BBB0B66968CAF9DAFAEAFC2
:10415000BFAF66974CE94203C001439F900D112405
:10416000DC01AC0DBD1DBFABAEAB9D01032E000C41
:10417000440B550B62962CAF3DAF4EAF5FAF6297CD
:10418000212C26961FAE1EAE2697B195A195B1099A
:104190006996BFAFAEAF6997A801110F660B770B99
:1041A0006D964CAF5DAF6EAF7FAF6D9720E030E0A6
:1041B00048EC52E46091B3017091B4018091B50173
:1041C0009091B6010E94E92A0E948E2969AB7AABD0
:1041D0008BAB9CABE9A8FAA82696CEACDFAC2697B1
:1041E000CC0CCD2CCC1CDD0854E6C51AD10820E03F
:1041F00030E048EC52E46091C3017091C4018091B9
:10420000C5019091C6010E94E92A0E948E29C69E8E
:104210009001C79E300DD69E300D1124C90164E671
:1042200070E00E94F52B8B0120E030E048EC52E476
:104230006091BB017091BC018091BD019091BE0164
:104240000E94E92A0E948E29600F711FCB01770F0F
:10425000AA0BBB0B8DA39EA3AFA3B8A72D96AEADA3
:10426000BFAD2D97AC9DC001AD9D900DBC9D900D37
:10427000112464E670E00E94F52B2B96EEADFFADA5
:104280002B976E0F7F1F9B01770F440B550B2D8FC4
:104290003E8F4F8F58A3C70164E670E00E94F52B54
:1042A000362E8B01112734E6639F500111244DA156
:1042B0005EA16FA178A5452B462B472B09F437C685
:1042C00060E177E280E090E02DA13EA14FA158A5EA
:1042D0000E94D02769017A011C141D041E041F04CA
:1042E00064F060EF78ED8FEF9FEF2DA13EA14FA11D
:1042F00058A50E94D02769017A016D8D7E8D8F8D22
:1043000098A1F0E44F2EF2E45F2EFFE06F2E712CA7
:10431000672B682B692BE9F060E177E280E090E0A1
:104320002D8D3E8D4F8D58A10E94D02729013A0135
:10433000141415041604170464F060EF78ED8FEF81
:104340009FEF2D8D3E8D4F8D58A10E94D0272901C2
:104350003A018DA19EA1AFA1B8A5B7FF65C12CE917
:104360002003D001219FB00D1124E9A9FAA9AE0FB5
:10437000BF1FA70196010E94FA2724E630E040E023
:1043800050E00E94D02728AF39AF4AAF5BAFFFEFB4
:104390002296FFAF22974D8D5E8D6F8D78A177FFAE
:1043A0005DC162962CAD3DAD4EAD5FAD6297C30170
:1043B000B2010E94D12B24E630E040E050E00E94A0
:1043C000D0272CAF3DAF4EAF5FAF5FEF23965FAF0F
:1043D000239729A93AA92A193B0937FF03C0319528
:1043E000219531094EA95FA957FF04C069964EADCA
:1043F0005FAD6997C901241735070CF4CA01C2964D
:10440000421753070CF49A01359527953595279552
:10441000820F931F64E670E00E94F52B67966FAFE2
:104420006797AFA4B8A82E969FAC2E977CE02796EE
:104430007FAF2797EEE08E2E28AD39AD4AAD5BAD4C
:104440006CAD7DAD8EAD9FAD261737074807590778
:104450000CF02CC12C0D3D1D4E1D5F1D28AF39AF3A
:104460004AAF5BAF22967FAD2297370E10E0AFE3E5
:10447000A31508F45DC1B8E3B91508F459C1692D55
:10448000832D0E94390B8F3009F022C111116AC1AE
:104490004DA15EA16FA178A5452B462B472B09F4B2
:1044A00089C122965FAD22976CE95602D001112492
:1044B000AC59BF4FB595A79574E6379EC00111243E
:1044C000E9A9FAA98E1B9F0BA80FB91F24E630E0BB
:1044D0000E94092C2DA13EA14FA158A50E94D027D2
:1044E00049015A017BEF871674E09706A104B104D5
:1044F0000CF067C1CA01B90125E030E040E050E0AE
:104500000E94D027E22DE695F0E0EF58FE4F208381
:1045100081EB881684E09806A104B10434F020EB06
:10452000822E24E0922EA12CB12C94E689169104BF
:10453000A104B1042CF494E6892E912CA12CB12C69
:10454000A50194012F5F3F4F4F4F5F4F60EE75E124
:1045500080E090E00E94D027E22EE6946D966CAD4C
:104560007DAD8EAD9FAD6D97A50194010E94D027C2
:10457000245E022F0E19E20E110F88E0F82EF11AB8
:10458000C501B4012AE63FEF4FEF5FEF0E94D0274D
:10459000F20EA02EE0160CF4AE2CA7FCA12C0E15EA
:1045A0000CF40E2D07330CF007E312E0912E920C61
:1045B000E22CB12C1A2DCE2CD12C01170CF403C1F6
:1045C000A12FA7702496AFAF249780E0FF2049F079
:1045D000B6E081E0BF1528F04F2D612F8E2D0E948F
:1045E000EB0F90E024960FAC249702C0880F991F20
:1045F0000A94E2F7B82A2496EFAD2497E73091F4B5
:10460000E12FE695E695E695F0E8EF9FC0011124CD
:10461000E091D101F091D201E80FF91FEC0DFD1DE1
:10462000B082B12C1F5FC9CFD501AC59BF4F29A9AA
:104630003AA9A21BB30BA70196010E94FA2724E610
:1046400030E040E050E00E94D02728AF39AF4AAFB9
:104650005BAF31E022963FAF22979DCE66962CADA0
:104660003DAD4EAD5FAD6697C301B2010E94D12B47
:1046700024E630E040E050E00E94D0272CAF3DAF70
:104680004EAF5FAF61E023966FAF2397A2CEB8AA7B
:10469000AFA627968FAD2797815027968FAF279784
:1046A000882309F4A9C0AFA4B8A8C6CE8CAD9DAD2F
:1046B000AEADBFAD840D951DA61DB71D8CAF9DAFD2
:1046C000AEAFBFAF23969FAD2397990E11E0CFCE2B
:1046D000823011F083FFDDCF6796EFAD6797E83C3E
:1046E000C0F6F0E49F9E90011124232964E0220F7C
:1046F000331F6A95E1F7A901482B58AB4FA74A151C
:104700005B0539F21091810225EF31E090E0191735
:1047100009F4E6C3225F3F4FF9013E974081518182
:104720006FA578A96417750709F4B1CF9F5FEFCF24
:1047300080E0D0CF819EC0011124FC01EB50FE4FE0
:104740005F0100E0292D432D69E0E1C3819EC00196
:1047500011249C012B503E4F590100E0292D432D7F
:1047600068E0D5C32D8D3E8D4F8D58A1232B242B72
:10477000252B01F123963FAD23974CE93402D0015C
:104780001124AC59BF4FB595A79554E6959EC0012D
:10479000112429966EAD7FAD2997861B970BA80F24
:1047A000B91F24E630E00E94092C2D8D3E8D4F8DDF
:1047B00058A194CE30E4832E32E4932E3FE0A32E12
:1047C000B12C2FEF9FCE24962FAD2497273089F060
:1047D000115016951695169530E8139FC0011124B7
:1047E000E091D101F091D201E80FF91FEE0DF11D1A
:1047F000B082E3949E10DDCE2394239426964EAD92
:104800005FAD269740575E4F26965FAF4EAF269717
:1048100050E82512CBCCE0E080918102AAE0EA2E9C
:104820000DE010E0C82ED12CBEE0FB2E823018F433
:10483000EE2309F44BC08E9DC0011124B8010E94E3
:10484000F52B862F69506230E8F18823E9F190E07A
:10485000E0E0B601681B7109292F30E02617370701
:104860002CF7F29EA001F39E500D11244B505E4F89
:10487000280FF29E900111242B503E4FDA011C9616
:10488000BC90D9011C96FC91BF16D0F4EEE0BE2E70
:10489000FA01DE01119601900D92BA94E1F7FEE063
:1048A000BF2EF901DA0101900D92BA94E1F74EE0C2
:1048B000FE013196D90101900D924A95E1F7E1E0B0
:1048C0009F5FCACF8BE0C3CF81E0C1CF312C5EE0C8
:1048D000252E80918102381608F090C1C32CD12C6E
:1048E0002C9CC0012D9C900D1124FC01EB50FE4F1F
:1048F0007F011285163009F45CC089509E4F0E94DA
:10490000071029833A834B835C836D837E838F8377
:1049100098878D809E80AF80B8842DEC3CEC4CEC69
:104920005DE3C501B4010E94122918160CF041C0C4
:1049300020E030E040E051E4C501B4010E94DC2AEF
:104940001816BCF1A501940169817A818B819C8143
:104950000E941C2920E030E040E85FE30E943428F8
:1049600020E030E040E852E40E94E92A0E948E29CB
:104970002B01CB01805C9F4F81309140D0F4A50189
:10498000940169A17AA18BA19CA10E941C2920E01D
:1049900030E040EE51E40E9434280E948E29062F18
:1049A000D7018C918F70883009F4B4C020F4823024
:1049B000D1F133948ECF893009F4EAC08A30C9F737
:1049C000A501940160E070E080E091E40E941C2960
:1049D0006B017C01602F000F770B880B990B0E94F5
:1049E000C629A70196010E9433280E948E296D8F47
:1049F000B201550C880B990B0E94C629A70196019C
:104A00000E9433280E948E29862FC12C30E1E32E8C
:104A1000F12C00E110E029EC37E049EE57E06D8D14
:104A20000E94B711C6CF113009F04DC00E94040E8C
:104A300024EF31E040E050E00E940228C90162E02A
:104A400070E00E94F52B182F602F000F770B880B5A
:104A5000990B0E94C6296B017C01A501940160E0BD
:104A600070E080E091E40E941C299B01AC01C70129
:104A7000B6010E9433280E948E29D62EB201550C11
:104A8000880B990B0E94C6292B013C01A5019401BA
:104A900060E070E080E891E40E941C299B01AC0179
:104AA000C301B2010E9433280E948E29862FC12E95
:104AB00040E2E42EF12C00E210E029E038E049E881
:104AC0005AE06D2DADCF123009F4BECF1430F1F0A5
:104AD000133071F42C9CF0012D9CF00D1124EB503F
:104AE000FE4F858512E08B3008F0AECF11E0ACCFE1
:104AF000153071F42C9CF0012D9CF00D1124EB501D
:104B0000FE4F858514E0882309F49ECF13E09CCFE7
:104B100010E09ACF602F000F770B880B990B0E9443
:104B2000C6296B017C01A501940160E070E080EA78
:104B300090E40E941C299B01AC01C701B6010E94B0
:104B400034280E948E29D62EB201550C880B990B61
:104B50000E94C6292B013C01A501940160E070E090
:104B600080E091E40E941C299B01AC01C301B201C9
:104B70000E9433280E948E29862FC12C20E1E22E2C
:104B8000F12C00E110E029E437E049E857E099CF43
:104B9000602F000F770B880B990B0E94C6296B01C1
:104BA0007C01A501940160E070E080EA90E40E943D
:104BB0001C299B01AC01C701B6010E9434280E9448
:104BC0008E29D62EB201550C880B990B0E94C6294E
:104BD0002B013C01A501940160E070E080E091E4CC
:104BE0000E941C299B01AC01C301B2010E94332821
:104BF0000E948E29862FCC24C394C0CF0E94040E1D
:104C00000E94C4292AE037ED43EA5BE30E94E92AC7
:104C10000E94562B20E030E040E251E40E94E92A55
:104C20002AA53BA54CA55DA50E94E92A20E030E01D
:104C300040E452E40E9434280E948E29A62E68E3A4
:104C400070E0B9A56B1B7109072E000C880B990B3E
:104C50000E94C6296B017C010E94040E0E94C42997
:104C60002AE037ED43EA5BE30E94E92A0E94172914
:104C700020E030E0A9010E94DC2A18160CF08FC059
:104C80000E94040E0E94C4292AE037ED43EA5BE348
:104C90000E94E92A0E94172920E030E040E051E418
:104CA0000E94E92A9B01AC016AA57BA58CA59DA564
:104CB0000E94E92AA70196010E9434280E948E29A9
:104CC000162F862E660F99080A2C000CBB08E9A542
:104CD000E53168F0EE24E39404E128E149E05EE088
:104CE000B4016B507109C50106960E944C0FC401B6
:104CF0008096183114F088E390E06C01C818D90848
:104D0000D7FCC12CE12C0C2D20E249E85DE0B40178
:104D1000C5010E944C0FEE24E39420E249E05DE0DF
:104D2000B401C5010E944C0FFEA5FF2309F445C044
:104D30008F2F0E9421112EA521502EA721110FC0C7
:104D400048E45EE06AE382E00E94951120E045E4D9
:104D50005EE06AE388E20E9495110E940D13909133
:104D6000B2018091B101992309F44EC021E082275C
:104D70008093B10191509093B2018091B101882349
:104D800009F448C087EA0E94EA0E0E94490F809108
:104D9000D301882311F40C94821A0C945E190E949A
:104DA000040E0E94C4292AE037ED43EA5BE30E9427
:104DB000E92A0E94172990586FCF46E066E48AE3FB
:104DC00090E00E94080F25E535E545E852E4609142
:104DD00000017091010180910201909103010E94F4
:104DE000E92A9B01AC0160E070E08AE794E40E944C
:104DF0001C290E948E2982E70E94D81260918102AC
:104E000082E50E94D812ABCF882309F4B6CF109266
:104E1000B101B3CF86EAB7CF0E943E0F8DAB0C94A1
:104E2000271C2091B3013091B4014091B5015091FC
:104E3000B601C701B6010E9433286B017C012091A5
:104E4000B7013091B8014091B9015091BA01C50143
:104E5000B4010E943328A70196010E94B3282BEDCC
:104E60003FE049E450E40E941C2920E030E044E3A4
:104E700052E40E94E92A20E030E044E352E40E9438
:104E800034280E948E29AB0177FF03C0AB01465A3C
:104E90005F4F319E90011124B9016B507E4F7B0111
:104EA000042F252D442D6AE0CE010F960E94690B38
:104EB000FE013F96D701832D01900D928A95E1F76F
:104EC0001F5F10938102369CF001379CF00D112476
:104ED000EB50FE4F72E0728786E085870C94B51E1A
:104EE0001A3008F0D6CB883009F430CC893009F478
:104EF00021CC823009F0CDCB819EC0011124DC0190
:104F0000AB50BE4F5D0104E6292D432D62E0CE017A
:104F10000F960E94690BFE013F96D501882D0190E6
:104F20000D928A95E1F71F5F10938102B2CB4D8DF0
:104F30005E8D6F8D78A180E4482E82E4582E8FE03C
:104F4000682E712C90E4C92E92E4D92E9FE0E92EB0
:104F5000F12C452B462B472B09F466CBA0E4CA2E37
:104F6000A2E4DA2EAFE0EA2EF12CD6C9F999FECFF1
:104F700092BD81BDF89A992780B50895262FF99999
:104F8000FECF92BD81BDF89A019700B4021639F0A8
:104F90001FBA20BD0FB6F894FA9AF99A0FBE089579
:104FA000052E97FB1EF400940E94E72757FD07D0BB
:104FB0000E94022807FC03D04EF40C94E72750957A
:104FC0004095309521953F4F4F4F5F4F08959095F5
:104FD0008095709561957F4F8F4F9F4F08950E94E8
:104FE0002428A59F900DB49F900DA49F800D911D26
:104FF00011240895B7FF0C94EF270E94EF27821B1E
:10500000930B0895A1E21A2EAA1BBB1BFD010DC034
:10501000AA1FBB1FEE1FFF1FA217B307E407F50768
:1050200020F0A21BB30BE40BF50B661F771F881F44
:10503000991F1A9469F760957095809590959B01DA
:10504000AC01BD01CF010895A29FB001B39FC00183
:10505000A39F700D811D1124911DB29F700D811DA4
:105060001124911D08955058BB27AA270E944B2850
:105070000C948E2A0E94552A38F00E945C2A20F057
:1050800039F49F3F19F426F40C942B2A0EF4E09582
:10509000E7FB0C94252AE92F0E94B32A58F3BA178C
:1050A000620773078407950720F079F4A6F50C943E
:1050B000D52A0EF4E0950B2EBA2FA02D0B01B901C5
:1050C00090010C01CA01A0011124FF27591B99F07E
:1050D000593F50F4503E68F11A16F040A22F232F8A
:1050E000342F4427585FF3CF469537952795A795DA
:1050F000F0405395C9F77EF41F16BA0B620B730B81
:10510000840BBAF09150A1F0FF0FBB1F661F771FF1
:10511000881FC2F70EC0BA0F621F731F841F48F4A6
:10512000879577956795B795F7959E3F08F0B0CF2F
:105130009395880F08F09927EE0F97958795089516
:105140000E94552A60F080E891E009F49EEF0E94E9
:105150005C2A28F040E851E071F45EEF0CC00C943A
:105160002B2A0C94D52AE92FE0780E94B32A40F329
:10517000092E052AB1F3261737074807590738F0D3
:105180000E2E07F8E02569F0E025E0640AC0EF6321
:1051900007F8009407FADB01B9019D01DC01CA019F
:1051A000AD01EF930E9433290E948E2A0E94E328CA
:1051B0005F91552339F02BED3FE049E450FD49EC78
:1051C0000C9434280895DF93DD27B92FBF7740E88A
:1051D0005FE31616170648075B0718F4D92F0E94DD
:1051E000E12A9F938F937F936F930E94A42BECEA05
:1051F000F0E00E942E2A0E948E2A2F913F914F911B
:105200005F910E94FC2ADD2351F09058A2EA2AED1A
:105210003FE049EC5FE3D0785D270E944B28DF91A7
:105220000C948E2A0E94012A08F481E008950E94BD
:10523000652AE3950C949F2A0E9430290C948E2AAB
:105240000E945C2A58F00E94552A40F029F45F3FE2
:1052500029F00C94252A51110C94D62A0C942B2A4F
:105260000E94B32A68F39923B1F3552391F3951B58
:10527000550BBB27AA2762177307840738F09F5F77
:105280005F4F220F331F441FAA1FA9F335D00E2EE4
:105290003AF0E0E832D091505040E695001CCAF751
:1052A0002BD0FE2F29D0660F771F881FBB1F261714
:1052B00037074807AB07B0E809F0BB0B802DBF01EB
:1052C000FF2793585F4F3AF09E3F510578F00C94BA
:1052D000252A0C94D62A5F3FE4F3983ED4F38695B2
:1052E00077956795B795F7959F5FC9F7880F911DDB
:1052F0009695879597F90895E1E0660F771F881FC7
:10530000BB1F621773078407BA0720F0621B730B79
:10531000840BBA0BEE1F88F7E09508950E9495293B
:105320006894B1110C94D62A08950E94BB2A88F083
:105330009F5798F0B92F9927B751B0F0E1F0660F59
:10534000771F881F991F1AF0BA95C9F714C0B1309A
:1053500091F00E94D52AB1E008950C94D52A672FC8
:10536000782F8827B85F39F0B93FCCF386957795C9
:105370006795B395D9F73EF49095809570956195B2
:105380007F4F8F4F9F4F0895E89409C097FB3EF4DD
:1053900090958095709561957F4F8F4F9F4F992382
:1053A000A9F0F92F96E9BB279395F6958795779500
:1053B0006795B795F111F8CFFAF4BB0F11F460FFC0
:1053C0001BC06F5F7F4F8F4F9F4F16C0882311F018
:1053D00096E911C0772321F09EE8872F762F05C02C
:1053E000662371F096E8862F70E060E02AF09A95C7
:1053F000660F771F881FDAF7880F9695879597F9BC
:105400000895990F0008550FAA0BE0E8FEEF161655
:105410001706E807F907C0F012161306E407F507A8
:1054200098F0621B730B840B950B39F40A2661F01C
:10543000232B242B252B21F408950A2609F4A140BF
:10544000A6958FEF811D811D089597F99F6780E8CC
:1054500070E060E008959FEF80EC0895DF93CF93B4
:105460001F930F93FF92EF92DF927B018C01689460
:1054700006C0DA2EEF010E94FC2AFE01E894A591F5
:105480002591359145915591A6F3EF010E944B2846
:10549000FE019701A801DA9469F7DF90EF90FF9081
:1054A0000F911F91CF91DF91089500240A94161651
:1054B000170618060906089500240A941216130602
:1054C0001406050608950C942B2A0E94BB2AD8F3D3
:1054D000E894E0E0BB279F57F0F02AED3FE049EC6D
:1054E00006C0EE0FBB0F661F771F881F28F0B23A69
:1054F00062077307840728F0B25A620B730B840BA0
:10550000E3959A9572F7803830F49A95BB0F661F31
:10551000771F881FD2F790480C94AA2B092E03946A
:10552000000C11F4882352F0BB0F40F4BF2B11F490
:1055300060FF04C06F5F7F4F8F4F9F4F0895EF93C1
:10554000E0FF07C0A2EA2AED3FE049EC5FEB0E94D2
:105550004B280E948E2A0F90039401FC9058E9ED8D
:10556000F0E00C94BD2B57FD9058440F551F59F097
:105570005F3F71F04795880F97FB991F61F09F3F40
:1055800079F087950895121613061406551FF2CF69
:105590004695F1DF08C0161617061806991FF1CFB9
:1055A00086957105610508940895E894BB276627E0
:1055B0007727CB0197F908950E94012A08F48FEF0D
:1055C00008959B01AC0160E070E080E89FE30C94DB
:1055D0001C290E94FC2A0C948E2A0E94552A38F01D
:1055E0000E945C2A20F0952311F00C94252A0C943B
:1055F0002B2A11240C94D62A0E94B32A70F3959F6B
:10560000C1F3950F50E0551F629FF001729FBB27B9
:10561000F00DB11D639FAA27F00DB11DAA1F649F55
:105620006627B00DA11D661F829F2227B00DA11D08
:10563000621F739FB00DA11D621F839FA00D611D8E
:10564000221F749F3327A00D611D231F849F600DAF
:10565000211D822F762F6A2F11249F5750409AF0D8
:10566000F1F088234AF0EE0FFF1FBB1F661F771F64
:10567000881F91505040A9F79E3F510580F00C942F
:10568000252A0C94D62A5F3FE4F3983ED4F38695FE
:1056900077956795B795F795E7959F5FC1F7FE2BCF
:1056A000880F911D9695879597F908959F930E946D
:1056B000652A0F9007FCEE5F0C949F2A19F416F4EC
:1056C0000C942B2A0C94A82B0E94BB2AB8F3992384
:1056D000C9F3B6F39F57550B87FF0E94B62B0024E2
:1056E000A0E640EA900180585695979528F4805C92
:1056F000660F771F881F20F026173707480730F4FA
:10570000621B730B840B202931294A2BA695179411
:105710000794202531254A2758F7660F771F881FE1
:1057200020F026173707480730F4620B730B840B01
:10573000200D311D411DA09581F7B901842F91588D
:10574000880F9695879508959B01AC010C94E92AE2
:105750009F3F31F0915020F4879577956795B795E5
:10576000880F911D9695879597F90895915050400F
:10577000660F771F881FD2F708959F938F937F93AB
:105780006F93FF93EF939B01AC010E94E92AEF9185
:10579000FF910E942E2A2F913F914F915F910C947F
:1057A000E92ADB018F939F930E94EF27BF91AF916E
:1057B000A29F800D911DA39F900DB29F900D11246B
:1057C0000895AA1BBB1B51E107C0AA1FBB1FA61748
:1057D000B70710F0A61BB70B881F991F5A95A9F79A
:1057E00080959095BC01CD01089597FB072E16F486
:1057F000009407D077FD09D00E94E12B07FC05D06B
:105800003EF4909581959F4F0895709561957F4FD7
:1058100008950E942428B7FF0895821B930B0895D2
:10582000EE0FFF1F0590F491E02D0994DC0101C0FB
:105830006D9341505040E0F70895AEE0B0E0E3E2F0
:10584000FCE20C94CC2E0D891E8986E08C831A8391
:1058500009838FEF9FE79E838D83AE01475E5F4F85
:105860006F89788DCE0101960E94402C2F8138855A
:10587000020F131FF80110822E96E4E00C94E82E1C
:10588000ABE0B0E0E6E4FCE20C94BE2E7C013B0110
:105890008A01FC0117821682838181FFC8C1CE0173
:1058A00001965C01F7019381F30193FD859193FFCC
:1058B00081913F01882309F453C1853239F493FD66
:1058C000859193FF81913F01853229F4B70190E0E2
:1058D0000E94302EE7CF912C212C312CFFE1F315C3
:1058E00038F08B3211F190F4803209F1833229F1D2
:1058F00037FC3CC020ED280F2A3050F536FE20C082
:105900008AE0989E200D1124922E06C08D3291F0CF
:10591000803371F7689430F8F30193FD859193FF1C
:1059200081913F018111DACF21C0689431F86894E8
:1059300032F8F2CF689433F8EFCF689434F8ECCFB4
:10594000EAE02E9E200D1124222E689435F8E4CF33
:105950008E3229F436FC04C1689436F8DDCF8C36DB
:1059600019F4689437F8D8CF8836B1F2982F9F7D14
:1059700095549330E0F08336A1F18337C1F183353C
:1059800009F063C02801F2E04F0E511CF801C080FD
:10599000D180692D70E036FC02C06FEF7FEFC60149
:1059A0000E941A2E4C01689437F882010AC00C5FDD
:1059B0001F4FFFE3F98388248394912C6501E894B9
:1059C00037F833FE2DC0522C8114910471F5552007
:1059D00009F468CFB70180E290E00E94302E5A941B
:1059E000F6CFF801808189830E5F1F4FE4CF280135
:1059F000F2E04F0E511CF801C080D180692D70E09B
:105A000036FC02C06FEF7FEFC6010E94252E4C01CD
:105A10008201D5CFB70180E290E00E94302E2A9417
:105A20002814190409F0B0F7CECFF60137FC8591A0
:105A300037FE81916F01B70190E00E94302E511026
:105A40005A94F1E08F1A9108BFCF843619F0893645
:105A500009F077C0F80137FE6BC0608171818281E7
:105A600093810C5F1F4FF32DFF763F2E97FF09C0E8
:105A700090958095709561957F4F8F4F9F4F68945B
:105A800037F82AE030E0A5010E94602EC82ECA181F
:105A90008C2C432C36FE0CC0E89440F8C91440F41A
:105AA00034FE05C032FC03C0F32DFE7E4F2E892C40
:105AB00044FE95C0FE01EC0DF11D8081803309F09C
:105AC00087C0242D297E422E842D8870582E43FCB9
:105AD00095C040FE8FC09C2C821418F42C0C922C84
