:100000000C940C0B0C94340B0C94340B0C94340B9C
:100010000C94340B0C94340B0C94340B0C94340B64
:100020000C94340B0C94340B0C941C150C948B1501
:100030000C94340B0C94340B0C94340B0C94340B44
:100040000C94340B0C94340B0C94340B0C94340B34
:100050000C94340B0C94340B0C94340B0C94D2147D
:100060000C94340B0C94340B0C94340B0C94340B14
:100070000C94340B0C94340B0C94340B0C94340B04
:100080000C94BD170C94340B0C94340B0C94340B5F
:100090000C94340B0C94340B0C94340B0C94340BE4
:1000A0000C94340B0C94340B0C94340B084AD73B4F
:1000B0003BCE016E84BCBFFDC12F3D6C74319ABD37
:1000C00056833DDA3D00C77F11BED9E4BB4C3E915B
:1000D0006BAAAABE000000803F05A84CCDB2D44E4A
:1000E000B93836A9020C50B9918688083CA6AAAA4C
:1000F0002ABE000000803F00000000000000000059
:10010000000000000000000000000000000180006E
:10011000062669F6F666E6EFF692198996E6E6E9AE
:100120009999F000024183CF0929998819999998E2
:1001300088921A8FD9999849999910000427E56FE8
:1001400009222FEE167FE89EE8F21C89B9E9E649FC
:10015000996660060427E7EF0924911919199998FF
:1001600089929A89998B91496F968020042187EF13
:10017000067F61E61669E6EF869269F996879E46E4
:100180006996F440F24180E08040201008040201AA
:10019000000000000000000000000000000000005F
:1001A000000088880000222200008A8A00002222A3
:1001B0000000AAAA1010AAAA0000AAAA0101AAAACD
:1001C0004444AAAA5555AAAA4444AAAA1555AAAABB
:1001D0005555AAAA5555BBBB5555AAEA5555BBBBA3
:1001E0005555FFFF5555FBFB5555FFFF5555BBBFFB
:1001F0005757FFFFDDDDFFFF7775FFFFDDDDFFFFF9
:10020000FFFFFFFFFFFFFFFFFFFFFFFFFFFFFFFFFE
:10021000080B0002020200000904000001020200B3
:100220000005240010010524010101042402060533
:1002300024060001070581031000400904010002A3
:100240000A00000007050202400000070583024083
:1002500000000403090412010002EF0201404123DF
:10026000368000010102030141726475696E6F20DE
:100270004C4C430041424C3133303600D5808D1414
:10028000A1C88180D9F1AF2000F0F89C8E878387C8
:100290008E9CF8F00000FEFF0303030303070EFC2F
:1002A000F80000FEFF0303030303070EFCF8000041
:1002B000FFFF00000000000000FFFF0000FEFF83C2
:1002C00083838383C7EE7C380000F8FC0E070303AA
:1002D00003070EFCF800003F7FE0C08080C0E07F95
:1002E0003FFFFF01010101010101FFFF0000FFFFCE
:1002F0000C0C0C0C1C3E77E3C100007FFFC0C0C09B
:10030000C0C0E0703F1F00001F3F70E0C0C0C0E0F1
:10031000703F1F00007FFFC1C1C1C1C1E3773E1C18
:1003200000001F3F70E0C0C0C0E0703F1F00000031
:10033000000001FFFF0100000050524553532046CA
:100340004952450000000000000000000040080085
:1003500001042008011200001000000040000040CD
:1003600000800050002811024000A0005000280A20
:10037000026001A00050002C0A0241E1B0F0507868
:10038000280A066220A1B850C82C04024A31B0885D
:10039000D0882804066221A18850886C1402433159
:1003A000B08A528A2880064231A8C8D0882C42865A
:1003B0006B29A5A8D4EAAC50426365B4DA52D96C73
:1003C000422653B1B1D8D4DA6D48866B75B5DA528E
:1003D000FC6D6B566BA1B0FBDAD96C694653EDBD71
:1003E000FA76FAEF6CB26FEBF4FDDDFD6CE74E7759
:1003F000EBBFFED6FBEEF1E659EFBCF2D6FBEFF415
:10040000F6F3B7FFFB5CFFEFD67A6BBFBE88D2DF97
:10041000EFDCD64B7FFFCA709FEFDECE4BDFBFEB2A
:1004200076FFEFDFD677FFFFFE56FFFFDFC2DFFF6D
:10043000FFFEFBDFEFCF764FFFBFFBDFFFE7EF52A3
:100440007FFF9FFFFFFFDFDF7EFFFFCFFFFFFFBFCD
:10045000CE627FFFFFFFDFFF7FFEFE7FFFE3FF8FA8
:10046000FF7FEE7E7FFFC1FF07FC1FDF7EFFFF8067
:100470007C01F00FFDFE7FFF003801E007FD7E7F6D
:10048000FC00100040033FFE7FF800000000001356
:10049000FEFFF00000000000037E7FC000000000AF
:1004A0000003FE7F80000000000003FE7F000000CC
:1004B00000000007FEFC00000000000003FEF80042
:1004C000000000000001FE7000000000000000FEBF
:1004D00020000000000000003F00000000000000BD
:1004E000001E00000000000000000CDA040A00DA20
:1004F000040A00DA040A00B5000A00D9010A006DF6
:10050000020A00F1010A00F1010A0080000A00F16C
:10051000010A006D020A006D020A005A020A00E494
:10052000000A006D020A006D020A00008028020A1B
:100530000028020A0028020A0028020A0028020AEB
:100540000028020A0028020A0028020A0028020ADB
:100550000028020A0028020A0028020A0028020ACB
:100560000028020A0028020A0028020A0028020ABB
:100570000028020A0028020A0028020A0028020AAB
:100580000028020A0028020A006D020A006D020A11
:10059000006D020A006D020A006D020A006D020A77
:1005A000006D020A0069010A0069010A0069010A76
:1005B0000069010A0069010A0069010A0069010A6B
:1005C0000069010A0069010A0069010A006D020A56
:1005D000006D020A006D020A006D020A0069010A3C
:1005E0000069010A0069010A0069010A0069010A3B
:1005F0000069010A0069010A0069010A0069010A2B
:100600000069010A006D020A006D020A006D020A0B
:10061000006D020A0069010A0069010A0069010A05
:100620000069010A0069010A0069010A0069010AFA
:100630000069010A0069010A0069010A006D020AE5
:10064000006D020A006D020A006D020A006D020AC6
:10065000006D020A001B030A001B030A001B030AA9
:10066000001B030A001B030A001B030A001B030AEA
:10067000001B030A001B030A001B030A001B030ADA
:10068000001B030A001B030A001B030A001B030ACA
:10069000001B030A000080EA000A006D020A0057EE
:1006A000010A0057010A0057010A006D020A006D95
:1006B000020A006D020A006D020A006D020A006D56
:1006C000020A006D020A0086010A0086010A0086FD
:1006D000010A0086010A006D020A006D020A006D1F
:1006E000020A006D020A006D020A006D020A006D26
:1006F000020A006D020A006D020A000B020A000BDA
:10070000020A000B020A006D020A006D020A006D67
:10071000020A006D020A006D020A006D020A006DF5
:10072000020A0087030A0087030A0087030A00877A
:10073000030A0087030A006D020A006D020A006DB9
:10074000020A006D020A006D020A006D020A006DC5
:10075000020A006D020A006D020A0087030A008780
:10076000030A0087030A0087030A0087030A008739
:10077000030A006D020A006D020A006D020A006D94
:10078000020A006D020A006D020A006D020A006D85
:10079000020A006D020A00B2030A00B2030A00B2A4
:1007A000030A00B2030A00B2030A00B2030A00B24D
:1007B000030A0000801FF83FFC7FFE7FFE7FFE7F64
:1007C000FE7FFE7FFE7FFE7FFE7FFE7FFE7FFE7F41
:1007D000FE7FFE3FFC000000000000000000000F54
:1007E000FC1FFC3FFC3FFC3FFC3FFC3FFC07FC03C5
:1007F000F8000000001FF83FFC7FFE7FFE77EE3F11
:10080000FC5FFA2FF653CC3E7E5E7C381E581C3EB1
:100810007E5E7E2EFC000000000000000000000F45
:10082000FC17FC226C36443FFC1FFC2BFC055402D9
:10083000A8000000001F400FF03FF81FFC7FFD7F65
:10084000FC7FFDFFFEFFFFFFFFFFFEFFFE3FFE17E9
:10085000F807F401E0000001400AB00ED000685330
:10086000B40F48277817A827F021D602F8204806A9
:10087000200100000000000000000000000003C094
:10088000000003C0000007E0000007E0000003E0F4
:10089000000107F18000DFFE00003FFE00007FFF47
:1008A0000001FFFF8000FFFF8001FFFF8003CFF109
:1008B000C001C7F1C00187F1C0030FF980030FFB2E
:1008C00080018FFF80039F7900001F7C00000F785C
:1008D00000000F78000007300000073800000730E4
:1008E00000000730000003780000073000000F8090
:1008F0000000000000000000000003C0000007C06E
:10090000000007E0000007C0000107E100008FFAC7
:100910000000FFFE00003FFE00017FFF8000FFFFA0
:100920000001FFFF8003CFFBC00387F1C003CFF3BB
:10093000C001CFF18000CFF100000FFB80001E78D6
:1009400000000E7800001E7800000F7000000F7885
:100950000000077000000770000007380000033037
:100960000000032000000730000005700000007840
:100970000000000000000000000000000000000E69
:100980000000001F0000001F0000033F8000013F27
:10099000000001FF300003FFC00003FFC00003FFA1
:1009A000800007FFE00007FFC00005FFE00000FC3B
:1009B000E00001FCE00001FC700003FC380003FED5
:1009C000700007FC0000079E00000FBC00000F3EF7
:1009D0000000079C0000039C000003B8000003987F
:1009E000000001980000021C00000036000000001A
:1009F00000000000000000000000000000000000F7
:100A0000000000000000000000000020000000388E
:100A10000000001F0000001F4000003E800001FF9A
:100A2000800003FF800007FFE0000EFFC0000CFF06
:100A300080001FFE000013FC000007FE00001FFFE7
:100A400000003F9F00003E0F00007C0F0000780F69
:100A500000007807800078074000380780003007E2
:100A6000000030010001F0000001B00000000000B3
:100A70000000000000000000000000000000000076
:100A80000000000000000000000000000000000066
:100A90000000000000000000000000000000000056
:100AA0000000000000000000000000000000000046
:100AB0000000000000000000000000000000000036
:100AC0000000011C0000013E000003FF00000FFFBA
:100AD000E0013FFFC001FFFFC019FFFFE87FFFFFFC
:100AE000FE3FFFFFFE1FC207E01F0001E00E0000F7
:100AF0004000000000000000000000000000018035
:100B00000000028000000740000002800000010099
:100B100000010FB30000D04E0000798C00001C19BA
:100B200000018A2000000000000000030002000015
:100B300000030200000000004002080080000001E5
:100B400000018E300000041000000C2000000000A6
:100B5000000000000000001000000600000000007F
:100B6000000000200000010000000220000005003D
:100B700000000000000000000000018000000240B2
:100B8000000003E000000400000001A180018013C8
:100B90000000F38A000009940000883880000000FB
:100BA00000000223000000004001800080000001DE
:100BB0000000E2800000000000000C200000043073
:100BC00000000220000000400000000000000100C2
:100BD00000000220000006000000000000000000ED
:100BE0000000020000000000000000A0000000481B
:100BF00000000000000000000000000000000004F1
:100C00000000000A0000001F0000022A8000010509
:100C1000000001AE20000124400002AC80000286EA
:100C2000000003202000043040000C000000000001
:100C3000400000202000000000000008200001000B
:100C40000000021A0000001C000000380000040030
:100C500000000298000000180000000000000000E2
:100C6000000000000000000000000036000000004E
:100C70000000000000000000000000000000000074
:100C80000000002000000000000000000000000440
:100C90000000000A0000000840000000800001D6AB
:100CA000800002BF80000661A0000CE880000C10EC
:100CB00000001A22000012400000060C0000040D83
:100CC00000003A03000010020000600A0000500417
:100CD00000002003000000040000200000000000CD
:100CE00000002000000000000000400000000000A4
:100CF00000000000000000000000000000000000F4
:100D000000000000000000000000000000000000E3
:100D100000000000000000000000000000000000D3
:100D200000000000000000000000000000000000C3
:100D300000000000000000000000000000000000B3
:100D40000000022400000108000001180000014119
:100D5000400233B680019C040008FA020805000135
:100D60000C2783A22A0004000002000000000000FB
:100D70000000000000000020000000D8000001C4B6
:100D80000000020400000202000002EA000004D198
:100D9000000009888000190000000DC28000298130
:100DA000C0000BA22000314040002300C00013000F
:100DB00040007202000049004001E0A82007F10055
:100DC000300BB9E0E8075C03FC07EFFFEE07757F27
:100DD000D21BBBFFB211577D6432AFFFE8135F75C2
:100DE000D033FFFB9817D7E5001B8FB230037D5837
:100DF000106FBFEC20000070000001FC000003FE3B
:100E0000000007FE000007FF000007FF00000FFFC3
:100E100080001FFFC0003FFF80003FFFC0007FFF3A
:100E2000E0007FFFF0007FFFE0007FFFE0007FFF3A
:100E3000E000FFFFC000FFFFE003FFFFF00FFFFF38
:100E4000F81FFFFFFC1FFFFFFE1FFFFFFF1FFFFF3D
:100E5000FF3FFFFFFF3FFFFFFE7FFFFFFC7FFFFF26
:100E6000F87FFFFFFC7FFFFFF87FFFFFF87FFFFFAA
:100E7000F8FFFFFFF0000000001800000C000277F0
:100E80000001670001E58001E3C002A2C00782E023
:100E90001F41F99D807C3E005E76006A3800362F47
:100EA000805C36007E3F005810003C880000000047
:100EB000005B5D007B7D0097000A0093000A0097AD
:100EC000000A0000808B000A008C000A008C000AD7
:100ED00000008098000A0098000A0099000A008C1F
:100EE000000A0090000A0091000A0094000A00978E
:100EF000000A000080FFFFFFFFFFFFFFFFFFFFFF73
:100F0000FFFFFFFFFFFFFFFFFFFFFFFFFFFFFFFFF1
:100F1000FFFFFFFFFFFFFFFFFFFFFFFFFFFFFFFFE1
:100F2000FFFFFFFFFFFFFFFFFFFFFFFFFFFFFFFFD1
:100F3000FFFFFFFFFFFFFFFFFFFFFFFFFFFFFFFFC1
:100F4000FFFFFFF00000000000FFFFFFFFFFFFFFBB
:100F5000FFFFFFFFFFFFFFFF0000FFFFFFFFFFFF9F
:100F6000FFFFFFF00000000200FFFFFFFFFFFFFF99
:100F7000FFFFFFFFFFFFFFFF0000FFFFFFFF00007D
:100F8000000000F00000000000F000FFFFFFFFFF86
:100F9000FFFFFFFFFFFFFFFF00000FFFFFFF00004D
:100FA0000000005000002000000080FFFFFFFFFF56
:100FB000FFFFFFFFFFFFFFFF00000FFFFFFF00002D
:100FC000000000F00000000000F000FFFFFFFFFF46
:100FD000FFFFFFFFFFFFFFFFFFFFFFFFFFFF000F10
:100FE000FFFFFFF00000000000FFFFFFFFFFFFFF1B
:100FF000FFFFFFFFFFFFFFFF000000000FFF000FDC
:10100000FFFFFFF00000000000FFFFFFFFFFFFFFFA
:10101000FFFFFFFFFFFFFFFF000000000FFF000FBB
:10102000FFFFFFFFFFFF4FFFFFFFFFFFFFFFFFFF80
:10103000FFFFFFFFFFFFFFFF000000000F000000A9
:101040002FFFFFFFFFF000FFFFFFFFFFFFFFFFFF8E
:10105000FFFFFFFFFFFFFFFF000020000400020072
:101060000FFFFFFFFFF000FFFFFFFFFFFFFFFFFF8E
:10107000FFFFFFFFFFFFFFFF000000000F00000069
:101080000FFFFFFFFFF000FFFFFFFFFFFFFFFFFF6E
:10109000FFFFFFFFFFFFFFFF000020000FFFFFFF2C
:1010A000FFFFFFFFFFF000FFFFFFFFFFFFFFFFFF5E
:1010B000FFFFFFFFFFF000FF000000000FFFFFFF3A
:1010C000FFFFFFFFFFF000FFFFFFFFFFFFFFFFFF3E
:1010D000FFFFFFFFFFF090FFFFFF4FFFFFFFFFFF4E
:1010E000FFFFFFFFFFF000FFFFFFFFFFFFFFFFFF1E
:1010F000FFFFFFFFFFF000FFFFF000FFFFFFFFFF1C
:10110000FFFFF000F2000009FFFFFFFFFFFFFFFFFE
:10111000FFFFFFFFFFFF4FFFFFF000FFFFFFFFFF9D
:10112000FFFFF00FFFF000FFFFFFFFFFFFFFFFFFDC
:10113000FFFFFFFFFFF000FFFFF000FFFFFFFFFFDB
:10114000FFFFF00FFFF000FFFFFFFFFFFFFFFFFFBC
:10115000FFFFFFFFFFF000F000F000FFFFFFFFFFC9
:10116000FFFFF00FFFF000FFFFFFFFFFFFFFFFFF9C
:10117000FFFFFFFFFFF0004000F000FFFFFFFFFF59
:10118000FFFFFFFFFFF000FFFFFFFFFFFFFFFFFF7D
:10119000FFFFFFFFFFF000F000F000FFFFFFFFFF89
:1011A000FFFFFFFFFFF000FFFFFFFFFFFFFFFFFF5D
:1011B000FFFFFFFFFFF000FFFFFF4FFFFFFFFFFFFD
:1011C000FFFFFFFFFFFF5FFFFFFFFFFFFFFFFFFFCF
:1011D000FFFFFFFFFFF020FF000000000FFFFFFFF9
:1011E000FFFFFFFFFF00000FFFFFFFFFFFFFFFFFFD
:1011F00000000000FFF000FF000000000FFFFFFFF5
:10120000FFFFF000000000000000FFFFFFFFFFFFF6
:1012100000000000FFF000FF000200000FFFFFFFD2
:10122000FFFFF000000000000000FFFFFFFFFFFFD6
:1012300000000000FFF0000F000000000FFFFFFFA4
:10124000FFFFF0002000000020000F000000000F52
:1012500000000000FFF00005000090000FFFFFFFFE
:10126000FFFFF00000000000000004000020000468
:1012700000002000FFF0000F000000000FFFFFFF44
:10128000FFFFF0000000000000000F000000000F52
:1012900000000000FFF000FF000002000FFFFFFF52
:1012A000FFFFF000000000000000FFFF0000FFFF54
:1012B00000000000FFF000FF000000000FFFFFFF34
:1012C000FFFFF000000000000000FFFFF00FFFFF35
:1012D00000000800FFF000FF000000000FFFFFFF0C
:1012E000FFFFFFFFFF00000FFFFFFFFFF00FFFFFFB
:1012F00000000000FFF000FFFFFF5FFFFFFFFFFFA8
:10130000FFFFFFFFFFFF4FFFFFFFFFFFF00FFFFF9C
:10131000FFFFFFFFFFF000FFFFF000FFFFFFFFFFF9
:10132000FFFFFFFFFFF000FFFFFFFFFFF00FFFFFDA
:10133000FFFFFFFFFFF202FFFFF000FFFFFFFFFFD5
:10134000FFFFFFFFFFF000FFFFFFFFFFF00FFFFFBA
:10135000FFFFFFFFFFF000F000F000FFFFFFFFFFC7
:10136000FFFFFFFFFFF020FFFFFFFFFFF00FFFFF7A
:10137000FFFFFFFFFFF0004080F000FFFFFFFFFFD7
:10138000FFFFFFFFFFF000FFFFFFFFFFF00FFFFF7A
:10139000FFFFFFFFFFF000F000F000FFFFFFFFFF87
:1013A000FFFFFFFFFFF000FFFFFFFFFFF00FFF0F4A
:1013B0000F0F0FFFFFF000FFFFF000FFFFFFFFFF29
:1013C000FFFFFFFFFFF000FFFFFFFFFFF000F00057
:1013D000000000FFFFF000FFFFF000FFFFFFFFFF36
:1013E000FFFFFFFFFFF000FFFFFFFFFFF0004000E7
:1013F000020090FFFFF0000000000000000FF0006E
:10140000000FFFFFFFF000FFFFFFFFFFF000F00005
:10141000000000FFFFF0000200000000200050006C
:1014200020007FFFFFF000FFFFFFFFFFFFFFFF0F28
:101430000F0F0FFFFFF0000000000000000FF00092
:10144000000FFFFFFFF000FFFFFFFFFFFFFFFFFFA9
:10145000FFFFFFFFFFFFFFFFFFFFFFFFFFFFFFFF9C
:10146000FFFFFFFFFFF000FFFFFFFFFFFFFFFFFF9A
:10147000FFFFFFFFFFFFFFFFFFFFFFF00F00F00F79
:10148000FFFFFFFFFFFF5FFFFFFFFFFFFFFFFFFF0C
:10149000FFFFFFFFFFFFFFFFFFFFF0000F00F0FF68
:1014A000FFFFFF0000F000F0000FFFFFFFFFFFFF56
:1014B000FFFFFFFFFFFFFFFFFFFFFFF00000FFFF49
:1014C000FFFFFF0100400040000FFFFFFFFFFFFF95
:1014D000FFFFFFFFFFFFFFFFFFFFFFFFFFFFFFFF1C
:1014E000FFFFFF0000F000F0000FFFFFFFFFFFFF16
:1014F000FFFFFFFFFFFFFFFFFFFFFFFF00FFFFFFFB
:10150000FFFFFFFFFFF000FFFFFFFFFFFFFFFFFFF9
:10151000FFFFFFFFFFFFFFFFFFFFFFFF00FFFFFFDA
:10152000FFFFFF0000F000F0000FFFFFFFFFFFFFD5
:10153000FFFFFFFFFFFFFFFFFFFFFFFFFFFFFFFFBB
:10154000FFFFFF0000400040000FFFFFFFFFFFFF15
:10155000FFFFFFFFFFFFFFFFFFFFFFFFFFFFFFFF9B
:10156000FFFFFF0000F000F0000FFFFFFFFFFFFF95
:10157000FFFFFFFFFFFFFFFFFFFFFFFFFFFFFFFF7B
:10158000FFFFFFFFFFF000FFFFFFFFFFFFFFFFFF79
:10159000FFFFFFFFFFFFFFFFFFFFFFFFFFFFFFFF5B
:1015A000FFFFFF0000000000000FFFFFFFFFFFFF35
:1015B000FFFFFFFFFFFFFFFFFFFFFFFFFFFFFFFF3B
:1015C000FFFFFF0000000000290FFFFFFFFFFFFFEC
:1015D000FFFFFFFFFFFFFFFFFFFFFFFFFFFFFFFF1B
:1015E000FFFFFF0000000000000FFFFFFFFFFFFFF5
:1015F000FFFFFFFFFFFFFFFFFFFFFFFFFFFFFFFFFB
:10160000FFFFFFFFFFFFFFFFFFFFFFFFFFFFFFFFEA
:10161000FFFFFFFFFF00371811241FBECFEFDAE0F6
:10162000DEBFCDBF11E0A0E0B1E0EEE3FDE502C01A
:1016300005900D92AC37B107D9F727E0ACE7B1E0E0
:1016400001C01D92A030B207E1F71BE0CCE0DBE067
:1016500004C02197FE010E94B82BCB30D107C9F7F7
:101660000E945C180C949D2E0C94000080919201B5
:101670000895E8E3F0E0E61BF10926E0EE0FFF1F16
:101680002A95E1F7E80FF11DF7FD3196F595E795FD
:10169000EB50F14FE491F0E080FF0AC080E09F0141
:1016A00002C0359527958A95E2F7C9018F70089594
:1016B00084E0F5CFE0EAF2E0A0E0B8E000800EBC04
:1016C0008111012C1197A0FDFDCF0192B9F70DB446
:1016D00008950F931F93CF93DF93EC01122F1D8674
:1016E0001C8620E4129FC0011124842B24E0880F63
:1016F000991F2A95E1F7862B99838883642F70E0E0
:1017000090E080E00E94832920E030E040E05FE349
:101710000E94F3276A837B838C839D83612F70E013
:1017200090E080E00E94832920E030E040E05FE329
:101730000E94F3276E837F83888799871A860B8799
:10174000CE01DF91CF911F910F910895BC0180E0F0
:1017500090E04EE050919F02951760F5292F30E000
:10176000811110C0429FF001439FF00D1124ED5EE6
:10177000FD4F0190F081E02DE617F707C9F45150B5
:1017800050939F02429FD001439FB00D1124AD5E44
:10179000BD4F2F5F3F4F429FF001439FF00D11243B
:1017A000ED5EFD4F842F01900D928A95E1F781E067
:1017B0009F5FD0CF0895FC0180911202882311F120
:1017C0003FB7F89482E08093E9002091F200822FE5
:1017D00090E01816190614F481E090E0882339F09F
:1017E000289844E6409311024091F100408322235F
:1017F00039F02091F200211103C02BE62093E8007C
:101800003FBF08958FEF9FEF08952FB7F89483E0BF
:101810008093E9009091E800892F807295FF04C0C1
:101820009091F20080E4891B2FBF089580910902F6
:1018300081110DC082E08093050284E0809306024E
:10184000109208021092070281E08093090285E05D
:1018500092E00895FC010E943E0C319728F06851F7
:101860007C4F8F4F9F4FF9CFAB01FC010E943E0C84
:10187000641775078E079F07C8F30895A1E0B2E0CB
:101880002FB7F8947D918D919C9166B52FBFA89B41
:1018900005C06F3F18F47F5F8F4F9F4F22E0660FA8
:1018A000771F881F991F2A95D1F70895AB01FC0176
:1018B0000E943E0C41505109E109F10928F068519C
:1018C0007C4F8F4F9F4FF6CFAB01FC010E943E0C27
:1018D000641775078E079F07C8F308952FB7F8940C
:1018E0006091FD017091FE018091FF0190910002D5
:1018F0002FBF089540918C0150918D0120918A0154
:1019000030918B0142175307B4F49091E800957021
:10191000E1F39091E80092FD19C08093F10080916D
:101920008C0190918D0101968F739927892B19F461
:101930008EEF8093E80080918C0190918D0101964B
:1019400090938D0180938C0181E0089580E008954B
:10195000DF92EF92FF920F931F93CF93DF93D82ED6
:101960008A01EB017B01E40EF51ECE15DF0559F06F
:10197000D7FE12C0FE0184910E947A0C219681113B
:10198000F4CF0FEF1FEFC801DF91CF911F910F919F
:10199000FF90EF90DF9008958881EECF0F931F9313
:1019A000CF93DF931F92CDB7DEB782E0898342E405
:1019B00050E060E172E080E80E94A80C0E94160CE2
:1019C000DC0112960D911C910115110589F0D801C9
:1019D000ED91FC910280F381E02DBE016F5F7F4F9E
:1019E000C801099597FD04C0F80100851185ECCF69
:1019F00089810F90DF91CF911F910F9108956150D0
:101A000030F02091F100FC0120830196F8CF289856
:101A100084E68093110208958F929F92AF92BF92B5
:101A2000CF92DF92EF92FF920F931F93CF93DF93AA
:101A30006C017B018A0180910B01882309F45AC053
:101A400080911202882309F455C08091900180FF93
:101A500005C08091E00082608093E000E801B12C35
:101A60008AEFA82E93E0892E2AE3922E209711F474
:101A7000BB20C9F10E94050C811108C0AA94AA20BC
:101A8000C9F181E090E00E942A0CF0CF8C171D066E
:101A900011F00CF08C2F9FB7F8948092E900209100
:101AA000E80025FD02C09FBFE1CF282F30E0C21B18
:101AB000D30BF701815020F041914093F100FACF10
:101AC000E20EF31EBB2021F09092E800B12CEBCF88
:101AD0008091E80085FDE7CF9092E800BB24B394A5
:101AE000209709F3F3CF5D9884E680938F01101659
:101AF00011063CF081E090E0F6019383828310E0D0
:101B000000E0C801DF91CF911F910F91FF90EF90FE
:101B1000DF90CF90BF90AF909F908F900895CF931C
:101B2000DF931F92CDB7DEB76983DC01ED91FC91A5
:101B30000280F381E02D41E050E0BE016F5F7F4FF6
:101B400009950F90DF91CF91089583E08093E9008C
:101B50008091F200882319F08AE38093E8000895C9
:101B60000E94050C90E00895CF93DF931F92CDB7AC
:101B7000DEB7FC018485958597FD08C02FEF3FEF08
:101B8000358724870F90DF91CF910895CE0101967C
:101B90000E94DB0B019719F4898190E0F3CF8FEF5E
:101BA0009FEFF0CF0F931F93CF93DF931F92CDB78B
:101BB000DEB78C01FC018485958597FF0BC0CE01B3
:101BC00001960E94DB0B019771F4898190E0F80186
:101BD00095878487F801848595850F90DF91CF9153
:101BE0001F910F9108958FEF9FEFF1CFFC01848536
:101BF000958597FD0BC09FB7F89482E08093E9002C
:101C00008091F2009FBF90E0019608959FB7F894ED
:101C100082E08093E9008091F2009FBF90E00895F8
:101C200020918301E0918101F0918201CF01029620
:101C30009093820180938101222319F085919491E0
:101C40000895808191810895CF92DF92EF92FF9263
:101C5000CF93DF930E94100E811520E8920791F434
:101C6000809171008D7F8093710010929100469851
:101C7000479810928001DF91CF91FF90EF90DF9015
:101C8000CF90089521E020938001813020E89207D1
:101C900051F480917E0190917F0190938201809315
:101CA00081010E94100E97FD05C020917D01222325
:101CB00009F454C020917C01211150C021E02093EF
:101CC0008401EC01DF77209709F04BC081E080931D
:101CD000850146983FE9C32E3FE0D32EE12CF12C3D
:101CE000CAEFD0E0E091FE06F091FF060995811160
:101CF00003C081E08093850180918401882329F0CD
:101D000080918501882309F43FC047980E94100EF6
:101D10000097F1F19C01DE010E94E327DC01CB0179
:101D200029E0B595A795979587952A95D1F71092B3
:101D300090002AE020939100D0929900C0929800E0
:101D40008093860190938701A0938801B0938901C5
:101D5000809171008260809371008DCF1092840118
:101D6000B0CF9E0150E040E060E472E48FE090E08C
:101D70000E94A22769017A0181E0C81AD108E1080E
:101D8000F10810928501AECF4699BFCF479ABECFDA
:101D90008FEF9FEFDC01CBCF90E00C942A0C8FB13A
:101DA0008095807F669B88601C9B846008955C980A
:101DB0008EBD00000DB407FEFDCF5C9A089590E142
:101DC000282F81E061FD84E060FD880F62FD82952F
:101DD000687F969FD0011124A20FA056BD4F0C9092
:101DE000082A40FF08260C920895CF92DF92EF92C6
:101DF000FF920F931F93CF93DF93EC016C01C60EFC
:101E0000D11C042F10E0065C1F4FCC15DD05D4F467
:101E10008AE3E82EF12CC8010134110514F080E4A6
:101E200090E0E816F90664F4C038D1052CF440E0DF
:101E3000B701CE010E94DF0E8FEFE81AF80AEBCF50
:101E40002196E3CFDF91CF911F910F91FF90EF90FB
:101E5000DF90CF900895CF93C82F0E94CF0E982F78
:101E60009C2381E09C1380E0CF91089580E00C9446
:101E70005A0B2F923F924F925F926F927F928F9266
:101E80009F92AF92BF92CF92DF92EF92FF920F9309
:101E90001F93CF93DF9300D000D01F92CDB7DEB752
:101EA000C22ED12C9601280F391F121613060CF0E2
:101EB00067C0803891050CF063C010E09801260FD0
:101EC000371F121613060CF05BC0603471050CF05E
:101ED00057C0EB823A012B011C01C60107969C01F9
:101EE00093E0359527959A95E1F73A832983B12CAC
:101EF000A12CF12CE12CE016F1060CF041C01D8262
:101F00001C824701840C951CEC81FD8183E0F595D2
:101F1000E7958A95E1F7EA0DFB1DE60DF71DE491C3
:101F20008C819D818770992720E830E002C035952B
:101F300027958A95E2F7C901F0E0E223F923EF2B18
:101F400079F08C819D81820D931D8038910540F43C
:101F500030E48316910420F44B81B4010E94DF0E1B
:101F60008C819D8101969D838C838C159D0564F2E7
:101F70009FEFE91AF90A29813A81A20EB31EBBCF5D
:101F80000F900F900F900F900F90DF91CF911F91B6
:101F90000F91FF90EF90DF90CF90BF90AF909F9008
:101FA0008F907F906F905F904F903F902F9008950B
:101FB000E62FEE0FEE7083FB662760F9E62B4830C4
:101FC00008F047E04295407FE40FF0E0E057FE4F15
:101FD00094918770E82FF0E0E857FE4FE491E923F1
:101FE00081E009F480E008954F925F926F927F92B2
:101FF0008F929F92AF92BF92CF92DF92EF92FF9219
:102000000F931F93CF93DF93CDB7DEB768970FB6CB
:10201000F894DEBF0FBECDBF7C0109ED11E0D80101
:102020002D913D914D915C91FC0160817181828186
:1020300093810E94F227698B7A8B8B8B9C8BD801C2
:1020400014962D913D914D915C911797F701648104
:102050007581868197810E94F2276D8B7E8B8F8B95
:10206000988FD80150968D919D910D90BC91A02D87
:1020700089879A87AB87BC87F80144845584668436
:10208000778480849184A284B38484899589A68985
:10209000B7898D879E87AF87B88BA3019201698529
:1020A0007A858B859C850E94A82A6B017C012D85F1
:1020B0003E854F855889C501B4010E94A82A9B011D
:1020C000AC01C701B6010E94F2279B01AC0160E0A0
:1020D00070E080E89FE30E94DB286B017C01298986
:1020E0003A894B895C89C301B2010E94A82A2B015D
:1020F0003C012D893E894F89588DC501B4010E944C
:10210000A82A9B01AC01C301B2010E94F227A701DA
:1021100096010E94A82A162FAB01BC0149835A835D
:102120006B837C836D857E858F85988990582989FE
:102130003A894B895C890E94A82A4B015C012D8950
:102140003E894F89588D69857A858B859C850E944B
:10215000A82A9B01AC01C501B4010E94F327A70185
:1021600096010E94A82AE62F462F572FBC014D83C7
:102170005E836F837887212F3A814B815C816E2F3C
:102180007E818F81988568960FB6F894DEBF0FBE6A
:10219000CDBFDF91CF911F910F91FF90EF90DF9016
:1021A000CF90BF90AF909F908F907F906F905F90F7
:1021B0004F90089587FD2EC067FD2CC0E62F062E98
:1021C000000CFF0B98E3211101C090E49E171F063D
:1021D00009F104F1262F25952595259550E825032D
:1021E00090011124F901E80FF11D87FDFA95CF0147
:1021F000E091F701F091F801E80FF91F2081677075
:1022000081E090E001C0880F6A95EAF7442319F055
:10221000822B8083089580958223FBCF1F93CF93D9
:10222000DF93182FC0E0C038C1F0D0E0112341F097
:10223000173058F020E040E06D2F8C2F0E94DA100C
:10224000DF5FD03499F7CF5FEECF412F6D2F8C2F0A
:102250000E94D80F8823A1F3EDCFDF91CF911F917A
:1022600008959F92AF92BF92CF92DF92EF92FF922A
:102270000F931F93CF93DF93C82EB62EC0E0EC2FA1
:10228000F0E0E75DFE4F8081841721F0882311F094
:10229000CF5FF5CF98E8E92E91E0F92EC0FF04C09A
:1022A0008CE8E82E81E0F82EC695D0E0C850DF4FCC
:1022B000D12CFE01A49010E000E09B2C9D0CF701B6
:1022C000E00FF11FE491EA2139F020E041E0692DAF
:1022D0008C2D800F0E94DA100F5F1F4F0430110504
:1022E00071F7D3946896F6E0DF12E3CFDF91CF91D8
:1022F0001F910F91FF90EF90DF90CF90BF90AF9024
:102300009F900895EF92FF920F931F93CF93DF93C7
:10231000062F7A01C82F10E0D4E0D20FC7FD0DC000
:10232000F701E10FF11D4491442339F0602F8C2F08
:102330000E9431111F5FCD0FF1CFDF91CF911F911F
:102340000F91FF90EF9008952F923F924F925F92DE
:102350006F927F928F929F92AF92BF92CF92DF92B5
:10236000EF92FF920F931F93CF93DF93CDB7DEB71A
:1023700061970FB6F894DEBF0FBECDBFD82E762E74
:102380005F834E8339872887A501940160E070E060
:1023900080E89FE30E94DB280E945429662E611189
:1023A00002C0662463942EE38FE190E02D153CF08B
:1023B0008D2DD7FC80E08595082E000C990B895651
:1023C0009E4FDC016C9170E090E080E00E948529D6
:1023D0001B012C0120E030E040EA51E4C501B401CA
:1023E0000E94A82A9B01AC01C201B1010E94D12820
:1023F00087FDC1C0B7010F2C000C880B990B0E9400
:102400008529A50194010E94DB280E945429562E9B
:10241000180183E0359427948A95E1F7E29CC00186
:10242000E39C900DF29C900D1124C89EF001C99E72
:10243000F00D1124FD83EC83F72C272D072C000CC5
:10244000330B3B872A87C801110FAA0BBB0B8C8764
:102450009D87AE87BF87AD2D0D2C000CBB0BB98BB4
:10246000A88B6F2D6719651508F085C070E08A8507
:102470009B85860F971FC89708F07BC0072E000C1E
:10248000880B990B0E948529A50194010E94A82A16
:102490000E945429629DC001639D900D1124EC811E
:1024A000FD81E80FF91FFA83E983CD2CC1946C8577
:1024B0007D858E859F850E948529A50194010E94B6
:1024C000DB280E9454296B8310E0FB811F1708F062
:1024D00050C0612F70E088899989860F971F8038D6
:1024E000910508F043C0072E000C880B990B0E9441
:1024F0008529A50194010E94A82A0E945429E62F4B
:10250000E695E695E69589819A818E0F911DE8857D
:10251000F985E80FF91F2491677070E068577E4FC6
:10252000FB013491E32FE22309F12E813F81820FD9
:10253000931FFC018491FB016491E62FE82344245E
:102540004394E11101C0412C012F0D0DE12C6E2DA2
:102550006F0D21E0442D802F0E94DA10E3946E105D
:10256000F6CF0F5F8C2D800F861580F3160DC618E1
:10257000ACCFF60C76CF61960FB6F894DEBF0FBEE7
:10258000CDBFDF91CF911F910F91FF90EF90DF9022
:10259000CF90BF90AF909F908F907F906F905F9003
:1025A0004F903F902F900895FF920F931F93CF93DA
:1025B000DF9300D000D0CDB7DEB7F82E1F926F9317
:1025C0008AE591E09F938F938E010F5F1F4F1F93BA
:1025D0000F930E94C52B0F900F900F900F900F90AC
:1025E0000F90F80141918F01442349F06AE38F2D48
:1025F0000E943111F5E0FF0E80E88F1590F70F90E3
:102600000F900F900F90DF91CF911F910F91FF903E
:102610000895CF93DF9346E06FE08CE090E00E9456
:10262000F50E46E065E082E390E00E94F50EC9ED0C
:10263000D1E06C8D8CE00E94D4126D8D82E3DF912D
:10264000CF910C94D412FC0101900020E9F731974E
:10265000AF01481B590BBC0180EA96E00C940C0DAD
:10266000CF93DF93EC018091920181111CC08DE525
:1026700091E00E94231384E691E00E94231380914D
:1026800071008D7F8093710081E080938301D093EE
:102690008201C0938101D0937F01C0937E01DF91BD
:1026A000CF910C94240E80E691E0E3CF8F929F921D
:1026B000AF92BF92CF92DF92EF92FF92CF93DF93D0
:1026C000EC017B01FB0120813181428153816881D2
:1026D00079818A819B810E94F2274B015C01F7017D
:1026E00024813581468157816C817D818E819F81D6
:1026F0000E94F2276B017C01A5019401C501B40180
:102700000E94A82A4B015C01A7019601C701B601EE
:102710000E94A82A9B01AC01C501B4010E94F327C5
:102720000E94232B20E030E040EA51E40E94A82AD6
:102730000E945429862FDF91CF91FF90EF90DF9078
:10274000CF90BF90AF909F908F9008952F923F921F
:102750004F925F926F927F928F929F92AF92BF92B1
:10276000CF92DF92EF92FF920F931F93CF93DF935D
:10277000CDB7DEB72C970FB6F894DEBF0FBECDBF36
:102780001C014A015B01280139011E2DFC01208139
:10279000318142815381CB01B4010E94F3270E9411
:1027A0004D2969877A878B879C87F985F03408F0F3
:1027B00042C0F1012481358146815781C301B201B4
:1027C0000E94F3270E944D296B01F8E3F61798F158
:1027D00089850E94390B8F3071F583ED9EE00E9450
:1027E000301396E0CC0CDD1C9A95E1F709851A852B
:1027F00011270C291D2924E0000F111F2A95E1F74C
:102800000F60C8012C960FB6F894DEBF0FBECDBF87
:10281000DF91CF911F910F91FF90EF90DF90CF90BC
:10282000BF90AF909F908F907F906F905F904F90F0
:102830003F902F90089511114EC0D12C8EE0C82EDC
:1028400080919F02D81608F046C02D2D30E0DC9C08
:10285000C00111248B5E9D4F28163906D1F1C29E0E
:10286000C001C39E900D11249C012D5E3D4F790146
:10287000F90100811181802F8F70823051F582859E
:102880008550823030F1A501940162817381848189
:1028900095810E94F22769837A838B839C83A301AD
:1028A0009201F70166817781808591850E94F227E8
:1028B0006D837E838F839887BE016F5F7F4FC101D9
:1028C0000E945613843028F4F7019485891708F480
:1028D00098CFD394B5CF10E000E093CF4F925F92A2
:1028E0006F927F928F929F92AF92BF92CF92DF9220
:1028F000EF92FF920F931F93CF93DF93EC012A0186
:102900003B014801590100E010E098010E94A61324
:102910006C019501840140E050E0BA01CE010E94B3
:10292000A6138C01CD2809F5A30192016881798154
:102930008A819B810E94F327688379838A839B83A2
:10294000012B11F181E090E0DF91CF911F910F9168
:10295000FF90EF90DF90CF90BF90AF909F908F90BF
:102960007F906F905F904F900895892B59F7A50144
:1029700094016C817D818E819F810E94F3276C83FD
:102980007D838E839F83DECFA50194016C817D8141
:102990008E819F810E94F3276C837D838E839F832A
:1029A00080E0D1CF0F920FB68F939F93EF93FF9359
:1029B0008091FC018D5F8D3708F08D578093FC016D
:1029C000EDEFF1E080818E4F808391819F4F918365
:1029D00082818F4F828383818F4F8383E1E0F2E096
:1029E00080818F5F808381818F4F818382818F4F30
:1029F000828383818F4F83838FB18F6066991C9B05
:102A000088278F3681F48091FB01981B963068F0FF
:102A1000E0E0F8E087E78083818388E180936000CD
:102A2000F0936000FFCF9093FB01FF91EF919F9196
:102A30008F910FBE0F9018951F920F920FB60F92A5
:102A400011248F939F938091E1009091E100937FF7
:102A50009093E10083FF0FC01092E90091E0909302
:102A6000EB001092EC0092E39093ED0010921202B2
:102A700098E09093F00082FF22C093E09093E900E9
:102A80009091F200992319F09AE39093E8009091C5
:102A90008F01992341F090918F01915090938F0174
:102AA000911101C05D9A90911102992341F090918A
:102AB0001102915090931102911101C0289A84FF44
:102AC00018C08091E2008E7E81608093E200809148
:102AD000E1008F7E8093E100809190018E7E806185
:102AE000809390019F918F910F900FBE0F901F9038
:102AF000189580FFF7CF8091E2008E7E80618093F1
:102B0000E2008091E1008E7E8093E100809190014F
:102B10008E7E8160E5CF1F920F920FB60F92112427
:102B2000CF92DF92EF92FF920F931F932F933F93D9
:102B30004F935F936F937F938F939F93AF93BF93C5
:102B4000EF93FF93CF93DF93CDB7DEB76C97DEBFE4
:102B5000CDBF1092E9008091E80083FF25C068E0B6
:102B6000CE0145960E94FF0C82EF8093E8008D898C
:102B700087FF39C09091E80090FFFCCF982F9076A6
:102B800009F034C19E894F89588D2F89F88C911195
:102B900031C0803861F5809191018093F1001092ED
:102BA000F1008EEF8093E8006C960FB6F894DEBFCC
:102BB0000FBECDBFDF91CF91FF91EF91BF91AF914C
:102BC0009F918F917F916F915F914F913F912F9145
:102BD0001F910F91FF90EF90DF90CF900F900FBE5D
:102BE0000F901F9018959EEF9093E800C7CF10921A
:102BF000F100D5CF913059F48111D3CF4130510537
:102C000081F6809191018D7F80939101CACF93309D
:102C100049F48111C6CF4130510519F680919101D7
:102C20008260F2CF953041F48091E80080FFFCCFC4
:102C300020682093E300B5CF963009F0A9C00B8D32
:102C40001C8D22E01092E90010928D0110928C01EF
:102C5000F2122EC010928B0110928A010E94CE0CAB
:102C60001F8299E09983FA8291E09E8390EA988787
:102C70009AEF998720918C0130918D01275F3F4F0A
:102C80003C832B838D831092E90010928D0110926A
:102C90008C0110938B0100938A0149E050E0BE0142
:102CA0006F5F7F4F80E00E94A80C0E94CE0C79CF0E
:102CB00010938B0100938A010E94160CDC0112967E
:102CC0000D911C910115110509F451C1D801ED9127
:102CD000FC910480F581E02DBE016B5E7F4FC80141
:102CE0000995009709F03EC1F80100851185EACFEA
:102CF000F3E0FF120EC08F89882309F440C08230B0
:102D000061F440E867E084E792E00E9404188111D2
:102D100048CF81E28093EB0047CF813029F440E82F
:102D20006BE088E692E0F1CF833099F70E94160CB1
:102D3000DC011296ED90FC908E010F5F1F4F680131
:102D4000E114F10479F0D701ED91FC910680F7814F
:102D5000E02DB801C7010995080F111DF701E084A6
:102D6000F184EECFD8011C92F60101900020E9F722
:102D70003197BF016C197D0940E0C601C6CF62E5FD
:102D800072E0FB01449150E080E80E94A80C09CF5A
:102D9000973009F4BECF983021F481E08093F100A0
:102DA00000CF993009F0FDCE837009F0B2CFE1E198
:102DB000F1E081E031E096E32191222371F08093EC
:102DC000E9003093EB00DF0111972C912093EC0088
:102DD0009093ED008F5F873079F78EE78093EA005C
:102DE0001092EA008F8980931202DBCE8B8D9C8D2E
:102DF0001092E90010928D0110928C0190938B013A
:102E000080938A01898D811192C08E899D89913A22
:102E100049F4813209F07DCF47E050E064E071E091
:102E200080E0B3CF913209F074CF833269F48F8997
:102E3000988DB0E0A0E08093000190930101A093F1
:102E40000201B0930301ADCE803269F48091E800B5
:102E500082FFFCCF67E084E091E00E94FF0C8BEFE3
:102E60008093E8009ECE823209F09BCE8F898093BA
:102E70000B01EEEFFFE7859194918B3F9C4D51F153
:102E8000E0E0F8E08091040190910501A091060135
:102E9000B0910701803B9440A105B105F1F4809108
:102EA0000B0180FD1AC0EE3F8AE0F80789F587E73D
:102EB00097E7918380838091600080938E0188E101
:102EC0009BE00FB6F894A895809360000FBE909396
:102ED000600067CEEEEFFAE0D5CF80819181873731
:102EE000974709F05ECEA895809160008861809335
:102EF000600080918E0180936000EE3F2AE0F2072F
:102F000089F08091FE0A9091FF0A9183808349CED7
:102F1000808191818737980751F29093FF0A8093BF
:102F2000FE0AC5CF1092FF0A1092FE0A3ACE0E9406
:102F3000160CDC0112960D911C910115110509F476
:102F4000E8CED801ED91FC910190F081E02DBE0119
:102F50006B5E7F4FC8010995811123CEF801008572
:102F60001185EBCF181619060CF41BCED2CEF1E06A
:102F7000FF12BECE66E572E004CF1F920F920FB62D
:102F80000F9211242F933F934F935F936F937F93EF
:102F90008F939F93AF93BF93EF93FF93809186019D
:102FA00090918701A0918801B09189010097A105B6
:102FB000B10539F120918501211105C0369A209182
:102FC00084012111379A0197A109B109B7FD08C001
:102FD0008093860190938701A0938801B093890123
:102FE000FF91EF91BF91AF919F918F917F916F91E1
:102FF0005F914F913F912F910F900FBE0F901F90B7
:1030000018950E94240EECCFEF92FF920F931F931E
:10301000CF93DF93F82E192FE62E042F81E0860F31
:10302000880F0E947A0C83E00E947A0CCF2DD12F5A
:10303000EC0EFD2EF11CCE15DF05B9F007FF13C015
:10304000FE0184910E947A0C182F80E00E947A0C75
:10305000812321968111EFCFDF91CF911F910F91A5
:10306000FF90EF9008958881EDCF81E0F5CFE0EA01
:10307000F6E01382128288EE93E0A0E0B0E0848351
:103080009583A683B7838BE191E0918380838FEF53
:103090009FEF9587848786E39BE09093FF0680935C
:1030A000FE0680E090E89093FD068093FC0646982B
:1030B0003E9A47983F9A0895CDB7DEB7C955D109D2
:1030C000DEBFCDBF789483E084BD83E085BD81E021
:1030D00080936E00E1E8F0E083E08083E0E881E047
:1030E0008083E1E983E08083E0E981E08083E1ECB3
:1030F00087E08083E3EC81E08083E0EC82E0808302
:10310000E2EC81E08083EAE787E080838068808367
:103110001092120210929101109290018091D700AA
:1031200081608093D70080EA8093D80089B5806160
:1031300089BD89B5826089BD09B400FEFDCF81E0FB
:1031400090E00E942A0C8091D8008F7C806180934F
:10315000D8008091E000807F8093E0008091E100C2
:103160008E7E8093E1008DE08093E200559A209A54
:103170008FEF9FEF9093AD068093AC0681EC809328
:103180007C0081EF85B987EE84B982E38BB982EF49
:103190008AB9769A6E9880EF81BB10BA80E58CBDB3
:1031A00081E08DBD85E00E94CC0E5F9A85E00E9493
:1031B000CC0E5C98ECE7F2E085918EBD00000DB47A
:1031C00007FEFDCFE938C1F75C9A81E8809364007F
:1031D000809165008160809365000E94360F1EEF2C
:1031E0000E94CF0E8AE090E00E942A0C1150C1F795
:1031F00080E80E942B0F882381F085EA0E94D70E79
:103200002E982F982D98809164008062809364009E
:1032100081E083BF889513BEFCCF84E00E942B0F12
:103220008823B9F12D9884E80E942B0F8823A1F000
:103230002D9A88EC0E94CC0E2F986FEF82E090E0E0
:103240000E94902784EF91E00E942A0C2F9A84E834
:103250000E942B0F8111FBCF84E10E942B0F88234A
:10326000A1F02D9A88EC0E94CC0E2E9860E082E0AE
:1032700090E00E94902784EF91E00E942A0C2E9A01
:1032800084E10E942B0F8111FBCF88EC0E94CC0EB1
:10329000C4CF2D9A82E090E00E948827882309F409
:1032A0005AC03E9A3F9A81E08093920181E090E07B
:1032B0000E948827082F0470D02E81FF0CC00111B6
:1032C0002E9801EF1FEF80E40E942B0F882309F452
:1032D00047C02E9A2F9A82E30E94CC0E0E94CF0EF6
:1032E0008111F9CF20EA32E0982FF90191119FEF77
:1032F0008FEF91939193919391938150D0F7309365
:10330000F8012093F70140E450E06FEF70E087E9A7
:1033100091E00E94BE2B8091FA01882309F490C0AD
:10332000813009F4B7C010E0812F0E940E110E9475
:10333000360F68E270E080E090E00E94560C1F5F5C
:10334000183091F71092F90180E090E0892B19F381
:103350000E940000E0CF109292013E983F98A6CFC5
:10336000DD2029F00430110511F42E9A2F9881E008
:103370000E945A0B202F2770C22E9801E3E035954A
:103380002795EA95E1F7C9019695982F8827979593
:10339000879580569D4F50E040E02E3F6FEF3607F7
:1033A00081F17C01A4E9EA0EF11CDC0170E060E02F
:1033B000FA01E757FD4F5F01F501E60FF71FE491B2
:1033C000F0E03F010C2C02C0660C771C0A94E2F777
:1033D0002F3F320739F054969C9054979628549674
:1033E0009C925497CC2021F0F701908097289082EE
:1033F0006F5F7F4FFFEFEF1AFF0A11966835710577
:10340000D9F62F5F3F4F80589F4F485A5F4F403B40
:10341000510509F0C2CF0E94360F8FE00E94CC0EFA
:103420000F5F1F4F0931110509F04DCFDD2011F05D
:103430002F9A2D9880E991E00E942A0C2D9A4BCF6B
:10344000EE24E3940FE228E444E453E065E070E006
:103450008CE190E00E94390F68EE73E080E090E02C
:103460000E94560C21E049E353E063E387E20E94A7
:1034700082110E94360F11E08091F901811153CF22
:1034800088E00E942B0F8823B9F31093FA01109360
:10349000F901F2CF08E310E0093308F03BC2602FD6
:1034A000812F0E94390B813009F034C2E1EFF1E045
:1034B00086E0DF011D928A95E9F7612F70E090E0C8
:1034C00080E00E94832920E030E040E05FE30E943A
:1034D000F3276093D9017093DA018093DB01909315
:1034E000DC01602F70E090E080E00E94832920E002
:1034F00030E040E05FE30E94F3276093DD017093CA
:10350000DE018093DF019093E00180E090E0A0E88D
:10351000BFE38093E1019093E201A093E301B093B4
:10352000E4011092E5011092E6011092E701109279
:10353000E8011092E9011092EA011092EB01109259
:10354000EC0183EC95EFA8E2BFEB8093ED01909343
:10355000EE01A093EF01B093F00184E68093F501B2
:103560001CAE2A961FAE2A9729961FAE2997B7E060
:103570002896BFAF28970E946E0CC0909301D09000
:103580009401E0909501F09096016C197D098E09E7
:103590009F090E94832925E535E545E852E40E940C
:1035A000D12887FDE8CF0E946E0C6C197D098E0929
:1035B0009F090E94832925E535E545E852E40E94EC
:1035C000DB2860930C0170930D0180930E019093A2
:1035D0000F010E946E0C609393017093940180938D
:1035E000950190939601E091F701F091F80180E840
:1035F00093E0DF018C011D9201501040E1F78091B2
:10360000F501882309F449C380E80E942B0F882321
:1036100009F486C1C090F101D090F201E090F3016D
:10362000F090F401A70196016DEC7CEC8CE49EE334
:103630000E94F2272DEC3CEC4CEC5EE30E94A82AA1
:10364000A70196010E94F3276B017C01C092F10152
:10365000D092F201E092F301F092F40120E030E028
:10366000A9010E949B2A18160CF07DC120E030E0D1
:1036700040EA50E4C701B6010E94A82A21966CAF27
:103680007DAF8EAF9FAF219780E40E942B0F8823E0
:1036900009F471C12FE832EC45EF5DE360910C0154
:1036A00070910D0180910E0190910F010E94A82A46
:1036B0006B017C018090E1019090E201A090E30118
:1036C000B090E4010E94D6282B013C012091E50135
:1036D0003091E6014091E7015091E80128AB39AB08
:1036E0004AAB5BABC701B6010E94152B6CAB7DAB3F
:1036F0008EAB9FABA3019201C501B4010E94A82A21
:1037000068AF79AF8AAF9BAF2CA93DA94EA95FA93D
:1037100068A979A98AA99BA90E94A82A9B01AC0142
:1037200068AD79AD8AAD9BAD0E94F3276093E1014E
:103730007093E2018093E3019093E401C701B60125
:1037400090580E94152B68AF79AF8AAF9BAF9B0151
:10375000AC01C501B4010E94A82A6B017C0128A913
:1037600039A94AA95BA9C301B2010E94A82A9B01F9
:10377000AC01C701B6010E94F3276093E501709385
:10378000E6018093E7019093E8018090E901909031
:10379000EA01A090EB01B090EC01C090ED01D09057
:1037A000EE01E090EF01F090F001A5019401C3015A
:1037B000B2010E94A82A68AB79AB8AAB9BABA70188
:1037C00096016CA97DA98EA99FA90E94A82A9B0198
:1037D000AC0168A979A98AA99BA90E94F3276093E3
:1037E000E9017093EA018093EB019093EC01A5014C
:1037F000940168AD79AD8AAD9BAD0E94A82A4B01BA
:103800005C01A7019601C301B2010E94A82A9B0195
:10381000AC01C501B4010E94F3276093ED017093E0
:10382000EE018093EF019093F0010E946E0C0E94D4
:1038300083292AE037ED43EA5BE30E94A82A0E942D
:10384000152B20E030E0A9010E949B2A18160CF0ED
:1038500047C10E946E0C0E9483292AE037ED43EA9B
:103860005BE30E94A82A0E94152B20E030E040EC88
:1038700050E40E94A82A9B01AC0121966CAD7DAD5D
:103880008EAD9FAD21970E94A82A6CAB7DAB8EAB0D
:103890009FAB2DEC3CEC4CEB50E40E949B2A18169D
:1038A0006CF42A963FAD2A97332309F427C185EC9F
:1038B0009EE00E9430132A961FAE2A975CAD5331CA
:1038C00008F425C151505CAFC090F101D090F201D5
:1038D000E090F301F090F40120E030E0A901C7018D
:1038E000B6010E949B2A18160CF006C226EA3BE994
:1038F00044E45BE3C701B6010E949B2A18160CF44E
:1039000005C21092F1011092F2011092F30110928F
:10391000F4012FC21F5F103409F0BECD0150BBCDA2
:1039200080E10E942B0F882379F0C090F101D090A4
:10393000F201E090F301F090F401A70196016DEC23
:103940007CEC8CE49EEB74CE20E030E040E05FE362
:103950006091F1017091F2018091F3019091F40175
:103960000E94A82A71CEC701B601905820E030E02D
:1039700040EA50E481CE80E20E942B0F882309F4B4
:1039800054CF2FE832EC45EF5DE360910C0170916C
:103990000D0180910E0190910F010E94A82A4B0108
:1039A0005C01C090E101D090E201E090E301F09071
:1039B000E4010E94D62868AB79AB8AAB9BAB409000
:1039C000E5015090E6016090E7017090E801C501C3
:1039D000B4010E94152B6CAB7DAB8EAB9FAB28A9BD
:1039E00039A94AA95BA9C701B6010E94A82A4B01BF
:1039F0005C012CA93DA94EA95FA9C301B2010E9497
:103A0000A82A9B01AC01C501B4010E94F227609372
:103A1000E1017093E2018093E3019093E4012CA90A
:103A20003DA94EA95FA9C701B6010E94A82A6B0152
:103A30007C01A301920168A979A98AA99BA90E9486
:103A4000A82A9B01AC01C701B6010E94F32760932D
:103A5000E5017093E6018093E7019093E80180907F
:103A6000E9019090EA01A090EB01B090EC01C090C8
:103A7000ED01D090EE01E090EF01F090F001A50192
:103A8000940168A979A98AA99BA90E94A82A2B0157
:103A90003C01A70196016CA97DA98EA99FA90E944E
:103AA000A82A9B01AC01C301B2010E94F2276093D6
:103AB000E9017093EA018093EB019093EC01A50179
:103AC00094016CA97DA98EA99FA90E94A82A4B01E7
:103AD0005C01A701960168A979A98AA99BA995CE3D
:103AE0000E946E0C0E9483292AE037ED43EA5BE3D3
:103AF0000E94A82A0E94152B9058B7CE87EB9EE013
:103B00000E94301341E02A964FAF2A97D7CE6CAD72
:103B1000623119F06E5F6CAFD7CE29968FAD2997C1
:103B200081110C945D2688E00E942B0F29968FAF9F
:103B30002997882309F4C8CE8BEE94E00E943013B5
:103B400000E01EE074E0B72E80919F02081708F095
:103B5000D0C0802E912C189DF001199DF00D1124DC
:103B6000ED5EFD4F80818F70823051F582858550EA
:103B7000823030F1019FC00111248B5E9D4F0E9465
:103B8000F40F29833A834B835C836D837E838F8319
:103B90009887C980DA80EB80FC8020E030E0A901C2
:103BA000C701B6010E949B2A181664F020E030E09D
:103BB00040EA51ECC701B6010E949B2A181664F036
:103BC0000F5FC2CF20E030E040EA51E4C701B60108
:103BD0000E94D12887FFF4CF20E030E0A9016D8159
:103BE0007E818F8198850E949B2A18164CF720E0D1
:103BF00030E0A901C701B6010E949B2A181624F0E3
:103C0000F7FAF094F7F8F094189DF001199DF00D73
:103C10001124ED5EFD4F648570E090E080E00E942D
:103C20008529A70196010E94A82A9B01AC0160E0AA
:103C300070E080E791E40E94DB2820E030E040EA79
:103C400050E40E94DB286B017C0120E030E040E77B
:103C500051E40E949B2A1816F4F0C701B6010E9495
:103C60005429662309F4ACCF189DF001199DF00D7D
:103C70001124ED5EFD4F8385861B990B97FD80E037
:103C80008387189DF001199DF00D1124ED5EFD4F05
:103C9000B286B58695CF6FE0E7CF20E030E040E216
:103CA00051EC6CA97DA98EA99FA90E949B2A181688
:103CB000ACF420E030E040E85FE36CA97DA98EA978
:103CC0009FA90E94F2276CAB7DAB8EAB9FAB9CADE6
:103CD000923008F4F9CD92509CAFF6CD88E00E9466
:103CE0002B0F8823A1F31092FA0181E08093F90150
:103CF000EECFA6E1ACAFE8CD26EA3BE944E45BEBCE
:103D0000C701B6010E94D12887FFFBCD80900C012E
:103D100090900D01A0900E01B0900F012091E5014F
:103D20003091E6014091E7015091E801C701B601E9
:103D30000E94A82AA50194010E94A82A2B013C01F7
:103D40002091E1013091E2014091E3015091E401C1
:103D5000C701B6010E94A82AA50194010E94A82AC1
:103D6000AB01BC01E12C9301820189ED91E00E943D
:103D70006E14212C6EE0362E00919F02201608F062
:103D8000C6C1622C712C239C70011124F701EB5EDB
:103D9000FD4FF9ABE8ABBF0189ED91E00E945613EE
:103DA000F701ED5EFD4F84879585992311F09150C1
:103DB0009587893C60F0369CF001379CF00D11240A
:103DC000ED5EFD4F808191810E94A60BD5CF369C80
:103DD0009001379C300D1124A9014D5E5D4F6A01A1
:103DE000DA011A962C911A97263011F42394C4CF35
:103DF000FA0190819F70983009F45FC188F4923085
:103E0000A9F71B969C911B97911120C0253071F347
:103E100085E01A968C931A97E6E01D96EC93E6CF10
:103E2000993009F463C19A3009F7823008F005C16E
:103E30008091F501843108F484E184518093F50187
:103E400001E00093D8010E940913B5CF243071F42A
:103E5000D6011D968C911D978111C8CFE1E01A966D
:103E6000EC931A9788E21D968C93C0CF223081F391
:103E700099EF980F369CF001379CF00D1124ED5E00
:103E8000FD4F993408F0B3C0213039F0EE24E394AB
:103E9000E28654E1F52EF586A9CF1585111131C0C2
:103EA00086809780A084B184C280D380E480F5802E
:103EB0000A3008F05CC7C501B4010E945429562E8F
:103EC000C701B6010E945429462E20E4529EC0012B
:103ED0001124842944E0880F991F4A95E1F78A60EC
:103EE00023E132E0011709F4F0C6225F3F4FF901E8
:103EF0003E97408151814817590709F438C71F5F21
:103F0000F1CFC090DD01D090DE01E090DF01F090B4
:103F1000E00186809780A084B184A5019401C70147
:103F2000B6010E949B2A2AE037ED43EA5CE31816AB
:103F30007CF0A5019401C701B6010E94D1282AE0B6
:103F400037ED43EA5CEB87FD03C020E030E0A901D8
:103F5000C0900C01D0900D01E0900E01F0900F0187
:103F6000C701B6010E94A82A68AF79AF8AAF9BAF9C
:103F70008090D9019090DA01A090DB01B090DC0133
:103F8000369CF001379CF00D1124ED5EFD4F428010
:103F9000538064807580A3019201C501B4010E9421
:103FA0009B2A2AE037ED43EA5CE318167CF0A30174
:103FB0009201C501B4010E94D1282AE037ED43EAFD
:103FC0005CEB87FD03C020E030E0A901C701B6012A
:103FD0000E94A82AAB01BC01EE24E39408AD19AD00
:103FE0002AAD3BAD88A999A90E946E14FFCE8730F7
:103FF00010F5233031F0B3E0B2873AE0E32EE586E6
:10400000F5CE85858111F2CE8091F501883008F4D6
:1040100088E088508093F501369CF001379CF00DC4
:104020001124ED5EFD4F3586FF24F394F092D80104
:104030000E940913DBCE1286D9CE1B966C9170E0DC
:1040400090E080E00E94832920E030E044E352E4E5
:104050000E94DB282BED3FE049E450E40E94A82AAF
:104060002B013C010E94152B4B015C01C301B201E5
:104070000E94D6282B013C012DEC3CEC4CE45EE385
:10408000C501B4010E94A82A4B015C012DEC3CEC57
:104090004CE45EE3C301B2010E94A82AAB01BC015B
:1040A000EE24E3949501840188A999A90E946E14D5
:1040B000892B09F49BCEF60185CE863008F096CE8A
:1040C00087E996E00E943013E6E0D6011A96EC9359
:1040D0008091F501833308F082E38E5C8093F501D3
:1040E0000E940913F1E0F093D80180CE863008F0E9
:1040F0007DCE8DE295E00E943013E6E0D6011A965F
:10410000EC938091F6018F5F8093F601E9CF0E94D6
:104110003E0C6A966CAF7DAF8EAF9FAF6A9718AAC0
:10412000E8A86E2D70E090E080E00E9483299B015A
:10413000AC010E94F32720E030E040E05CE30E9405
:10414000A82A20E030E040E85FE30E94F2276B01FC
:104150007C012091E9013091EA014091EB015091FD
:10416000EC010E94A82A2091E1013091E2014091E6
:10417000E3015091E4010E94F3272E966CAF7DAFCE
:104180008EAF9FAF2E972091ED013091EE014091BF
:10419000EF015091F001C701B6010E94A82A2091B9
:1041A000E5013091E6014091E7015091E8010E945C
:1041B000F32762966CAF7DAF8EAF9FAF6297C090D2
:1041C000D901D090DA01E090DB01F090DC01C70169
:1041D000B6010E945429262E8090DD019090DE01C8
:1041E000A090DF01B090E001C501B4010E94542904
:1041F000362EC982DA82EB82FC828D829E82AF8269
:10420000B8862E962CAD3DAD4EAD5FAD2E9760E0DD
:1042100070E080E89FE30E94DB2868AF79AF8AAF47
:104220009BAF20E030E0A9010E949B2A18164CF0B9
:1042300008AD19AD2AAD3BAD305808AF19AF2AAF64
:104240003BAF62962CAD3DAD4EAD5FAD629760E089
:1042500070E080E89FE30E94DB2825966CAF7DAF7D
:104260008EAF9FAF259720E030E0A9010E949B2AE6
:1042700018166CF025962CAD3DAD4EAD5FAD259773
:10428000505825962CAF3DAF4EAF5FAF2597622DAE
:1042900070E090E080E00E9485292B013C0120E045
:1042A00030E0A9012E966CAD7DAD8EAD9FAD2E9701
:1042B0000E94D12887FF61C1A3019201C701B60105
:1042C0000E94F22728AD39AD4AAD5BAD0E94A82A05
:1042D0006B017C011FEF63961FAF6397632D70E046
:1042E00090E080E00E9485292B013C0120E030E035
:1042F000A90162966CAD7DAD8EAD9FAD62970E94B7
:10430000D12887FF50C1A3019201C501B4010E94C9
:10431000F22725962CAD3DAD4EAD5FAD25970E94A1
:10432000A82A2B013C011FEF64961FAF64971CE085
:1043300066961FAF6697A7019601C301B2010E945E
:104340009B2A18160CF047C128AD39AD4AAD5BADBC
:10435000C701B6010E94F3276B017C0163961FAD74
:104360006397210E10E02FE3221508F47BC138E398
:10437000331508F477C1632D822D0E94390B082F65
:104380008F3009F03AC1111189C1622D70E090E0BF
:1043900080E00E9485292091D9013091DA01409175
:1043A000DB015091DC010E94F2276B017C0161E08E
:1043B00070E063965FAD6397651B710957FD739558
:1043C00075956795072E000C880B990B0E9485291F
:1043D0009B01AC01C701B6010E94F3272E962CADBC
:1043E0003DAD4EAD5FAD2E970E94DB286B017C0189
:1043F00020E030E040E85FE30E94D12887FF06C05C
:10440000C12CD12C00E8E02E0FE3F02E20E030E0AC
:1044100040EA51E4C701B6010E94A82A4B015C01A1
:1044200020E030E04FE753E40E94D1286FEF87FF90
:1044300004C0C501B4010E945429E8A9E695F0E042
:10444000E956FE4F6083110F08E0011B20E030E0C9
:1044500040E451E4C701B6010E94DB2820E030E0CF
:1044600040E051E40E94A82A0E944D29061BA701A2
:1044700096016CA97DA98EA99FA90E94DB284B01FA
:104480005C01A701960160E070E080E692E40E9482
:10449000DB280E945429669570E090E080E00E943D
:1044A00085296B017C01AC019B01C501B4010E940F
:1044B000F32720E030E040EE51E40E94F3270E9411
:1044C0004D29162FA7019601C501B4010E94F227BC
:1044D00020E030E040EE51E40E94F3270E944D2995
:1044E000A12E61170CF4A62EA7FCA12CF12E1617F5
:1044F0000CF4F62E96E39F1514F417E3F12E98A80A
:1045000093949394E8A8B12C1A2DCE2CD12CF116AB
:104510000CF4F4C0A12FA7706596AFAF659780E04B
:10452000002341F081E0073028F4402F612F8E2DC9
:104530000E94D80F90E065960FAC659702C0880F77
:10454000991F0A94E2F7B82A6596BFAD6597B73010
:1045500091F4E12FE695E695E695F0E8EF9FC0012E
:104560001124E091F701F091F801E80FF91FEC0D2B
:10457000FD1DB082B12C1F5FCACF20E030E040E8C3
:104580005FE3C301B2010E94F327A70196010E94D5
:10459000F22728AD39AD4AAD5BAD0E94A82A6B0168
:1045A0007C0111E098CE20E030E040E85FE3C301F9
:1045B000B2010E94F327A50194010E94F2272596DB
:1045C0002CAD3DAD4EAD5FAD25970E94A82A2B01C5
:1045D0003C0111E0A9CE25962CAD3DAD4EAD5FADB1
:1045E0002597C301B2010E94F3272B013C01649679
:1045F0001FAD6497310E11E0B6CE823011F003FF8B
:10460000EBC3BE016F5F7F4F89ED91E00E945613AF
:10461000883C08F0E1C340E4349E40011124822824
:1046200024E0880C991C2A95E1F7802A27968EAD04
:104630009FAD27978815990509F4CEC310919F0265
:1046400023E132E080E0181709F49DC3225F3F4F59
:10465000F9013E97408151818416950609F4BCC347
:104660008F5FF1CF00E0CBCFFEE0F19FC0011124BE
:104670009C012D5E3D4F590100E0232D422D69E044
:1046800098C33EE0319FC0011124AC014D5E5D4FE7
:104690005A0100E0232D422D68E08BC3632D70E0AA
:1046A00090E080E00E9485292091DD013091DE01BB
:1046B0004091DF015091E0010E94F2276B017C01E3
:1046C00061E070E064968FAD6497681B710987FDA7
:1046D000739575956795072E000C880B990B0E94B2
:1046E00085299B01AC01C701B6010E94F3276296A0
:1046F0002CAD3DAD4EAD5FAD629776CE65962FADDC
:104700006597273089F0115016951695169530E863
:10471000139FC0011124E091F701F091F801E80F17
:10472000F91FEE0DF11DB082E3949E1409F45DC3F0
:10473000EACE8BE0B2C381E0B0C3312C4EE0242E30
:1047400080919F02381608F090C1C32CD12C2C9C6C
:10475000C0012D9C900D1124FC01ED5EFD4F7F01E9
:104760001285163009F45CC08B5E9D4F0E94F40FD9
:1047700029833A834B835C836D837E838F83988701
:104780008D809E80AF80B8842DEC3CEC4CEC5DE3DA
:10479000C501B4010E94D12818160CF041C020E0D8
:1047A00030E040E051E4C501B4010E949B2A181694
:1047B000BCF1A501940169817A818B819C810E9461
:1047C000DB2820E030E040E85FE30E94F32720E0B0
:1047D00030E040E852E40E94A82A0E944D292B01B3
:1047E000CB01805C9F4F81309140D0F4A5019401B2
:1047F0006CA97DA98EA99FA90E94DB2820E030E04A
:1048000040EE51E40E94F3270E944D29062FD70164
:104810008C918F70883009F4B4C020F48230D1F1CB
:1048200033948ECF893009F4EAC08A30C9F7A501E4
:10483000940160E070E080E091E40E94DB286B016D
:104840007C01602F000F770B880B990B0E94852944
:10485000A70196010E94F2270E944D2968ABB20180
:10486000550C880B990B0E948529A70196010E947F
:10487000F2270E944D29862FC12C20E1E22EF12C37
:1048800000E110E025E338E045E558E068A90E9422
:10489000A411C6CF113009F04DC00E946E0C24EF58
:1048A00031E040E050E00E94C127C90162E070E0C1
:1048B0000E94902B182F602F000F770B880B990BFD
:1048C0000E9485296B017C01A501940160E070E0E4
:1048D00080E091E40E94DB289B01AC01C701B60196
:1048E0000E94F2270E944D29D62EB201550C880B4A
:1048F000990B0E9485292B013C01A501940160E0E0
:1049000070E080E891E40E94DB289B01AC01C301C8
:10491000B2010E94F2270E944D29862FC12E30E25B
:10492000E32EF12C00E210E025E738E045EF5AE0F5
:104930006D2DADCF123009F4BECF1430F1F013302D
:1049400071F42C9CF0012D9CF00D1124ED5EFD4FB7
:10495000858512E08B3008F0AECF11E0ACCF15307A
:1049600071F42C9CF0012D9CF00D1124ED5EFD4F97
:10497000858514E0882309F49ECF13E09CCF10E0D6
:104980009ACF602F000F770B880B990B0E94852917
:104990006B017C01A501940160E070E080EA90E485
:1049A0000E94DB289B01AC01C701B6010E94F327DE
:1049B0000E944D29D62EB201550C880B990B0E94EE
:1049C00085292B013C01A501940160E070E080E0A5
:1049D00091E40E94DB289B01AC01C301B2010E945B
:1049E000F2270E944D29862FC12C90E1E92EF12C4F
:1049F00000E110E025EB37E045EF57E099CF602F5D
:104A0000000F770B880B990B0E9485296B017C01A5
:104A1000A501940160E070E080EA90E40E94DB2848
:104A20009B01AC01C701B6010E94F3270E944D29EA
:104A3000D62EB201550C880B990B0E9485292B01AB
:104A40003C01A501940160E070E080E091E40E94E7
:104A5000DB289B01AC01C301B2010E94F2270E9436
:104A60004D29862FCC24C394C0CF0E946E0C0E9487
:104A700083292AE037ED43EA5BE30E94A82A0E94DB
:104A8000152B20E030E040E251E40E94A82A219654
:104A90002CAD3DAD4EAD5FAD21970E94A82A20E020
:104AA00030E040E452E40E94F3270E944D29A62EF4
:104AB00068E370E0BCAD6B1B7109072E000C880B1E
:104AC000990B0E9485296B017C010E946E0C0E944B
:104AD00083292AE037ED43EA5BE30E94A82A0E947B
:104AE000D62820E030E0A9010E949B2A18160CF07D
:104AF000A7C00E946E0C0E9483292AE037ED43EA8A
:104B00005BE30E94A82A0E94D62820E030E040E023
:104B100051E40E94A82A9B01AC0121966CAD7DADA9
:104B20008EAD9FAD21970E94A82AA70196010E94F1
:104B3000F3270E944D29162F862E660F99080A2CFE
:104B4000000CBB08ECADE53168F0EE24E39404E121
:104B500028E145E75EE0B4016B507109C501069696
:104B60000E94390FC4018096183114F088E390E058
:104B70006C01C818D908D7FCC12CE12C0C2D20E2FF
:104B800045EF5DE0B401C5010E94390FEE24E394C6
:104B900020E245E75DE0B401C5010E94390F289687
:104BA000FFAD2897FF2309F459C08F2F0E940E11E3
:104BB00028960FAD2897015028960FAF289701111E
:104BC00010C020E044EB5EE06AE382E00E948211C4
:104BD00020E041EB5EE06AE388E20E9482110E94DD
:104BE00009139091D8018091D701992309F45DC0F0
:104BF00021E082278093D70191509093D801809132
:104C0000D701882309F457C087EA0E94D70E0E9473
:104C1000360F80E20E942B0F882351F080E40E941F
:104C20002B0F882329F01092FA0181E08093F9017B
:104C30008091F901882311F40C94BB1A0C949319F8
:104C40000E946E0C0E9483292AE037ED43EA5BE361
:104C50000E94A82A0E94D628905857CF46E066E4C2
:104C60008AE390E00E94F50E25E535E545E852E43B
:104C700060910C0170910D0180910E0190910F01D6
:104C80000E94A82A9B01AC0160E070E08AE794E4EE
:104C90000E94DB280E944D2982E70E94D412609175
:104CA0009F0282E50E94D4129CCF882309F4A7CFEB
:104CB0001092D701A4CF86EAA8CF88E00E942B0FDC
:104CC00029968FAF29970C94641C2091D9013091BB
:104CD000DA014091DB015091DC01C701B6010E946D
:104CE000F2276B017C012091DD013091DE014091C2
:104CF000DF015091E001C501B4010E94F227A70134
:104D000096010E9472282BED3FE049E450E40E9496
:104D1000DB2820E030E044E352E40E94A82A20E0AF
:104D200030E044E352E40E94F3270E944D29AB0196
:104D300077FF03C0AB01465A5F4F319E90011124AB
:104D4000C9018D5E9D4F7C01042F252D442D6AE005
:104D5000CE0182960E94690BFE01B296D701832D87
:104D600001900D928A95E1F71F5F10939F02369C88
:104D7000F001379CF00D1124ED5EFD4F92E092871B
:104D8000A6E0A58733C81A3018F5083009F479CCA5
:104D9000093009F469CC0230D9F4AEE0A19FC0011A
:104DA0001124FC01ED5EFD4F5F0104E6232D422D31
:104DB00062E0CE0182960E94690BFE01B296D50197
:104DC0008EE001900D928A95E1F71F5F10939F028C
:104DD00027969FAE8EAE279766961FAD66971150A9
:104DE00066961FAF66971111A6CA18A91E5F18AB69
:104DF000103809F095C987E691E00E9423130E94BC
:104E00003E0C9B01AC016A96ECACFDAC0EAD1FAD47
:104E10006A972E193F09400B510B19A28E010F5DA5
:104E20001F4FCA01B9012AE030E040E050E00E9483
:104E3000C127605DD8016E938D01211531054105B3
:104E4000510579F7109719F0CD010E94231387E7D8
:104E500091E00E94231384E691E00E942313E0E096
:104E600080919F02AAE0EA2E0DE010E0C82ED12C1E
:104E7000BEE0FB2E823018F4EE2309F45ECC8E9D4A
:104E8000C0011124B8010E94902B862F6950623016
:104E900008F44FCC882309F44ECC90E0E0E0B60152
:104EA000681B7109292F30E0261737071CF7F29E7F
:104EB000A001F39E500D11244D5E5D4F280FF29E10
:104EC000900111242D5E3D4FDA011C96BC90D90152
:104ED0001C96FC91BF16D0F4EEE0BE2EFA01DE0166
:104EE000119601900D92BA94E1F7FEE0BF2EF90100
:104EF000DA0101900D92BA94E1F74EE0FE0131968D
:104F0000D90101900D924A95E1F7E1E09F5FCACF88
:104F1000F999FECF92BD81BDF89A992780B5089581
:104F2000262FF999FECF92BD81BDF89A019700B462
:104F3000021639F01FBA20BD0FB6F894FA9AF99A02
:104F40000FBE0895052E97FB1EF400940E94B9270A
:104F500057FD07D00E94C12707FC03D04EF40C94E4
:104F6000B92750954095309521953F4F4F4F5F4F52
:104F7000089590958095709561957F4F8F4F9F4FC5
:104F80000895A1E21A2EAA1BBB1BFD010DC0AA1F8A
:104F9000BB1FEE1FFF1FA217B307E407F50720F0A2
:104FA000A21BB30BE40BF50B661F771F881F991F1D
:104FB0001A9469F760957095809590959B01AC0166
:104FC000BD01CF010895A29FB001B39FC001A39F6F
:104FD000700D811D1124911DB29F700D811D112432
:104FE000911D08955058BB27AA270E940A280C94A7
:104FF0004D2A0E94142A38F00E941B2A20F039F40E
:105000009F3F19F426F40C94EA290EF4E095E7FB8F
:105010000C94E429E92F0E94722A58F3BA17620708
:1050200073078407950720F079F4A6F50C94942A69
:105030000EF4E0950B2EBA2FA02D0B01B9019001B3
:105040000C01CA01A0011124FF27591B99F0593FF7
:1050500050F4503E68F11A16F040A22F232F342F3F
:105060004427585FF3CF469537952795A795F0408D
:105070005395C9F77EF41F16BA0B620B730B840BA2
:10508000BAF09150A1F0FF0FBB1F661F771F881F5A
:10509000C2F70EC0BA0F621F731F841F48F48795B2
:1050A00077956795B795F7959E3F08F0B0CF9395A4
:1050B000880F08F09927EE0F9795879508950E941D
:1050C000142A60F080E891E009F49EEF0E941B2A08
:1050D00028F040E851E071F45EEF0CC00C94EA292E
:1050E0000C94942AE92FE0780E94722A40F3092E4A
:1050F000052AB1F3261737074807590738F00E2E4F
:1051000007F8E02569F0E025E0640AC0EF6307F8DE
:10511000009407FADB01B9019D01DC01CA01AD0170
:10512000EF930E94F2280E944D2A0E94A2285F91CC
:10513000552339F02BED3FE049E450FD49EC0C9448
:10514000F3270895DF93DD27B92FBF7740E85FE3AA
:105150001616170648075B0718F4D92F0E94A02AD5
:105160009F938F937F936F930E94632BECEAF0E001
:105170000E94ED290E944D2A2F913F914F915F91FE
:105180000E94BB2ADD2351F09058A2EA2AED3FE0AD
:1051900049EC5FE3D0785D270E940A28DF910C94E8
:1051A0004D2A0E94C02908F481E008950E94242A13
:1051B000E3950C945E2A0E94EF280C944D2A0E94DD
:1051C0001B2A58F00E94142A40F029F45F3F29F06E
:1051D0000C94E42951110C94952A0C94EA290E940C
:1051E000722A68F39923B1F3552391F3951B550B5C
:1051F000BB27AA2762177307840738F09F5F5F4FAA
:10520000220F331F441FAA1FA9F335D00E2E3AF0E8
:10521000E0E832D091505040E695001CCAF72BD000
:10522000FE2F29D0660F771F881FBB1F2617370751
:105230004807AB07B0E809F0BB0B802DBF01FF2783
:1052400093585F4F3AF09E3F510578F00C94E42953
:105250000C94952A5F3FE4F3983ED4F386957795B6
:105260006795B795F7959F5FC9F7880F911D96953C
:10527000879597F90895E1E0660F771F881FBB1F98
:10528000621773078407BA0720F0621B730B840B45
:10529000BA0BEE1F88F7E09508950E945429689490
:1052A000B1110C94952A08950E947A2A88F09F578C
:1052B00098F0B92F9927B751B0F0E1F0660F771F3A
:1052C000881F991F1AF0BA95C9F714C0B13091F030
:1052D0000E94942AB1E008950C94942A672F782FA5
:1052E0008827B85F39F0B93FCCF3869577956795F5
:1052F000B395D9F73EF490958095709561957F4F61
:105300008F4F9F4F0895E89409C097FB3EF4909506
:105310008095709561957F4F8F4F9F4F9923A9F08E
:10532000F92F96E9BB279395F6958795779567951D
:10533000B795F111F8CFFAF4BB0F11F460FF1BC061
:105340006F5F7F4F8F4F9F4F16C0882311F096E9F4
:1053500011C0772321F09EE8872F762F05C06623A2
:1053600071F096E8862F70E060E02AF09A95660F5B
:10537000771F881FDAF7880F9695879597F9089514
:10538000990F0008550FAA0BE0E8FEEF1616170656
:10539000E807F907C0F012161306E407F50798F0BE
:1053A000621B730B840B950B39F40A2661F0232BD7
:1053B000242B252B21F408950A2609F4A140A69553
:1053C0008FEF811D811D089597F99F6780E870E038
:1053D00060E008959FEF80EC0895DF93CF931F93D3
:1053E0000F93FF92EF92DF927B018C01689406C0CD
:1053F000DA2EEF010E94BB2AFE01E894A5912591C7
:10540000359145915591A6F3EF010E940A28FE01BE
:105410009701A801DA9469F7DF90EF90FF900F9160
:105420001F91CF91DF91089500240A941616170654
:1054300018060906089500240A9412161306140685
:10544000050608950C94EA290E947A2AD8F3E89474
:10545000E0E0BB279F57F0F02AED3FE049EC06C0A3
:10546000EE0FBB0F661F771F881F28F0B23A620746
:105470007307840728F0B25A620B730B840BE39511
:105480009A9572F7803830F49A95BB0F661F771F94
:10549000881FD2F790480C94692B092E0394000CB6
:1054A00011F4882352F0BB0F40F4BF2B11F460FFBE
:1054B00004C06F5F7F4F8F4F9F4F0895EF93E0FFC2
:1054C00007C0A2EA2AED3FE049EC5FEB0E940A2800
:1054D0000E944D2A0F90039401FC9058E9EDF0E0F2
:1054E0000C947C2B57FD9058440F551F59F05F3F8B
:1054F00071F04795880F97FB991F61F09F3F79F0F6
:1055000087950895121613061406551FF2CF469577
:10551000F1DF08C0161617061806991FF1CF8695F9
:105520007105610508940895E894BB2766277727DD
:10553000CB0197F908950E94C02908F48FEF0895D0
:105540009B01AC0160E070E080E89FE30C94DB28F5
:105550000E94BB2A0C944D2A0E94142A38F00E9403
:105560001B2A20F0952311F00C94E4290C94EA29CD
:1055700011240C94952A0E94722A70F3959FC1F30E
:10558000950F50E0551F629FF001729FBB27F00DF1
:10559000B11D639FAA27F00DB11DAA1F649F662746
:1055A000B00DA11D661F829F2227B00DA11D621F95
:1055B000739FB00DA11D621F839FA00D611D221F4F
:1055C000749F3327A00D611D231F849F600D211D33
:1055D000822F762F6A2F11249F5750409AF0F1F0B6
:1055E00088234AF0EE0FFF1FBB1F661F771F881F1F
:1055F00091505040A9F79E3F510580F00C94E4294A
:105600000C94952A5F3FE4F3983ED4F38695779502
:105610006795B795F795E7959F5FC1F7FE2B880FC4
:10562000911D9695879597F908959F930E94242A36
:105630000F9007FCEE5F0C945E2A19F416F40C949C
:10564000EA290C94672B0E947A2AB8F39923C9F3AC
:10565000B6F39F57550B87FF0E94752B0024A0E6D9
:1056600040EA900180585695979528F4805C660F23
:10567000771F881F20F026173707480730F4621B72
:10568000730B840B202931294A2BA6951794079474
:10569000202531254A2758F7660F771F881F20F0ED
:1056A00026173707480730F4620B730B840B200D65
:1056B000311D411DA09581F7B901842F9158880FA4
:1056C0009695879508959B01AC010C94A82A9F3F5D
:1056D00031F0915020F4879577956795B795880FAD
:1056E000911D9695879597F9089591505040660FB2
:1056F000771F881FD2F708959F938F937F936F939F
:10570000FF93EF939B01AC010E94A82AEF91FF91B8
:105710000E94ED292F913F914F915F910C94A82AFF
:1057200097FB072E16F4009407D077FD09D00E944E
:10573000A42B07FC05D03EF4909581959F4F0895CA
:10574000709561957F4F0895AA1BBB1B51E107C05F
:10575000AA1FBB1FA617B70710F0A61BB70B881F01
:10576000991F5A95A9F780959095BC01CD01089590
:10577000EE0FFF1F0590F491E02D0994DC0101C0AC
:105780006D9341505040E0F70895AEE0B0E0EBEC8F
:10579000FBE20C94742E0D891E8986E08C831A839B
:1057A00009838FEF9FE79E838D83AE01475E5F4F36
:1057B0006F89788DCE0101960E94E82B2F81388564
:1057C000020F131FF80110822E96E4E00C94902E25
:1057D000ABE0B0E0EEEEFBE20C94662E7C013B0108
:1057E0008A01FC0117821682838181FFC8C1CE0124
:1057F00001965C01F7019381F30193FD859193FF7D
:1058000081913F01882309F453C1853239F493FD16
:10581000859193FF81913F01853229F4B70190E092
:105820000E94D82DE7CF912C212C312CFFE1F315CC
:1058300038F08B3211F190F4803209F1833229F182
:1058400037FC3CC020ED280F2A3050F536FE20C032
:105850008AE0989E200D1124922E06C08D3291F080
:10586000803371F7689430F8F30193FD859193FFCD
:1058700081913F018111DACF21C0689431F8689499
:1058800032F8F2CF689433F8EFCF689434F8ECCF65
:10589000EAE02E9E200D1124222E689435F8E4CFE4
:1058A0008E3229F436FC04C1689436F8DDCF8C368C
:1058B00019F4689437F8D8CF8836B1F2982F9F7DC5
:1058C00095549330E0F08336A1F18337C1F18335ED
:1058D00009F063C02801F2E04F0E511CF801C080AE
:1058E000D180692D70E036FC02C06FEF7FEFC601FA
:1058F0000E94C22D4C01689437F882010AC00C5FE7
:105900001F4FFFE3F98388248394912C6501E89469
:1059100037F833FE2DC0522C8114910471F55520B7
:1059200009F468CFB70180E290E00E94D82D5A9424
:10593000F6CFF801808189830E5F1F4FE4CF2801E5
:10594000F2E04F0E511CF801C080D180692D70E04B
:1059500036FC02C06FEF7FEFC6010E94CD2D4C01D7
:105960008201D5CFB70180E290E00E94D82D2A9421
:105970002814190409F0B0F7CECFF60137FC859151
:1059800037FE81916F01B70190E00E94D82D511030
:105990005A94F1E08F1A9108BFCF843619F08936F6
:1059A00009F077C0F80137FE6BC060817181828198
:1059B00093810C5F1F4FF32DFF763F2E97FF09C099
:1059C00090958095709561957F4F8F4F9F4F68940C
:1059D00037F82AE030E0A5010E94082EC82ECA1828
:1059E0008C2C432C36FE0CC0E89440F8C91440F4CB
:1059F00034FE05C032FC03C0F32DFE7E4F2E892CF1
:105A000044FE95C0FE01EC0DF11D8081803309F04C
:105A100087C0242D297E422E842D8870582E43FC69
:105A200095C040FE8FC09C2C821418F42C0C922C34
:105A3000981844FE91C0B70180E390E00E94D82DF1
:105A400042FE09C088E790E041FE02C088E590E090
:105A5000B7010E94D82DC91408F48AC0CA94D12C69
:105A60009FEFC91AD90ACA0CDB1CF60182916F019B
:105A7000B70190E00E94D82DAC14BD04B1F74FCF10
:105A800060817181072E000C880B990B0E5F1F4FF0
:105A900092CFD32CE894D4F82AE030E0853739F15E
:105AA000232D297FD22E8F3601F148F48835A9F0B5
:105AB000F701868197812B96E2E10C94822E803744
:105AC00049F08837A9F7D4FE02C06894D2F820E1E3
:105AD00030E00DC06894D4F8F6CF34FE03C0822FB6
